:020000040800F2
:100000007044002061020008A91D00086B1C000854
:10001000A51D000835080008F124000800000000B4
:10002000000000000000000000000000A101000826
:100030003908000800000000FD010008411E00080A
:100040007B0200087B0200087B0200087B0200089C
:100050007B0200087B0200087B0200087B0200088C
:100060007B0200087B0200087B0200087B0200087C
:100070007B0200087B0200087B0200087B0200086C
:100080007B0200087B0200087B0200087B0200085C
:100090007B0200087B0200087B0200087B0200084C
:1000A0007B0200083D1F00087B0200087B0200085D
:1000B0007B0200087B0200087B0200087B0200082C
:1000C0007B0200087B0200087B0200087B0200081C
:1000D0007B020008E12400087B0200087B02000884
:1000E0007B0200087B0200087B0200087B020008FC
:1000F0007B0200087B0200087B0200087B020008EC
:100100007B0200087B0200087B0200087B020008DB
:100110007B0200087B0200087B0200087B020008CB
:100120007B0200087B0200087B0200087B020008BB
:100130007B0200087B0200087B0200087B020008AB
:100140007B0200087B0200087B0200087B0200089B
:100150007B0200087B0200087B0200087B0200088B
:100160007B0200087B0200087B0200087B0200087B
:100170007B0200087B0200087B02000800000000F0
:100180007B0200087B020008DFF810D000F040FB83
:1001900000480047B52E0008AFF3008070440020EF
:1001A0002C4B19680868B0E8F04F80F30988BFF35A
:1001B0006F8F4FF0000080F311887047000000003F
:1001C00008480068006880F308884FF0000080F35A
:1001D000148862B661B6BFF34F8FBFF36F8F00DF35
:1001E00000BF00BF08ED00E0DFF80C00016841F43B
:1001F00070010160704700BF88ED00E0EFF30980F7
:10020000BFF36F8F134B1A681EF0100F08BF20ED5D
:10021000108A20E9F04F106009B44FF0500080F3CD
:100220001188BFF34F8FBFF36F8F03F027FB4FF0A1
:10023000000080F3118809BC19680868B0E8F04F25
:100240001EF0100F08BFB0EC108A80F30988BFF3CE
:100250006F8F70472C000020EFF30580704700007F
:100260000648804706480047FEE7FEE7FEE7FEE750
:10027000FEE7FEE7FEE7FEE7FEE7FEE7291F0008D0
:10028000890100082DE9F05F0546002092469B4653
:1002900088460646814640241BE02846414647469C
:1002A000224600F02FFA53465A46C01A914110D305
:1002B00011461846224600F016F82D1A67EB010881
:1002C0004F4622460120002100F00DF817EB0009EF
:1002D0004E41201EA4F10104DFDC484631462A4687
:1002E0004346BDE8F09F202A04DB203A00FA02F1E1
:1002F000002070479140C2F1200320FA03F3194314
:1003000090407047202A06DBCB17203A41FA02F0D2
:1003100043EAE07306E041FA02F3D040C2F1200262
:10032000914008431946704740EA01039B0703D0F8
:1003300009E008C9121F08C0042AFAD203E011F824
:10034000013B00F8013B521EF9D27047D2B201E0E6
:1003500000F8012B491EFBD270470022F6E710B5CA
:1003600013460A4604461946FFF7F0FF204610BD23
:100370002DE9FE4F804681EA0300C00F0C46009035
:1003800021F0004123F00045B8EB0200A94105D25D
:100390004046214690461C460B46024623F000404C
:1003A000104347D0270DC7F30A00C3F30A51029048
:1003B000401A019040286BDAC3F3130040F4801B0D
:1003C0000098924620B10023D2EB030A63EB0B0B9B
:1003D00001985946C0F140025046FFF784FF064697
:1003E0000D4650465946019AFFF78CFF10EB080066
:1003F0006141002487EA115284EAE7731A4340D02E
:10040000009A62B3019A012A4FEA075215DC001BD9
:1004100061EB02014FF0004202EA0752CDE90042CF
:10042000001C41F5801132462B4600F08AF903B0DA
:10043000BDE8F08F40462146F9E7001B61EB020161
:10044000001C41F5801300185B412018A2F500172D
:1004500047EB030140EAD570B6196D4111E06D0814
:100460004FEA360645EAC0754FEA0752001B61EBBA
:100470000201001C41F5801149084FEA30000019C3
:10048000514132462B4603B0BDE8F04F00F04AB967
:100490000098012240000023D0EB020263EBE073DE
:1004A000009821464FEAE074B8EB000061EB0401CC
:1004B000E9E783F000435BE781F0004158E72DE96D
:1004C000FE4F81EA030404F0004421F0004100944F
:1004D0004FF0000B23F0004350EA01045ED052EAD3
:1004E00003045BD0C3F30A54C1F30A552C44A4F2AD
:1004F000F3340194A0FB0254C1F3130141F48011C1
:10050000C3F3130343F4801301FB024400FB034EC7
:10051000840A970A44EA815447EA8357A4FB076890
:1005200002958D0A05FB07854FEA932C04FB0C54BA
:100530002705029D4FEA065847EA1637B5EB08052E
:100540006EEB070C870E920E47EA811742EA831280
:10055000A7FB0201B6EB0B0164EB00042B0D43EA91
:100560000C335E1844EB1C50DA465146E7FB02019F
:10057000C5F313044FEA0B3343EA14534FEA043232
:10058000019C43EA0603A4F10C040294009CCDE90B
:1005900000B400F0D6F803B0BDE8F08F00200146AB
:1005A000F9E72DE9F04D81EA030404F0004B21F056
:1005B000004514464FF0000A23F0004150EA0502BE
:1005C00020D054EA01021DD0C5F30A570246C5F3F4
:1005D0001303C1F31300C1F30A5640F4801543F42A
:1005E0008013A7EB0608101BD64608F2FD3873EB04
:1005F000050002D308F1010801E092185B41B8F14F
:10060000000F03DA00200146BDE8F08D00204FF412
:100610008011064684460EE0171B73EB050705D3D1
:10062000121B63EB050306434CEA010C49084FEA31
:10063000300092185B4150EA0107EDD152EA030005
:1006400012D082EA040083EA0501084305D0101B9A
:10065000AB4106D20122002306E000224FF0004306
:1006600002E06FF0010253101AEB06004CEB085148
:1006700010EB0A0041EB0B01BDE8F04D00F052B861
:1006800000F0004230F000400AD0C10D01F5607169
:10069000C0F3160042EA0151C208400711437047F7
:1006A000002001467047000030B5041E71F10004BF
:1006B00004DB4FF00044404264EB0101141E73F16F
:1006C000000405DB1C464FF00043524263EB040379
:1006D000994208BF904230BD30B50B46014600201C
:1006E0002022012409E021FA02F59D4205D303FAF4
:1006F00002F5491B04FA02F52844151EA2F1010275
:10070000F1DC30BD202A04DB203A21FA02F000217E
:10071000704721FA02F3D040C2F120029140084311
:100720001946704710B5141E73F1000408DA401C16
:1007300041F1000192185B411A4301D120F0010000
:1007400010BD2DE9F04D92469B4611B1B1FA81F2F0
:1007500002E0B0FA80F220329046FFF7C4FD044672
:100760000F4640EA0A0041EA0B0153465A46084345
:1007700013D0114653EA010019D0C8F14002504687
:10078000FFF7C0FF05460E46504659464246FFF762
:10079000AAFD084305D0012004E020463946BDE803
:1007A000F08D0020054346EAE0762C4337430A9853
:1007B0006305E40AA0EB08000022FD0A44EA47545E
:1007C0000A3002D500200146E9E701051019694108
:1007D000DDE9084500196941BDE8F04DA2E7C1F324
:1007E0000A52C1F3130140F2FF3341F480119A42DF
:1007F00002DA00200146704740F233439A42A2F2E7
:10080000334202DC5242FFF77DBFFFF76CBD0000B0
:10081000064C074D06E0E06840F0010394E807004D
:1008200098471034AC42F6D3FFF7B2FCA0490E084B
:10083000C0490E0800BFFEE7704772B600BFFEE772
:1008400070B50446A56D00F06FF9064694F83500C2
:10085000022808D08020606500BF002084F83400A2
:1008600000BF012070BD2068006820F016002168DC
:1008700008602068406920F0800021684861206C91
:1008800008B9A06C28B12068006820F00800216831
:1008900008602068006820F001002168086010E00E
:1008A00000F042F9801B05280BD920206065032049
:1008B00084F8350000BF002084F8340000BF032016
:1008C000D0E72068006800F001000028E8D194F823
:1008D0005C103F208840A860012084F8350000BFEC
:1008E000002084F8340000BF00BFBBE7014691F848
:1008F0003500022803D0802048650120704705207C
:1009000081F835000868006820F001000A6810606E
:100910000020F3E7F8B502460B460025002400202E
:100920000021D6E0012606FA01F51E6806EA050454
:10093000AC4274D11E7906F00306012E04D01E7954
:1009400006F00306022E13D190684F000326BE4026
:10095000B0434F00DE68BE403043906050680126CF
:100960008E40B0431E79C6F300168E40304350606F
:100970001E7906F00306032E09D0D0684F00032627
:10098000BE40B0434F009E68BE403043D0601E79E9
:1009900006F00306022E13D1CF0802F1200656F806
:1009A00027004E07F70E0F26BE40B0434F07FF0E3D
:1009B0001E69BE403043CF0802F1200646F82700EA
:1009C00010684F000326BE40B0431E7906F00306B0
:1009D0004F00BE40304310605E6806F44036002E83
:1009E00076D000BF002600963C4E366846F480461E
:1009F0003A4F3E603E46366806F48046009600BF99
:100A000000BF374E8F0856F827008E07370F0F2686
:100A1000BE40B043334EB24202D1002624E057E03C
:100A2000314EB24201D101261EE0304EB24201D118
:100A3000022619E02E4EB24201D1032614E02D4EBB
:100A4000B24201D104260FE02B4EB24201D105265D
:100A50000AE02A4EB24201D1062605E0284EB242F3
:100A600001D1072600E008268F073F0FBE40304324
:100A70001B4E8F0846F82700224E3068A0435E6860
:100A800006F4801606B120431E4E3060361D3068D5
:100A9000A0435E6806F4001606B12043194E361DC9
:100AA0003060184E361F3068A0435E6806F400368A
:100AB00006B12043134E361F3060361F3068A04306
:100AC0005E6806F4803606B120430E4E083E306064
:100AD000491C1029FFF426AFF8BD0000443802403D
:100AE00008380140000002400004024000080240B3
:100AF000000C0240001002400014024000180240A6
:100B0000001C0240083C014010B5426921EA020382
:100B100002EA010443EA0443836110BD0AB1816122
:100B200001E00B04836170470148006870470000D2
:100B30001C00002003480068034909780844014963
:100B4000086070471C0000202400002010B50D48EC
:100B5000006840F400700B4908600846006840F4E3
:100B6000806008600846006840F4807008600320D8
:100B700000F0D6F80F2000F007F800F055F800203C
:100B800010BD0000003C0240F0B587B004460026CE
:100B9000002700BF002000901E48006840F00100C0
:100BA0001C4908600846006800F00100009000BF82
:100BB00000BF01A902A800F089F900F0BFF94600C2
:100BC0001548B6FBF0F0471E14481549086040F27E
:100BD000E7311348C1604760002101618160816194
:100BE00000F064FC054695B90D4800F093FC0546FD
:100BF0006DB9192000F042F8102C07D200222146CE
:100C0000192000F04FF80748046000E0012528464D
:100C100007B0F0BD4438024040420F0000000140E0
:100C2000340300202000002008B500BF0020009001
:100C30001148006840F480400F4908600846006889
:100C400000F48040009000BF00BF00BF0020009073
:100C5000081F006840F08050091F086008460068BF
:100C600000F08050009000BF00BF00220F21901EB6
:100C700000F018F808BD000044380240014608465C
:100C800000280DDB00BF00BF00F01F0301229A40C7
:100C900043099B0003F1E023C3F8002100BF00BF1C
:100CA00000BF70472DE9F05F80460D4616460027CD
:100CB00001F030FC074639462A46334601F007006A
:100CC000C0F1070ABAF1040F02D94FF0040A01E09B
:100CD000C0F1070AD14600F1040ABAF1070F02D2A7
:100CE0004FF0000A01E0A0F1030AD4464FF0010AD8
:100CF0000AFA09FAAAF1010A0AEA020A0AFA0CFA3D
:100D00004FF0010B0BFA0CFBABF1010B0BEA030BE1
:100D10004AEA0B042146404601F004FCBDE8F09F7E
:100D200000BF00F00702064B19684FF6FF03194099
:100D3000044B0B4343EA0221014B196000BF70478B
:100D40000CED00E00000FA0570B504460D460CB944
:100D5000012070BD5848006800F00700A84209D281
:100D600055490D700846006800F00700A84201D000
:100D70000120EEE7207800F0020002281DD1207843
:100D800000F00400042805D14C48006840F4E0500D
:100D90004A490860207800F00800082805D1474833
:100DA000006840F46040454908604448006820F00D
:100DB000F000A168084341490860207800F0010074
:100DC000A8B36068012807D13C4808380068C0F320
:100DD0004040B8B90120BCE76068022802D06068D2
:100DE000032807D1354808380068C0F3406048B987
:100DF0000120AEE7314808380068C0F3400008B968
:100E00000120A6E72D48006820F003006168084330
:100E10002A490860FFF788FE064609E0FFF784FECE
:100E2000801B41F28831884202D9032091E707E014
:100E30002248006800F00C006168B0EB810FEDD132
:100E40001D48006800F00700A84209D91A490D7032
:100E50000846006800F00700A84201D0012078E7AA
:100E6000207800F00400042807D11448006820F41A
:100E7000E050E168084311490860207800F008005C
:100E8000082808D10D48006820F46040216940EA34
:100E9000C1000A49086000F061F808490968C1F317
:100EA0000311074A515CC8400649086006480068BB
:100EB000FFF76AFE00204CE7003C02400838024081
:100EC000303E000828000020200000200F22026091
:100ED0000D4A126802F0030242600B4A126802F0E7
:100EE000F0028260084A126802F4E052C260064AC8
:100EF000126802F46042D2080261044A126802F0E9
:100F000007020A607047000008380240003C0240B7
:100F100001480068704700002800002000B5FFF776
:100F2000F7FF04490968C1F38221034A515CC840B4
:100F300000BD000008380240403E000800B5FFF741
:100F4000E7FF04490968C1F34231034A515CC840D4
:100F500000BD000008380240403E00082DE9F0477F
:100F6000002400250026A1462548006800F00C005A
:100F700020B1042805D008283AD105E0DFF8849094
:100F800039E0DFF8849036E01D48001F006800F06B
:100F90003F041B48001F006800F4800078B11A4825
:100FA0001749091F0968C1F38811A0FB01700146A8
:100FB000224600233846FFF765F905460EE0114842
:100FC0000F49091F0968C1F38811A0FB0170014690
:100FD000224600233846FFF755F905460848001F0A
:100FE0000068C0F30140401C4600B5FBF6F902E082
:100FF000DFF8109000BF00BF4846BDE8F087000052
:10100000083802400024F400001BB700F8B504467D
:101010000CB90120F8BD207800F00100002874D040
:10102000F948006800F00C0004280DD0F64800686C
:1010300000F00C00082813D1F348001F006800F4EA
:101040008000B0F5800F0BD1EF4808380068C0F37E
:101050004040002859D06068002856D10120D9E7C7
:1010600000BF6068B0F5803F08D1E74808380068E5
:1010700040F48030E449083908601EE06068B0F54B
:10108000A02F0DD1E0480838006840F48020DE49E8
:10109000083908600846006840F4803008600CE0B9
:1010A000D9480838006820F48030D74908390860EA
:1010B0000846006820F48020086000BF606890B196
:1010C000FFF732FD054606E0FFF72EFD401B6428C2
:1010D00001D903209EE7CC4808380068C0F340409F
:1010E0000028F1D011E0FFF71FFD054606E0FFF7ED
:1010F0001BFD401B642801D903208BE7C248083838
:101100000068C0F340400028F1D1207800F00200D0
:1011100002285FD1BC48006800F00C0058B1BA4802
:10112000006800F00C0008281CD1B748001F0068B8
:1011300000F48000B0B9B44808380068C0F340003B
:1011400020B1E068012801D0012063E7AE480838EB
:10115000006820F0F800216940EAC100AA49083976
:10116000086037E0E06800B30120A8490860FFF795
:10117000DBFC054606E0FFF7D7FC401B022801D93F
:10118000032047E7A04808380068C0F34000002863
:10119000F1D09D480838006820F0F800216940EA45
:1011A000C10099490839086014E000209749086097
:1011B000FFF7BAFC054606E0FFF7B6FC401B022825
:1011C00001D9032026E7904808380068C0F34000A2
:1011D0000028F1D1207800F0080008282CD160699F
:1011E000A8B101208A490860FFF79EFC054606E089
:1011F000FFF79AFC401B022801D903200AE7824826
:101200006C300068C0F340000028F1D014E00020EA
:101210007F490860FFF788FC054606E0FFF784FC7D
:10122000401B022801D90320F4E677486C3000689F
:10123000C0F340000028F1D1207800F00400042819
:1012400070D1002770483830006800F0805090B9A5
:1012500000BF002000906C483830006840F080509B
:101260006949383108600846006800F080500090F5
:1012700000BF00BF01276748006800F48070B0B964
:101280006448006840F4807062490860FFF74CFCD5
:10129000054606E0FFF748FC401B022801D9032061
:1012A000B8E65C48006800F480700028F2D000BF07
:1012B000A068012808D154486830006840F0010057
:1012C0005149683108601DE0A06805280DD14E48DD
:1012D0006830006840F004004B49683108600846F7
:1012E000006840F0010008600CE047486830006882
:1012F00020F001004449683108600846006820F089
:101300000400086000BFA068A8B1FFF70DFC054607
:1013100009E0FFF709FC401B41F28831884202D9FD
:10132000032077E626E0384868300068C0F34000C4
:101330000028EED013E0FFF7F7FB054608E0FFF7C3
:10134000F3FB401B41F28831884201D9032061E65A
:101350002D4868300068C0F340000028EFD1012F0D
:1013600007D129483830006820F0805026493831AC
:10137000086000BFA069002845D02348006800F03D
:101380000C0008285DD0A069022845D100201F4923
:101390000866FFF7C9FB054606E0FFF7C5FB401BE3
:1013A000022801D9032035E6174808380068C0F341
:1013B00040600028F1D1D4E907010843616A40EA9E
:1013C00081110122A06AC2EB500041EA00412C20A9
:1013D000005D41EA00600C49091F086001200B49CB
:1013E0000866FFF7A1FB054606E0FFF79DFB401BE3
:1013F000022801D903200DE6034808380068C0F32D
:1014000040600028F1D049E008380240000047421F
:10141000800E474200700040002021490866FFF717
:1014200083FB054606E0FFF77FFB401B022801D93E
:101430000320EFE51B480068C0F340600028F2D1AC
:101440002CE0A069012800D1E4E51648001D0668DB
:10145000A069012820D006F48001E06981421BD1F7
:1014600006F03F01206A814216D147F6C070304035
:10147000616AB0EB811F0FD106F440310122A06AEE
:10148000C2EB5000B1EB004F06D106F070612C208A
:10149000005DB1EB006F01D00120BBE50020B9E594
:1014A00000004742003802407047704710B50446BC
:1014B0000CB9012010BD94F83D0028B9002084F833
:1014C0003C00204600F025F8022084F83D00211D54
:1014D000206800F03BFD012084F8460000BF84F83E
:1014E0003E0001213F20015540200155412001557A
:1014F00000BF00BF012084F8420043200155442072
:1015000001554520015500BF012084F83D00002011
:10151000D0E77047014691F83D00012801D0012035
:101520007047022081F83D000868C06840F0010063
:101530000B68D8601A4B086898421BD00868B0F155
:10154000804F17D0174B0868984213D0164B086885
:1015500098420FD0154B086898420BD0144B08687E
:10156000984207D0134B0868984203D0124B086882
:1015700098420CD10868806800F00702062A0CD057
:101580000868006840F001000B68186005E0086812
:10159000006840F001000B6818600020C0E7000000
:1015A000000001400004004000080040000C004022
:1015B000000401400040014000180040704770B531
:1015C00004462068C5682068066906F00200022803
:1015D00019D105F00200022815D1401F21680861C9
:1015E000012020772068806900F0030018B12046B0
:1015F000FFF7E4FF05E0204600F097F8204600F0F2
:1016000095F80020207706F00400042819D105F091
:101610000400042815D1C043216808610220207706
:101620002068806900F4407018B12046FFF7C6FFBB
:1016300005E0204600F079F8204600F077F8002019
:10164000207706F00800082819D105F008000828BE
:1016500015D1C04321680861042020772068C06943
:1016600000F0030018B12046FFF7A8FF05E0204670
:1016700000F05BF8204600F059F80020207706F0D3
:101680001000102819D105F01000102815D1C04302
:1016900021680861082020772068C06900F4407044
:1016A00018B12046FFF78AFF05E0204600F03DF81C
:1016B000204600F03BF80020207706F0010048B1FA
:1016C00005F0010030B16FF001002168086120468B
:1016D00000F02EF806F08000802809D105F0800087
:1016E000802805D1C043216808612046FFF7DCFE51
:1016F00006F04000402809D105F04000402805D1FF
:10170000C04321680861204600F01EF806F0200062
:10171000202809D105F02000202805D1C0432168E8
:1017200008612046FFF7C1FE70BD7047704700009A
:1017300010B5044603492068884201D1FFF7FAF941
:1017400010BD000000000140704770477047000066
:101750002DE9F84F0446206805682068C6682068AF
:1017600047694FF00009CA4605F00F09B9F1000FAB
:101770000AD105F0200038B106F0200020B1204643
:1017800000F0A3FCBDE8F88FB9F1000F7CD007F0A2
:10179000010018B906F49070002875D005F001001A
:1017A00030B106F4807018B1606C40F001006064E4
:1017B00005F0040030B107F0010018B1606C40F092
:1017C0000200606405F0020030B107F0010018B1BA
:1017D000606C40F00400606405F0080048B106F059
:1017E000200010B907F0010018B1606C40F008004B
:1017F0006064606C002846D005F0200028B106F037
:10180000200010B1204600F060FC20684069C0F361
:10181000801A606C00F0080010B9BAF1000F2DD0EA
:10182000204600F00CFC2068406900F04000402891
:1018300020D100BF00BF2168143151E8001F21F002
:1018400040002168143141E80002002AF3D100BFB2
:10185000E06B50B17F48E16B0865E06BFFF746F83D
:1018600088B1E06B016D88470DE02046FFF76EFF01
:1018700009E009E02046FFF769FF04E02046FFF792
:1018800065FF002060647DE7206B012878D105F0BA
:101890001000002874D006F010000028FAD000BF15
:1018A0000020009020680068009020684068009048
:1018B00000BF00BF2068406900F04000402870D1A0
:1018C000E06B006840681FFA80F8B8F1000F58D04C
:1018D000A08D404555DDA4F82E80E06BC069B0F5C1
:1018E000807F43D000BF00BF21680C3151E8001F4A
:1018F00021F4807021680C3141E80002002AF3D104
:1019000000BF00BF00BF2168143151E8001F21F063
:1019100001002168143141E80002002AF3D100BF20
:1019200000BF00BF2168143151E8001F21F04000C2
:101930002168143141E80002002AF3D100BF2020C1
:1019400084F842000020206300BF00BF21680C31F2
:1019500051E8001F21F0100021680C3141E800021D
:10196000002AF3D100BFE06BFEF76AFF022060633C
:10197000A08DE28D801A81B22046FFF7E6FE0EE0D0
:1019800052E0A08D40450AD1E06BC069B0F5807F80
:1019900005D102206063A18D2046FFF7D6FEF1E657
:1019A000FFE7A08DE18D401A1FFA80F8E08DD0B3DB
:1019B000B8F1000F37D000BF00BF21680C3151E8EB
:1019C000001F21F4907021680C3141E80002002AC8
:1019D000F3D100BF00BF00BF2168143151E8001FE0
:1019E00021F001002168143141E80002002AF3D1FE
:1019F00000BF202084F842000020206300BF00BF09
:101A000021680C3151E8001F21F0100021680C31D1
:101A100041E80002002AF3D100BF02206063414682
:101A20002046FFF792FEADE605F0800030B106F0EB
:101A3000800018B1204600F0DDFCA3E605F0400070
:101A400030B106F0400018B1204600F02EFB99E6B8
:101A500000BF97E62D20000810B504460CB9012000
:101A600010BDA06900B100E000BF94F8410028B9A2
:101A7000002084F84000204600F02AF8242084F852
:101A800041002068C06820F400502168C8602046EA
:101A900000F09AFB2068006920F4904021680861FA
:101AA0002068406920F02A00216848612068C068E9
:101AB00040F400502168C86000206064202084F851
:101AC000410084F842000020606300BFC8E70000C6
:101AD00010B586B00446142101A8FEF73EFC2E493D
:101AE0002068884255D100BF002000902B48006834
:101AF00040F01000294908600846006800F0100016
:101B0000009000BF00BF00BF0020009023481438A1
:101B1000006840F002002149143908600846006856
:101B200000F00200009000BF00BF00BF0020009046
:101B30000846006840F0010008600846006800F0B0
:101B40000100009000BF00BF8020019002200290A1
:101B500000200390032004900720059001A910485D
:101B6000FEF7D8FE4FF40070019002200290002092
:101B70000390032004900720059001A90948FEF76F
:101B8000C9FE002205212520FFF78CF82520FFF74C
:101B900075F806B010BD0000001001404438024046
:101BA000000402400000024070472DE9F84F04464F
:101BB0000E46174699464FF0000A94F84100202837
:101BC00050D106B117B90120BDE8F88F002060643C
:101BD000212084F84100FEF7A7FF8246A784E7840E
:101BE000A068B0F5805F04D1206910B90025B04627
:101BF00002E035464FF000081EE0534600228021E7
:101C00002046CDF8009000F025FC20B1202084F87B
:101C100041000320D8E745B9B8F80000C0F3080038
:101C20002168486008F1020803E0287821684860CC
:101C30006D1CE08C401EE084E08C0028DDD1534612
:101C4000002240212046CDF8009000F003FC20B196
:101C5000202084F841000320B6E7202084F84100CA
:101C60000020B1E70220AFE7704700BFFEE70000A9
:101C700000B595B01C2212490EA8FEF755FB0021B5
:101C80000EA801F03DF90F4908601C220C491C31D7
:101C900007A8FEF749FB002107A801F031F90A491E
:101CA00008601C22064938316846FEF73DFB0021DA
:101CB000684601F025F90549086015B000BD00002F
:101CC000DC3D000810000020140000201800002057
:101CD00000B587B0142102A8FEF73FFB00BF00202B
:101CE00001902048006840F001001E490860084645
:101CF000006800F00100019000BF00BF00BF00209D
:101D000001900846006840F002000860084600683C
:101D100000F00200019000BF00BF00BF0020019052
:101D20000846006840F0800008600846006800F03F
:101D30008000019000BF00BF00224FF4E0510A482C
:101D4000FEF7ECFE4FF4E0500290012003900220D9
:101D500004900020059002A90348FEF7DBFD07B0C0
:101D600000BD000030380240001C024010B50B4896
:101D70000B4908604FF4E130486000210848816059
:101D8000C16001610C21416100218161C161FFF7E6
:101D900063FE08B1FEF751FD10BD000000100140C8
:101DA000EC02002000BFFEE700BFFEE72DED028B36
:101DB0001CE00F48006800EE100AB8EE400A01F07F
:101DC0001BF80C4880ED000A0068FEF759FC41EC56
:101DD000180B53EC182B08A000F08CFB4FF480611B
:101DE0000848FEF791FE012001F079F8E1E70000D4
:101DF0001C0000200000002073696E782069733A8F
:101E000025660A00001C024008E04FF40061044807
:101E1000FEF77AFE4FF4FA7001F061F8F5E7000082
:101E2000001C024008E04FF480510448FEF76CFEAD
:101E30004FF4967001F053F8F5E70000001C0240E3
:101E400010B500BF502080F31188BFF34F8FBFF350
:101E50006F8F00BF01F09CFE18B14FF08050044915
:101E6000086000BF002080F3118800BF10BD000093
:101E700004ED00E000B593B0302107A8FEF76DFA3D
:101E8000142102A8FEF769FA00BF0020019024483F
:101E9000006840F08050224908600846006800F061
:101EA0008050019000BF00BF00BF002001901D487E
:101EB000006840F480401B4908600846006800F450
:101EC0008040019000BF00BF0120079000040890EF
:101ED00002200D9041050E9106210F91A82110912D
:101EE000022111910421129107A8FFF78FF808B180
:101EF000FEF7A3FC0F200290022003900020049024
:101F00004FF4A05005904FF480500690052102A890
:101F1000FEF71AFF08B1FEF790FC13B000BD0000F9
:101F200040380240007000400348006840F47000F0
:101F3000014908607047000088ED00E010B50248D4
:101F4000FFF73DFB10BD00003403002010B5026810
:101F50002B4B98420ED0B0F1804F0BD0294B9842BA
:101F600008D0294B984205D0284B984202D0284BE4
:101F7000984203D122F070024B681A43204B9842DA
:101F800020D0B0F1804F1DD01E4B98421AD01E4B6E
:101F9000984217D01D4B984214D01D4B984211D037
:101FA0001C4B98420ED01C4B98420BD01B4B9842B6
:101FB00008D01B4B984205D01A4B984202D01A4BBE
:101FC000984203D122F44072CB681A4322F0800376
:101FD0004C6943EA04028B68C3620B688362084B56
:101FE000984202D00A4B984201D10B6903630368FF
:101FF00043F00403036001234361026010BD00004D
:10200000000001400004004000080040000C0040B7
:1020100000040140004001400044014000480140EC
:1020200000180040001C00400020004070B504462D
:10203000A56B0020E8852846FFF788FB70BD00BF30
:1020400000BF02680C3252E8002F22F4907102683F
:102050000C3242E80013002BF3D100BF00BF00BFD9
:102060000268143252E8002F22F001010268143293
:1020700042E80013002BF3D100BF016B01290ED100
:1020800000BF00BF02680C3252E8002F22F010019E
:1020900002680C3242E80013002BF3D100BF20216C
:1020A00080F8421000210163704710B50446206893
:1020B000C06820F040002168C860202084F84100FA
:1020C0002046FFF7D1FD002010BDF8B504460025DD
:1020D000002694F84200222873D1A068B0F5805FF2
:1020E0000BD1206948B9A66A20684068C0F308008F
:1020F0003080A06A801CA06214E0A56AA068B0F5D8
:10210000805F03D0A06828B9206918B920684068AA
:10211000287004E02068406800F07F002870A06A02
:10212000401CA062E08D401E80B2E085002846D1B0
:102130002068C06820F020002168C8602068C0685E
:1021400020F480702168C8602068406920F0010098
:1021500021684861202084F8420000206063206BE1
:10216000012826D10020206300BF00BF21680C3168
:1021700051E8001F21F0100021680C3141E80002F5
:10218000002AF3D100BF2068006800F0100010287A
:102190000AD100BF002000902068006800902068ED
:1021A0004068009000BF00BFA18D2046FFF7CDFA28
:1021B00002E02046FFF7F8FC0020F8BD01E0002017
:1021C000FBE70220F9E700002DE9F84F04462068FC
:1021D000006920F44050E1680843216808612169E2
:1021E000A068084361690843E169084300902068DA
:1021F000C06849F20C618843009908432168C860AF
:102200002068406920F44070A16908432168486152
:1022100076492068884203D075492068884203D1F6
:10222000FEF78CFE814602E0FEF778FE8146E0690B
:10223000B0F5004F6CD102206168A0FB015003464D
:102240001920A9FB007001462A463846FEF71AF805
:102250006421B0FBF1F04FEA001A02206168A0FB94
:1022600001510B461920A9FB00712A463846FEF79A
:1022700009F8834602206168A0FB0150034619203B
:10228000A9FB00712A463846FDF7FCFF6421B0FB2C
:10229000F1F000EBC00101EB0010ABEB800032214C
:1022A00001EBC0006421B0FBF1F000F0F8000AEB94
:1022B000400A02206168A0FB015003461920A9FBD7
:1022C000007001462A463846FDF7DCFF83460220AF
:1022D0006168A0FB015003461920A9FB00712A4642
:1022E0003846FDF7CFFF6421B0FBF1F000EBC001F1
:1022F00001EB0010ABEB8000322101EBC000642148
:10230000B0FBF1F000F007005044216888606AE0FB
:1023100004206168A0FB015003461920A9FB00704E
:1023200001462A463846FDF7ADFF82460420616823
:10233000A0FB015003461920A9FB007001462A4664
:102340003846FDF79FFF6421B0FBF1F000EBC001C0
:1023500001EB0010AAEB8000322101EB0010642198
:10236000B0FBF1F000F0F00A04206168A0FB0170FE
:1023700003461920A9FB00513A462846FDF782FF83
:102380006421B0FBF1F00AEB001A04206168A0FBA5
:1023900001510B461920A9FB00712A463846FDF76A
:1023A00071FF834604206168A0FB01500346192099
:1023B000A9FB007001462A463846FDF763FF6421F9
:1023C000B0FBF1F000EBC00101EB0010ABEB8000C3
:1023D000322101EB00106421B0FBF1F000F00F009E
:1023E000504421688860BDE8F88F0000001001406B
:1023F00000140140014691F84100212828D1886845
:10240000B0F5805F0BD1086948B90A6A1088C0F33B
:1024100008000B685860086A801C086205E00B6AB7
:10242000581C086218780B685860C88C401E80B22F
:10243000C88458B90868C06820F080000B68D8606C
:102440000868C06840F040000B68D8600020704702
:102450000220FCE72DE9F84304460D46174698464E
:10246000089E31E0701C70B3FEF75EFBA0EB080025
:10247000B04200D816B90320BDE8F8832068C068D0
:1024800000F00400F8B1802D1ED0402D1CD0206833
:102490000068C0F3C000B0B100BF00200090206809
:1024A0000068009020684068009000BF00BF204690
:1024B000FFF7C5FD0820606400BF002084F84000DD
:1024C00000BF0120D8E7FFE7206800682840A84245
:1024D00001D1012000E00020B842C3D00020CBE7AA
:1024E00010B50248FFF734F910BD0000EC020020DF
:1024F00000BFFEE70FB4054B10B503A9044A0298CC
:1025000000F0F6F810BC5DF814FB0000992E0008EE
:102510009400002002480068C0F3022070470000C9
:102520000CED00E010B5002804DB0A07130E054A85
:10253000135406E00A07140E034A00F00F031B1F92
:10254000D45410BD00E400E018ED00E002E008C83B
:10255000121F08C1002AFAD170477047002001E01D
:1025600001C1121F002AFBD1704700002DE9FF5F57
:1025700082B00021DDE90430020DDDF840B00343F4
:1025800018D044F61050A2F2FF32424315141198AD
:1025900001281FD0A5EB0B00401C5FEA000A4FF09A
:1025A00000064E4FDFF83891B046504615D5CAF1B7
:1025B000000413E0119801244AA3012801D16FEA15
:1025C0000B010298119AC0E90031C0E9024206B03D
:1025D000BDE8F09FCBF10000DFE704460021404A50
:1025E000491842EB0450CDE9001012E0E00707D093
:1025F00032463B4640464946FDF761FF80468946E4
:1026000032463B4610461946FDF759FF06460F462F
:102610006410002CEAD1DDE90401DDE90023BAF100
:10262000000F06DAFDF74BFF42464B46FDF747FF2A
:1026300005E0FDF7B6FF42464B46FDF7B2FF044604
:102640000E460022284BFEF72FF803D84FF0FF303C
:10265000014607E00022254B20463146FDF788FE63
:10266000FEF7BDF8102409E0002C0ADB0A22002343
:10267000FDF708FE039B30321A55641E50EA010232
:10268000F2D1641C039AC4F111031444119A012A73
:1026900003D0012208430DD10AE0084304D00020F2
:1026A0004FF0110B119072E7A3EB0B056D1E0DE0BF
:1026B0005B4504DD4FF0000205F1010504E003DA9B
:1026C0004FF00002A5F10105002AECD00298119903
:1026D000C0E90231C0E9004579E70000000014407C
:1026E0000000F03F300000000000F0430000E03F39
:1026F0002DE9FF4F95B09A46884606460025EEE143
:10270000252877D100242746F94A0121039400E0C7
:10271000044316F8013F203B01FA03F01042F7D1C1
:1027200030782A2811D06FF02F033078A0F13002D2
:10273000092A16D8039A44F0020402EB820203EB42
:1027400042021044761C0390EFE758F8042B0392E2
:10275000002A03DA504244F40054039044F0020487
:10276000761C30782E2816D116F8010F44F0040498
:102770002A280DD06FF02F023078A0F13003092BFA
:1027800009D807EB870302EB4303C718761CF3E76E
:1027900058F8047B761C30786C280FD006DC4C2867
:1027A00017D068280DD06A2814D104E0742810D0FE
:1027B0007A280FD10DE044F400140AE044F48014A8
:1027C00001E044F440147278824202D104F580148E
:1027D000761C761C307866280BD013DC582877D00E
:1027E00009DC002875D04528F6D04628F4D04728C3
:1027F0001AD193E118E0632835D0642879D0652890
:1028000012D18BE1702873D008DC6728F1D06928D9
:102810006FD06E280DD06F2806D1ACE073282CD075
:10282000752874D0782853D05246179990476D1C5C
:1028300054E1C4F30250022809D003280DD0D8F87F
:10284000001004280DD00D6008F1040846E1D8F806
:102850000010EA17C1E90052F6E7D8F800100D8021
:10286000F2E70D70F0E718F8041B8DF80010002057
:102870008DF80100EB46012003E058F804BB4FF04F
:10288000FF3061074FF0000102D40DE009F10101B2
:102890008946B9420FDA8145F8DB1BF80910002997
:1028A000F4D108E009F1010189468142FADB1BF805
:1028B00009100029F6D103985346A0EB09072146D9
:1028C0003846179A00F080FA284400EB090507E023
:1028D00044E008E10DE01BF8010B524617999047C0
:1028E000B9F10109F7D2534621463846179AF2E06A
:1028F00039E00A21C4F302524FF0000B0091022A82
:1029000006D058F8040BC117032A09D00AE023E0C7
:1029100008F1070020F00702F2E80201904605E006
:1029200000B2C117042A01D140B2C117002906DA4A
:102930000A460021404261EB02012D2202E02205FD
:1029400004D52B228DF80420012203E0E20701D0F8
:102950002022F7E7914657E00A2100E010214FF0CE
:10296000000B00910BE010214FF0000B44F0040429
:102970000827009103E008204FF0000B0090C4F3FB
:102980000252022A05D058F8040B0021032A08D06D
:1029900008E008F1070020F00702F2E80201904683
:1029A00003E080B2042A00D1C0B24FF00009220730
:1029B0002AD53278702A07D0DDF800C08CF0100CD0
:1029C0005CEA0B0C05D00EE040228DF804200122B9
:1029D00008E050EA010306D030238DF804308DF86A
:1029E000052002229146009B83F0080353EA0B0363
:1029F0000AD150EA010201D1620705D530228DF8D3
:102A000004204FF001097F1E3278582A04D039A2E1
:102A10000C920CAA02920BE03BA2F9E75B46009AEB
:102A2000FDF730FC0C9B9B5C029A521E02921370C5
:102A300050EA0102F2D1029804A9081A00F1200B11
:102A4000600702D524F4803400E001275F4502DDF1
:102A5000A7EB0B0000E0002000EB0B0100900398B7
:102A60004944401A0390E00306D453462146179A7E
:102A7000039800F0A9F90544002706E001A8524692
:102A8000C05D179990476D1C7F1C4F45F6DBE00336
:102A90000CD553462146179A039800F095F9054442
:102AA00004E030205246179990476D1C0099481E4B
:102AB00000900029F5DC08E002980299524600785F
:102AC000491C0291179990476D1CBBF10001ABF1B5
:102AD000010BF1DC5BE100F065F90544761C307810
:102AE00000287FF40DAE19B02846BDE8F08F000035
:102AF00009280100303132333435363738396162D4
:102B00006364656600000000303132333435363797
:102B1000383941424344454600000000600700D474
:102B2000062708F1070020F00700F0E8022380469E
:102B300003F0004C5FEA0C0001D097A009E02005EB
:102B400001D596A005E0E00701D095A001E0AFF225
:102B50004C001390307823F0004365280CD006DC3D
:102B6000452809D046281DD047287FD13BE066285C
:102B700018D067287AD136E00021112F01DB11200F
:102B800000E0781CCDE9000104A90CA8FFF7EEFCD9
:102B9000DDE90D010C9A4FF0000B07F101091092CD
:102BA00000914EE04FF000400097CDE9011004A9DC
:102BB0000CA8FFF7DBFCDDE90D020C9B0F994FF031
:102BC000000B91461093009211B9791C00EB01099A
:102BD000B7EB090003D4C0F1FF3B07F10109A9EBF2
:102BE0000700019042E0012F00DA01270021112F98
:102BF00001DD112000E03846CDE9000104A90CA850
:102C0000FFF7B4FCDDE90D010C9A00914FF0000BC9
:102C1000B946109221070FD4009A4A4503DA91462B
:102C200001E0A9F10109B9F1010F05DD109AA9F13F
:102C30000101515C3029F4D0B84202DA10F1040FDE
:102C400003DA0121CDE9011010E0002803DC834400
:102C5000A9EB000102E0411C494500DD8946A0EBDB
:102C60000B00401C01904FF000400290200705D45B
:102C70000198484502DB4FF0FF30019000208DF8AD
:102C80004B0002980DF14B07B0F1004F25D0022008
:102C90000C902B200D90029800280CDA40420290F4
:102CA0002D200D9007E00A210298FDF715FD303127
:102CB000029007F8011D0C99481E0C900029F2DCC7
:102CC00002980028EFD1791E0D980870307800F036
:102CD000200040F0450007F8020D11A8C01BC01DE0
:102CE00002901398007800B1012000EB09010198CF
:102CF00001EBE071029801440398401A401E0390D2
:102D0000E00306D453462146179A039800F05CF876
:102D100005441398007818B15246179990476D1CD6
:102D2000E00323D553462146179A039800F04CF848
:102D300005441BE0BBF1000F07DB0098584504DD9C
:102D40001098179910F80B0001E01799302052469F
:102D5000904701980BF1010B401E05F10105019010
:102D600004D12E205246179990476D1CB9F10001ED
:102D7000A9F10109DEDC05E017F8010B52461799AD
:102D800090476D1C0299481E02900029F4DC5346BE
:102D90002146179A03989EE62D0000002B000000A4
:102DA000200000002DE9F041044600251E4617468C
:102DB000880404D405E039462020B0476D1C641E09
:102DC000F9D52846BDE8F0812DE9F04104460025FB
:102DD0001E469046C80301D5302700E0202788040E
:102DE00004D505E041463846B0476D1C641EF9D550
:102DF0002846BDE8F0810000B0EE402ADFED233A1E
:102E000062EE233AF0EE630AFDEEE03A13EE901A1A
:102E1000F5EEC00AF1EE10FA00D2491E03EE901A48
:102E2000F8EEE33A70EEE33AF0EE630ADFED183ABB
:102E300020EEA31AFCEEC13A13EE902A90B2B0F540
:102E4000007F06DB0020DFED123A71EE633AB0EE50
:102E5000631A03EE900AF8EE633A71EE631A0D4AB4
:102E600002EB8002D2ED002A0A4B421C03EB8202E5
:102E700092ED003AF7EE003A73EEE13A63EEA23AD1
:102E8000B0EE630A01EE830A7047000083F9223E28
:102E90000000004400300E0813B50C464FF6FF73D7
:102EA000012269460248FEF780FE00981CBD000022
:102EB000EC020020FDF74AFEFEF7DCFFFEF708FFFC
:102EC000FEF754FFFEF7D4FE00F015F800BFFEE752
:102ED00001460020842901D0CA1C1044704770B5F7
:102EE000044625460DB1294600E00121084600F0C0
:102EF00037FC002070BD10B500F060FC002010BD54
:102F00007FB504460D46606998B1A06988B1B4F9EF
:102F10000800FFF7DDFF0646D4E90510CDE90061A2
:102F200002902B462269D4E9001000F0D3FD0390F3
:102F300013E0B4F90800FFF7CBFF064603A8CDE97C
:102F40000060238A9AB22B46D4E9001000F090FD6D
:102F5000012802D0002004B070BD0398FBE70000F8
:102F60002DE9F04105460E461C4807681C480068DC
:102F7000001D00F0F1FA50B91948006890F82C10C3
:102F80000120884017490968814316480160681C80
:102F900038B936B112480168091D134800F026FB04
:102FA0001AE07C190E4800684460BC4207D20C4805
:102FB0000168091D0D48006800F0FEFA0CE00848A1
:102FC0000168091D0A48006800F0F6FA094800681F
:102FD000844201D207480460BDE8F081400000202F
:102FE0002C00002044000020580400203400002061
:102FF000300000205C00002010B5044600F002FB09
:1030000023480068401C224908602248006840B9F3
:10301000204804600846006801280DD100F03EF900
:103020000AE01D48006838B91A480068C06AE16AB9
:10303000884201D81748046018480068401C1749A6
:10304000086094F82C10012088401549096808434D
:1030500013490860E16A01EB8101124A02EB810029
:10306000211D00F0C3FA00F0F7FA0B48006868B1C0
:1030700008480068C06AE16A884207D24FF0805071
:1030800009490860BFF34F8FBFF36F8F10BD000079
:103090003C0000202C0000204800002058000020A8
:1030A000440000207C03002004ED00E010B516E091
:1030B00000F0A8FA0C48C068C468201D00F04CFA63
:1030C0000A480068401E0949086009480068401E17
:1030D0000749086000F0C0FA204600F00BF80448E9
:1030E00000680028E4D110BD440400203C0000200A
:1030F0003800002010B5044694F8510030B9206B18
:1031000000F0C8FA204600F0C5FA1AE094F8510021
:10311000012803D1204600F0BDFA12E094F85100D6
:10312000022801D1012000E0002050B900BF50204A
:1031300080F31188BFF34F8FBFF36F8F00BF00BFC5
:10314000FEE710BD30B54FF47053174800F0070488
:103150002CB1C01D20F00700134C041B1B1B0246A2
:10316000124C22600024114D6C60D018083820F0F9
:1031700007000F4C206000240D4D2D686C600C4D35
:103180002D682C601146441A4C60094C24680C6070
:10319000084D4C682C60084D4C682C604FF0004482
:1031A000064D2C6030BD00006C040020680000203B
:1031B00070000020780000207400002084000020AF
:1031C00000BFFFF773FF064800680128F9D94FF0E8
:1031D000805004490860BFF34F8FBFF36F8FF0E753
:1031E0007C03002004ED00E02DE9FF5F81460E46E0
:1031F0009246DDE90E7B109CAAF10100216B01EBE8
:10320000800828F0070808F0070008B9012000E04E
:10321000002050B900BF502080F31188BFF34F8FBA
:10322000BFF36F8F00BF00BFFEE786B1002507E048
:10323000715D04F134004155705D00B902E06D1C10
:10324000102DF5D300BF00214320015502E00020DE
:1032500084F83400072F00D30627E7626764002054
:10326000A064201D00F0A5F904F1180000F0A1F9F8
:103270002461C7F10700A06164620020E06484F863
:10328000500049464046039A00F050F92060BBF1D7
:10329000000F01D0CBF80040BDE8FF9F10B500241F
:1032A00007E004EB84010F4A02EB810000F074F99F
:1032B000641C072CF5D30C4800F06EF90B4800F0A5
:1032C0006BF90B4800F068F90A4800F065F90A4804
:1032D00000F062F904480949086004480849086098
:1032E00010BD00007C030020080400201C04002006
:1032F0003004002044040020580400203000002046
:103300003400002010B50146164800E0006803684C
:103310008B42FBD30246436813448B4204D143687B
:103320004C682344436001460A464B6813440468D2
:10333000A34211D10C4C03682468A34208D04B6807
:103340000468646823444B6003681B680B6005E0F5
:10335000054B1B680B6001E003680B60884200D0DE
:10336000016010BD68000020700000200A49096853
:10337000096809B9012100E0002121B14FF0FF31B6
:10338000064A116006E004490968C968C868034A2A
:103390004168116070470000300000205C00002090
:1033A0000E480068401C08B9012000E0002050B918
:1033B00000BF502080F31188BFF34F8FBFF36F8F92
:1033C00000BF00BFFEE700BF502080F31188BFF3AD
:1033D0004F8FBFF36F8F00BF00BFFEE78800002054
:1033E0002DE9F04104464FF0000800F03FFA49484B
:1033F000006808B9FFF7A6FE47480068204000288B
:1034000070D1D4B1083404F00700B0B104F0070063
:10341000C0F10800044404F0070008B9012000E0EE
:10342000002050B900BF502080F31188BFF34F8FA8
:10343000BFF36F8F00BF00BFFEE7002C52D03748AC
:10344000006884424ED8364E3046056801E02E466C
:103450002D686868A04202D228680028F7D12D485C
:10346000006885423ED0306800F108082868306066
:103470006868001B102819D92F1907F0070008B930
:10348000012000E0002050B900BF502080F31188D7
:10349000BFF34F8FBFF36F8F00BF00BFFEE76868B9
:1034A000001B78606C603846FFF72CFF1B4968688A
:1034B0000968081A19490860084600681949096826
:1034C000884203D2154800681649086012496868A6
:1034D0000968084368600020286013480068401CA1
:1034E0001149086000F0F8FB08F0070008B9012056
:1034F00000E0002050B900BF502080F31188BFF3D6
:103500004F8FBFF36F8F00BF00BFFEE74046BDE89F
:10351000F081000070000020840000207400002072
:1035200068000020780000207C000020001F4FF081
:1035300080730360001F21F001030360001F054B2F
:10354000036014380260001F6FF00203036020382C
:1035500070470000A133000801460A69D1E9013033
:103560009860D1E9010358605068884201D18868A9
:103570005060002008611068401E1060106870479D
:10358000034B0360034B0B60802313607047000004
:1035900098000020EC00002000F1080141604FF08D
:1035A000FF31816000F10801C1600161002101600B
:1035B000704700210161704710B502460B685C1C22
:1035C0000CB9106907E002F1080000E040684468A7
:1035D00024689C42FAD944684C604C68A1608860B9
:1035E00041600A611468641C146010BD42684A603E
:1035F00093688B60936859609160086103685B1CF5
:103600000360704700BF502080F31188BFF34F8FD5
:10361000BFF36F8F00BF0E480068401C0C49086064
:1036200008460068012812D10A480068C0B208B9EB
:10363000012000E0002050B900BF502080F3118825
:10364000BFF34F8FBFF36F8F00BF00BFFEE7704720
:103650008800002004ED00E00D48006850B900BF6C
:10366000502080F31188BFF34F8FBFF36F8F00BFDF
:1036700000BFFEE706480068401E0549086008468E
:10368000006820B9002080F3118800BF00BF704798
:103690008800002070B506463546002E44D0083D0F
:1036A0002C46224960680968084008B1012000E002
:1036B000002050B900BF502080F31188BFF34F8F16
:1036C000BFF36F8F00BF00BFFEE7206808B901207D
:1036D00000E0002050B900BF502080F31188BFF3F4
:1036E0004F8FBFF36F8F00BF00BFFEE70F496068C9
:1036F00009680840C0B12068B0B90C496068096821
:103700008843606000F0B2F80949606809680844BD
:10371000074908602046FFF7F5FD06480068401C91
:103720000449086000F0D8FA70BD00008400002051
:10373000740000208000002000204FF0E02108618C
:103740008861064800684FF47A71B0FBF1F0401EC2
:103750004FF0E021486107200861704728000020F1
:1037600070B504460025D4B11248006808B901209C
:1037700000E0002050B900BF502080F31188BFF353
:103780004F8FBFF36F8F00BF00BFFEE700F06EF8F2
:1037900000212046FFF7E4FB00F09EFA05463DB904
:1037A0004FF0805004490860BFF34F8FBFF36F8F15
:1037B00070BD00006400002004ED00E010B586B08C
:1037C00000200590049003AA04A905A8FFF7D8FEDD
:1037D0000022DDE904101346CDE9002102901CA16E
:1037E0001D48039A00F076F91C49086008460068F5
:1037F00008B1012400E00024012C15D100BF5020A5
:1038000080F31188BFF34F8FBFF36F8F00BF4FF06E
:10381000FF30134908600120124908600020124956
:10382000086000F071F810E0601C08B1012000E0B1
:10383000002050B900BF502080F31188BFF34F8F94
:10384000BFF36F8F00BF00BFFEE706B010BD0000E2
:1038500049444C4500000000C131000860000020D0
:103860005C00002048000020400000200248006862
:10387000401C014908607047640000201D48006832
:1038800018B101201C49086032E000201A49086084
:103890001A480068B0FA80F0C0F11F0101EB810006
:1038A000174A52F8200008B1012000E0002050B96A
:1038B00000BF502080F31188BFF34F8FBFF36F8F8D
:1038C00000BF00BFFEE701EB81020D4B03EB82005E
:1038D00042685268426000F108024368934202D194
:1038E0004268526842604268D268064B1A6000BF64
:1038F00070470000640000205000002044000020B9
:103900007C0300202C0000201CB55248006852495E
:10391000884201D0012000E0002050B900BF5020B3
:1039200080F31188BFF34F8FBFF36F8F00BF00BFCD
:10393000FEE7484800684849491E884201D00120F6
:1039400000E0002050B900BF502080F31188BFF381
:103950004F8FBFF36F8F00BF00BFFEE73F490846A0
:1039600000780190FF200A46107008460078009009
:103970009DF8000000F0F0009DF80020904201D179
:10398000012000E0002050B900BF502080F31188D2
:10399000BFF34F8FBFF36F8F00BF00BFFEE79DF8EF
:1039A000000000F050002E4A107007202D4A1060D1
:1039B00009E02C480068401E2A4A10609DF800006B
:1039C0004006000E00909DF8000000F08000802866
:1039D000EFD024480068C0F10700042801D101207D
:1039E00000E0002050B900BF502080F31188BFF3E1
:1039F0004F8FBFF36F8F00BF00BFFEE7194800680D
:103A00000002184A10601046008800F4E060106060
:103A1000124A019810700F482030006840F470007E
:103A20000C49203108600846006840F0704008608A
:103A3000FFF782FE00200C490860FCF7D5FB0B481D
:103A4000006840F0404009490860FCF7B9FB0020DD
:103A50001CBD000000ED00E071C20F4100E400E079
:103A60008C000020900000208800002034EF00E04F
:103A70002DE9FF4F85B0804689461746DDE912AB38
:103A8000B800FFF7ADFC064656B15420FFF7A8FC7E
:103A900004460CB1266304E03046FFF7FBFD00E06E
:103AA00000248CB1002084F85100CDE900ABCDE9B1
:103AB00002403A4649464046089BFFF795FB2046A0
:103AC000FFF79AFA012501E04FF0FF35284609B0CB
:103AD000BDE8F08F2DE9F04F85B007468846914646
:103AE0009A46DDE90EB6109C0EB1012000E00020E0
:103AF00050B900BF502080F31188BFF34F8FBFF340
:103B00006F8F00BF00BFFEE70CB1012000E0002076
:103B100050B900BF502080F31188BFF34F8FBFF31F
:103B20006F8F00BF00BFFEE7542003900398542816
:103B300001D1012000E0002050B900BF502080F3E7
:103B40001188BFF34F8FBFF36F8F00BF00BFFEE739
:103B500000BFB4B1AEB125462C462E63022085F8D5
:103B60005100002004A953464A46CDE900B1CDE9F1
:103B7000025041463846FFF737FB2846FFF73CFA2C
:103B800001E000200490049805B0BDE8F08F00002B
:103B90002DE9F0414FF000084448006800287CD12E
:103BA00043480068451C4248056015BB4148006811
:103BB000006808B9012000E0002050B900BF502083
:103BC00080F31188BFF34F8FBFF36F8F00BF00BF2B
:103BD000FEE73848076838480068364908603648C4
:103BE000076036480068401C34490860FFF7BEFB98
:103BF00000BF3348006885423CD300BF2D480068B1
:103C0000006808B9012000E0002020B14FF0FF302B
:103C10002B4908602DE027480068C068C4686668C2
:103C2000B54202D22648066023E0201DFFF794FC2F
:103C3000A06A18B104F11800FFF78EFC94F82C105C
:103C4000012088401F49096808431E490860E16A4D
:103C500001EB81011C4A02EB8100211DFFF7C6FC2C
:103C60001A49E06A0968C96A8842C7D34FF0010857
:103C7000C4E700BF15480068C06A00EB8000124925
:103C800051F82000012801D94FF0010810480068C0
:103C900008B14FF0010805E0FFE70E480068401C3E
:103CA0000C4908604046BDE8F08100006400002037
:103CB000400000203000002034000020540000208C
:103CC0005C000020440000207C0300202C00002029
:103CD000500000204C00002070B50024002636481B
:103CE000006850B900BF502080F31188BFF34F8F98
:103CF000BFF36F8F00BF00BFFEE7FFF783FC2E48C6
:103D00000068401E2C4908600846006800284FD112
:103D10002A48006800284BD024E02948C068C468BD
:103D200004F11800FFF718FC201DFFF715FC94F8AC
:103D30002C10012088402349096808432149086064
:103D4000E16A01EB8101204A02EB8100211DFFF7AE
:103D50004DFC1E49E06A0968C96A884202D3012005
:103D60001B4908601648006808B9012000E00020DF
:103D70000028D2D00CB1FFF7F9FA1648056865B1F2
:103D800000BFFFF705FF10B10120114908606D1E4B
:103D9000002DF6D100200F4908600D48006838B1A9
:103DA000012630070C490860BFF34F8FBFF36F8FB8
:103DB000FFF752FC304670BD640000203C0000203C
:103DC00030040020440000207C0300202C00002050
:103DD000500000204C00002004ED00E094490E0843
:103DE000AD1D0008000000000000000000020000FF
:103DF00000000000000000007C490E08091E0008B9
:103E0000FDFF0000000000000002000000000000B4
:103E10000000000088490E08251E0008FDFF000074
:103E20000000000000020000000000000000000090
:103E3000000000000000000001020304060708095A
:103E4000000000000102030400040002000600015B
:103E500000050003000780008004800280068001C6
:103E60008005800380074000400440024006400176
:103E7000400540034007C000C004C002C006C001A6
:103E8000C005C003C0072000200420022006200136
:103E9000200520032007A000A004A002A006A00186
:103EA000A005A003A0076000600460026006600136
:103EB000600560036007E000E004E002E006E00166
:103EC000E005E003E00710001004100210061001E6
:103ED00010051003100790009004900290069001C6
:103EE0009005900390075000500450025006500176
:103EF000500550035007D000D004D002D006D001A6
:103F0000D005D003D0073000300430023006300135
:103F1000300530033007B000B004B002B006B00185
:103F2000B005B003B0077000700470027006700135
:103F3000700570037007F000F004F002F006F00165
:103F4000F005F003F007080008040802080608015D
:103F50000805080308078800880488028806880185
:103F60008805880388074800480448024806480135
:103F7000480548034807C800C804C802C806C80165
:103F8000C805C803C80728002804280228062801F5
:103F9000280528032807A800A804A802A806A80145
:103FA000A805A803A80768006804680268066801F5
:103FB000680568036807E800E804E802E806E80125
:103FC000E805E803E80718001804180218061801A5
:103FD0001805180318079800980498029806980185
:103FE0009805980398075800580458025806580135
:103FF000580558035807D800D804D802D806D80165
:10400000D805D803D80738003804380238063801F4
:10401000380538033807B800B804B802B806B80144
:10402000B805B803B80778007804780278067801F4
:10403000780578037807F800F804F802F806F80124
:10404000F805F803F8070400040404020406040158
:1040500004050403040784008404840284068401A4
:104060008405840384074400440444024406440154
:10407000440544034407C400C404C402C406C40184
:10408000C405C403C4072400240424022406240114
:10409000240524032407A400A404A402A406A40164
:1040A000A405A403A4076400640464026406640114
:1040B000640564036407E400E404E402E406E40144
:1040C000E405E403E40714001404140214061401C4
:1040D00014051403140794009404940294069401A4
:1040E0009405940394075400540454025406540154
:1040F000540554035407D400D404D402D406D40184
:10410000D405D403D4073400340434023406340113
:10411000340534033407B400B404B402B406B40163
:10412000B405B403B4077400740474027406740113
:10413000740574037407F400F404F402F406F40143
:10414000F405F403F4070C000C040C020C060C013B
:104150000C050C030C078C008C048C028C068C0163
:104160008C058C038C074C004C044C024C064C0113
:104170004C054C034C07CC00CC04CC02CC06CC0143
:10418000CC05CC03CC072C002C042C022C062C01D3
:104190002C052C032C07AC00AC04AC02AC06AC0123
:1041A000AC05AC03AC076C006C046C026C066C01D3
:1041B0006C056C036C07EC00EC04EC02EC06EC0103
:1041C000EC05EC03EC071C001C041C021C061C0183
:1041D0001C051C031C079C009C049C029C069C0163
:1041E0009C059C039C075C005C045C025C065C0113
:1041F0005C055C035C07DC00DC04DC02DC06DC0143
:10420000DC05DC03DC073C003C043C023C063C01D2
:104210003C053C033C07BC00BC04BC02BC06BC0122
:10422000BC05BC03BC077C007C047C027C067C01D2
:104230007C057C037C07FC00FC04FC02FC06FC0102
:10424000FC05FC03FC070200020402020206020154
:1042500002050203020782008204820282068201B2
:104260008205820382074200420442024206420162
:10427000420542034207C200C204C202C206C20192
:10428000C205C203C2072200220422022206220122
:10429000220522032207A200A204A202A206A20172
:1042A000A205A203A2076200620462026206620122
:1042B000620562036207E200E204E202E206E20152
:1042C000E205E203E20712001204120212061201D2
:1042D00012051203120792009204920292069201B2
:1042E0009205920392075200520452025206520162
:1042F000520552035207D200D204D202D206D20192
:10430000D205D203D2073200320432023206320121
:10431000320532033207B200B204B202B206B20171
:10432000B205B203B2077200720472027206720121
:10433000720572037207F200F204F202F206F20151
:10434000F205F203F2070A000A040A020A060A0149
:104350000A050A030A078A008A048A028A068A0171
:104360008A058A038A074A004A044A024A064A0121
:104370004A054A034A07CA00CA04CA02CA06CA0151
:10438000CA05CA03CA072A002A042A022A062A01E1
:104390002A052A032A07AA00AA04AA02AA06AA0131
:1043A000AA05AA03AA076A006A046A026A066A01E1
:1043B0006A056A036A07EA00EA04EA02EA06EA0111
:1043C000EA05EA03EA071A001A041A021A061A0191
:1043D0001A051A031A079A009A049A029A069A0171
:1043E0009A059A039A075A005A045A025A065A0121
:1043F0005A055A035A07DA00DA04DA02DA06DA0151
:10440000DA05DA03DA073A003A043A023A063A01E0
:104410003A053A033A07BA00BA04BA02BA06BA0130
:10442000BA05BA03BA077A007A047A027A067A01E0
:104430007A057A037A07FA00FA04FA02FA06FA0110
:10444000FA05FA03FA070600060406020606060144
:104450000605060306078600860486028606860190
:104460008605860386074600460446024606460140
:10447000460546034607C600C604C602C606C60170
:10448000C605C603C6072600260426022606260100
:10449000260526032607A600A604A602A606A60150
:1044A000A605A603A6076600660466026606660100
:1044B000660566036607E600E604E602E606E60130
:1044C000E605E603E60716001604160216061601B0
:1044D0001605160316079600960496029606960190
:1044E0009605960396075600560456025606560140
:1044F000560556035607D600D604D602D606D60170
:10450000D605D603D60736003604360236063601FF
:10451000360536033607B600B604B602B606B6014F
:10452000B605B603B60776007604760276067601FF
:10453000760576037607F600F604F602F606F6012F
:10454000F605F603F6070E000E040E020E060E0127
:104550000E050E030E078E008E048E028E068E014F
:104560008E058E038E074E004E044E024E064E01FF
:104570004E054E034E07CE00CE04CE02CE06CE012F
:10458000CE05CE03CE072E002E042E022E062E01BF
:104590002E052E032E07AE00AE04AE02AE06AE010F
:1045A000AE05AE03AE076E006E046E026E066E01BF
:1045B0006E056E036E07EE00EE04EE02EE06EE01EF
:1045C000EE05EE03EE071E001E041E021E061E016F
:1045D0001E051E031E079E009E049E029E069E014F
:1045E0009E059E039E075E005E045E025E065E01FF
:1045F0005E055E035E07DE00DE04DE02DE06DE012F
:10460000DE05DE03DE073E003E043E023E063E01BE
:104610003E053E033E07BE00BE04BE02BE06BE010E
:10462000BE05BE03BE077E007E047E027E067E01BE
:104630007E057E037E07FE00FE04FE02FE06FE01EE
:10464000FE05FE03FE070100000000000000F03F31
:104650000000000000000000468D32CF6B90ED3F5F
:1046600063A9AEA6E27DD83FCC3B7F669EA0E63F25
:10467000CC3B7F669EA0E63F63A9AEA6E27DD83F15
:10468000468D32CF6B90ED3F00000000000000002F
:10469000000000000000F03F63A9AEA6E27DD8BF95
:1046A000468D32CF6B90ED3FCC3B7F669EA0E6BF40
:1046B000CC3B7F669EA0E63F468D32CF6B90EDBF30
:1046C00063A9AEA6E27DD83F000000000000F0BF65
:1046D0000000000000000000468D32CF6B90EDBF5F
:1046E00063A9AEA6E27DD8BFCC3B7F669EA0E6BFA5
:1046F000CC3B7F669EA0E6BF63A9AEA6E27DD8BF95
:10470000468D32CF6B90EDBF00000000000000002E
:10471000000000000000F0BF63A9AEA6E27DD83F14
:10472000468D32CF6B90EDBFCC3B7F669EA0E63FBF
:10473000CC3B7F669EA0E6BF468D32CF6B90ED3FAF
:1047400063A9AEA6E27DD8BF000000000000F03FE4
:104750000000000000000000B05CF7CF9762EF3F60
:104760000AA6693CB8F8C83F468D32CF6B90ED3F42
:1047700063A9AEA6E27DD83FA3A10E29669BEA3FBE
:10478000C868AE393BC7E13FCC3B7F669EA0E63FA1
:10479000CC3B7F669EA0E63FC868AE393BC7E13F91
:1047A000A3A10E29669BEA3F63A9AEA6E27DD83F8E
:1047B000468D32CF6B90ED3F0AA6693CB8F8C83FF2
:1047C000B05CF7CF9762EF3F0000000000000000F0
:1047D000000000000000F03F0AA6693CB8F8C8BF1E
:1047E000B05CF7CF9762EF3F63A9AEA6E27DD8BF7A
:1047F000468D32CF6B90ED3FC868AE393BC7E1BF05
:10480000A3A10E29669BEA3FCC3B7F669EA0E6BF34
:10481000CC3B7F669EA0E63FA3A10E29669BEABF24
:10482000C868AE393BC7E13F468D32CF6B90EDBFD4
:1048300063A9AEA6E27DD83FB05CF7CF9762EFBF29
:104840000AA6693CB8F8C83F000000000000F0BFAD
:104850000000000000000000B05CF7CF9762EFBFDF
:104860000AA6693CB8F8C8BF468D32CF6B90EDBF41
:1048700063A9AEA6E27DD8BFA3A10E29669BEABFBD
:10488000C868AE393BC7E1BFCC3B7F669EA0E6BFA0
:10489000CC3B7F669EA0E6BFC868AE393BC7E1BF90
:1048A000A3A10E29669BEABF63A9AEA6E27DD8BF8D
:1048B000468D32CF6B90EDBF0AA6693CB8F8C8BFF1
:1048C000B05CF7CF9762EFBF00000000000000006F
:1048D000000000000000F0BF0AA6693CB8F8C83F1D
:1048E000B05CF7CF9762EFBF63A9AEA6E27DD83F79
:1048F000468D32CF6B90EDBFC868AE393BC7E13F04
:10490000A3A10E29669BEABFCC3B7F669EA0E63F33
:10491000CC3B7F669EA0E6BFA3A10E29669BEA3F23
:10492000C868AE393BC7E1BF468D32CF6B90ED3FD3
:1049300063A9AEA6E27DD8BFB05CF7CF9762EF3F28
:104940000AA6693CB8F8C8BF000000000000F03FAC
:1049500000000000000000002625D1A38DD8EF3F05
:104960002CB429BCA617B93FB05CF7CF9762EF3FD4
:104970000AA6693CB8F8C83FDA2DC656419FEE3FFB
:10498000059FD52E0694D23F468D32CF6B90ED3FDA
:1049900063A9AEA6E27DD83FB1BD80F1B238EC3F4D
:1049A0003BF606385D2BDE3FA3A10E29669BEA3F4E
:1049B000C868AE393BC7E13F4117156B80BCE83F83
:1049C000D61D0925F34CE43FCC3B7F669EA0E63F15
:1049D000CC3B7F669EA0E63FD61D0925F34CE43F05
:1049E0004117156B80BCE83FC868AE393BC7E13F53
:1049F000A3A10E29669BEA3F3BF606385D2BDE3FFE
:104A0000B1BD80F1B238EC3F63A9AEA6E27DD83FDC
:104A1000468D32CF6B90ED3F059FD52E0694D23F49
:104A2000DA2DC656419FEE3F0AA6693CB8F8C83F4A
:104A3000B05CF7CF9762EF3F2CB429BCA617B93F03
:104A40002625D1A38DD8EF3F000000000000000014
:104A5000000000000000F03F2CB429BCA617B9BF2D
:104A60002625D1A38DD8EF3F0AA6693CB8F8C8BF68
:104A7000B05CF7CF9762EF3F059FD52E0694D2BF6B
:104A8000DA2DC656419FEE3F63A9AEA6E27DD8BFA0
:104A9000468D32CF6B90ED3F3BF606385D2BDEBF87
:104AA000B1BD80F1B238EC3FC868AE393BC7E1BF59
:104AB000A3A10E29669BEA3FD61D0925F34CE4BF4E
:104AC0004117156B80BCE83FCC3B7F669EA0E6BFDC
:104AD000CC3B7F669EA0E63F4117156B80BCE8BFCC
:104AE000D61D0925F34CE43FA3A10E29669BEABF1E
:104AF000C868AE393BC7E13FB1BD80F1B238ECBF09
:104B00003BF606385D2BDE3F468D32CF6B90EDBF16
:104B100063A9AEA6E27DD83FDA2DC656419FEEBF0F
:104B2000059FD52E0694D23FB05CF7CF9762EFBFBA
:104B30000AA6693CB8F8C83F2625D1A38DD8EFBF97
:104B40002CB429BCA617B93F000000000000F0BF3C
:104B500000000000000000002625D1A38DD8EFBF83
:104B60002CB429BCA617B9BFB05CF7CF9762EFBFD2
:104B70000AA6693CB8F8C8BFDA2DC656419FEEBFF9
:104B8000059FD52E0694D2BF468D32CF6B90EDBFD8
:104B900063A9AEA6E27DD8BFB1BD80F1B238ECBF4B
:104BA0003BF606385D2BDEBFA3A10E29669BEABF4C
:104BB000C868AE393BC7E1BF4117156B80BCE8BF81
:104BC000D61D0925F34CE4BFCC3B7F669EA0E6BF13
:104BD000CC3B7F669EA0E6BFD61D0925F34CE4BF03
:104BE0004117156B80BCE8BFC868AE393BC7E1BF51
:104BF000A3A10E29669BEABF3BF606385D2BDEBFFC
:104C0000B1BD80F1B238ECBF63A9AEA6E27DD8BFDA
:104C1000468D32CF6B90EDBF059FD52E0694D2BF47
:104C2000DA2DC656419FEEBF0AA6693CB8F8C8BF48
:104C3000B05CF7CF9762EFBF2CB429BCA617B9BF01
:104C40002625D1A38DD8EFBF000000000000000092
:104C5000000000000000F0BF2CB429BCA617B93F2B
:104C60002625D1A38DD8EFBF0AA6693CB8F8C83F66
:104C7000B05CF7CF9762EFBF059FD52E0694D23F69
:104C8000DA2DC656419FEEBF63A9AEA6E27DD83F9E
:104C9000468D32CF6B90EDBF3BF606385D2BDE3F85
:104CA000B1BD80F1B238ECBFC868AE393BC7E13F57
:104CB000A3A10E29669BEABFD61D0925F34CE43F4C
:104CC0004117156B80BCE8BFCC3B7F669EA0E63FDA
:104CD000CC3B7F669EA0E6BF4117156B80BCE83FCA
:104CE000D61D0925F34CE4BFA3A10E29669BEA3F1C
:104CF000C868AE393BC7E1BFB1BD80F1B238EC3F07
:104D00003BF606385D2BDEBF468D32CF6B90ED3F14
:104D100063A9AEA6E27DD8BFDA2DC656419FEE3F0D
:104D2000059FD52E0694D2BFB05CF7CF9762EF3FB8
:104D30000AA6693CB8F8C8BF2625D1A38DD8EF3F95
:104D40002CB429BCA617B9BF000000000000F03F3A
:104D500000000000000000007E6D79E321F6EF3FC7
:104D600014D80DF1651FA93F2625D1A38DD8EF3F9B
:104D70002CB429BCA617B93F17A5087F55A7EF3F4C
:104D80003A618E6E10C8C23FB05CF7CF9762EF3FBA
:104D90000AA6693CB8F8C83FD73092FB7E0AEF3FBD
:104DA0001A5F217BF919CF3FDA2DC656419FEE3F9E
:104DB000059FD52E0694D23FE586F6042121EE3FCD
:104DC000DD1FAB759A8FD53F468D32CF6B90ED3F8F
:104DD00063A9AEA6E27DD83F73C73CF47AEDEC3F01
:104DE000C05CE109105DDB3FB1BD80F1B238EC3F42
:104DF0003BF606385D2BDE3F3E6E19458372EB3F76
:104E0000EDFF22998773E03FA3A10E29669BEA3F3D
:104E1000C868AE393BC7E13F4187F347E0B3E93F9C
:104E20003570E1FCF70FE33F4117156B80BCE83F9D
:104E3000D61D0925F34CE43FB0AF6A22DFB5E73F4A
:104E40009FEC8C34697DE53FCC3B7F669EA0E63FBE
:104E5000CC3B7F669EA0E63F9FEC8C34697DE53FAE
:104E6000B0AF6A22DFB5E73FD61D0925F34CE43F1A
:104E70004117156B80BCE83F3570E1FCF70FE33F4D
:104E80004187F347E0B3E93FC868AE393BC7E13F2C
:104E9000A3A10E29669BEA3FEDFF22998773E03FAD
:104EA0003E6E19458372EB3F3BF606385D2BDE3FC5
:104EB000B1BD80F1B238EC3FC05CE109105DDB3F71
:104EC00073C73CF47AEDEC3F63A9AEA6E27DD83F10
:104ED000468D32CF6B90ED3FDD1FAB759A8FD53F7E
:104EE000E586F6042121EE3F059FD52E0694D23F9C
:104EF000DA2DC656419FEE3F1A5F217BF919CF3F4D
:104F0000D73092FB7E0AEF3F0AA6693CB8F8C83F4B
:104F1000B05CF7CF9762EF3F3A618E6E10C8C23F28
:104F200017A5087F55A7EF3F2CB429BCA617B93F9A
:104F30002625D1A38DD8EF3F14D80DF1651FA93FC9
:104F40007E6D79E321F6EF3F0000000000000000D5
:104F5000000000000000F03F14D80DF1651FA9BF4C
:104F60007E6D79E321F6EF3F2CB429BCA617B9BFBB
:104F70002625D1A38DD8EF3F3A618E6E10C8C2BFEF
:104F800017A5087F55A7EF3F0AA6693CB8F8C8BF28
:104F9000B05CF7CF9762EF3F1A5F217BF919CFBF63
:104FA000D73092FB7E0AEF3F059FD52E0694D2BFE5
:104FB000DA2DC656419FEE3FDD1FAB759A8FD5BFE8
:104FC000E586F6042121EE3F63A9AEA6E27DD8BFB7
:104FD000468D32CF6B90ED3FC05CE109105DDBBFC9
:104FE00073C73CF47AEDEC3F3BF606385D2BDEBF31
:104FF000B1BD80F1B238EC3FEDFF22998773E0BF7D
:105000003E6E19458372EB3FC868AE393BC7E1BFBE
:10501000A3A10E29669BEA3F3570E1FCF70FE3BFC1
:105020004187F347E0B3E93FD61D0925F34CE4BFC0
:105030004117156B80BCE83F9FEC8C34697DE5BF60
:10504000B0AF6A22DFB5E73FCC3B7F669EA0E6BFEC
:10505000CC3B7F669EA0E63FB0AF6A22DFB5E7BFDC
:105060009FEC8C34697DE53F4117156B80BCE8BF30
:10507000D61D0925F34CE43F4187F347E0B3E9BF70
:105080003570E1FCF70FE33FA3A10E29669BEABF51
:10509000C868AE393BC7E13F3E6E19458372EBBF2E
:1050A000EDFF22998773E03FB1BD80F1B238ECBFCC
:1050B0003BF606385D2BDE3F73C73CF47AEDECBF60
:1050C000C05CE109105DDB3F468D32CF6B90EDBFD8
:1050D00063A9AEA6E27DD83FE586F6042121EEBFA6
:1050E000DD1FAB759A8FD53FDA2DC656419FEEBFB7
:1050F000059FD52E0694D23FD73092FB7E0AEFBF94
:105100001A5F217BF919CF3FB05CF7CF9762EFBFF1
:105110000AA6693CB8F8C83F17A5087F55A7EFBF96
:105120003A618E6E10C8C23F2625D1A38DD8EFBF3D
:105130002CB429BCA617B93F7E6D79E321F6EFBFE9
:1051400014D80DF1651FA93F000000000000F0BF5A
:1051500000000000000000007E6D79E321F6EFBF43
:1051600014D80DF1651FA9BF2625D1A38DD8EFBF97
:105170002CB429BCA617B9BF17A5087F55A7EFBF48
:105180003A618E6E10C8C2BFB05CF7CF9762EFBFB6
:105190000AA6693CB8F8C8BFD73092FB7E0AEFBFB9
:1051A0001A5F217BF919CFBFDA2DC656419FEEBF9A
:1051B000059FD52E0694D2BFE586F6042121EEBFC9
:1051C000DD1FAB759A8FD5BF468D32CF6B90EDBF8B
:1051D00063A9AEA6E27DD8BF73C73CF47AEDECBFFD
:1051E000C05CE109105DDBBFB1BD80F1B238ECBF3E
:1051F0003BF606385D2BDEBF3E6E19458372EBBF72
:10520000EDFF22998773E0BFA3A10E29669BEABF39
:10521000C868AE393BC7E1BF4187F347E0B3E9BF98
:105220003570E1FCF70FE3BF4117156B80BCE8BF99
:10523000D61D0925F34CE4BFB0AF6A22DFB5E7BF46
:105240009FEC8C34697DE5BFCC3B7F669EA0E6BFBA
:10525000CC3B7F669EA0E6BF9FEC8C34697DE5BFAA
:10526000B0AF6A22DFB5E7BFD61D0925F34CE4BF16
:105270004117156B80BCE8BF3570E1FCF70FE3BF49
:105280004187F347E0B3E9BFC868AE393BC7E1BF28
:10529000A3A10E29669BEABFEDFF22998773E0BFA9
:1052A0003E6E19458372EBBF3BF606385D2BDEBFC1
:1052B000B1BD80F1B238ECBFC05CE109105DDBBF6D
:1052C00073C73CF47AEDECBF63A9AEA6E27DD8BF0C
:1052D000468D32CF6B90EDBFDD1FAB759A8FD5BF7A
:1052E000E586F6042121EEBF059FD52E0694D2BF98
:1052F000DA2DC656419FEEBF1A5F217BF919CFBF49
:10530000D73092FB7E0AEFBF0AA6693CB8F8C8BF47
:10531000B05CF7CF9762EFBF3A618E6E10C8C2BF24
:1053200017A5087F55A7EFBF2CB429BCA617B9BF96
:105330002625D1A38DD8EFBF14D80DF1651FA9BFC5
:105340007E6D79E321F6EFBF000000000000000051
:10535000000000000000F0BF14D80DF1651FA93F48
:105360007E6D79E321F6EFBF2CB429BCA617B93FB7
:105370002625D1A38DD8EFBF3A618E6E10C8C23FEB
:1053800017A5087F55A7EFBF0AA6693CB8F8C83F24
:10539000B05CF7CF9762EFBF1A5F217BF919CF3F5F
:1053A000D73092FB7E0AEFBF059FD52E0694D23FE1
:1053B000DA2DC656419FEEBFDD1FAB759A8FD53FE4
:1053C000E586F6042121EEBF63A9AEA6E27DD83FB3
:1053D000468D32CF6B90EDBFC05CE109105DDB3FC5
:1053E00073C73CF47AEDECBF3BF606385D2BDE3F2D
:1053F000B1BD80F1B238ECBFEDFF22998773E03F79
:105400003E6E19458372EBBFC868AE393BC7E13FBA
:10541000A3A10E29669BEABF3570E1FCF70FE33FBD
:105420004187F347E0B3E9BFD61D0925F34CE43FBC
:105430004117156B80BCE8BF9FEC8C34697DE53F5C
:10544000B0AF6A22DFB5E7BFCC3B7F669EA0E63FE8
:10545000CC3B7F669EA0E6BFB0AF6A22DFB5E73FD8
:105460009FEC8C34697DE5BF4117156B80BCE83F2C
:10547000D61D0925F34CE4BF4187F347E0B3E93F6C
:105480003570E1FCF70FE3BFA3A10E29669BEA3F4D
:10549000C868AE393BC7E1BF3E6E19458372EB3F2A
:1054A000EDFF22998773E0BFB1BD80F1B238EC3FC8
:1054B0003BF606385D2BDEBF73C73CF47AEDEC3F5C
:1054C000C05CE109105DDBBF468D32CF6B90ED3FD4
:1054D00063A9AEA6E27DD8BFE586F6042121EE3FA2
:1054E000DD1FAB759A8FD5BFDA2DC656419FEE3FB3
:1054F000059FD52E0694D2BFD73092FB7E0AEF3F90
:105500001A5F217BF919CFBFB05CF7CF9762EF3FED
:105510000AA6693CB8F8C8BF17A5087F55A7EF3F92
:105520003A618E6E10C8C2BF2625D1A38DD8EF3F39
:105530002CB429BCA617B9BF7E6D79E321F6EF3FE5
:1055400014D80DF1651FA9BF000000000000F03F56
:1055500000000000000000000DCD846088FDEF3FDA
:105560007E66A3F75521993F7E6D79E321F6EF3FE3
:1055700014D80DF1651FA93F3A8801ADCDE9EF3F81
:10558000F619CE9220D5B23F2625D1A38DD8EF3F74
:105590002CB429BCA617B93FD39FE17064C2EF3F7A
:1055A0000E73A9564E56BF3F17A5087F55A7EF3F6C
:1055B0003A618E6E10C8C23FA94B71FA6487EF3F03
:1055C000C63F8B4414E2C53FB05CF7CF9762EF3F14
:1055D0000AA6693CB8F8C83F89E564ACF338EF3FE8
:1055E000634F7E6A820BCC3FD73092FB7E0AEF3F3F
:1055F0001A5F217BF919CF3F634968E740D7EE3F37
:1056000077F6B162D211D13FDA2DC656419FEE3FF7
:10561000059FD52E0694D23F12E148EC8862EE3FFA
:10562000026617945C13D43FE586F6042121EE3F11
:10563000DD1FAB759A8FD53F3DC2CCB613DBED3F76
:105640009E45FA308508D73F468D32CF6B90ED3FAF
:1056500063A9AEA6E27DD83F3AC94DD13441ED3FB2
:105660008AEDA84379EFD93F73C73CF47AEDEC3F5C
:10567000C05CE109105DDB3FF51134214B95EC3F37
:105680005DC431996EC6DC3FB1BD80F1B238EC3FEC
:105690003BF606385D2BDE3F2A956FACC0D7EB3F5B
:1056A000BA9AF8DBA48BDF3F3E6E19458372EB3F5D
:1056B000EDFF22998773E03F000215580A09EB3F7E
:1056C000224B1B54B31EE13FA3A10E29669BEA3F68
:1056D000C868AE393BC7E13F822746A0A729EA3F09
:1056E000DF12DD4C056DE23F4187F347E0B3E93F50
:1056F0003570E1FCF70FE33FFC639249223AE93F42
:10570000B9502029FAAFE33F4117156B80BCE83F41
:10571000D61D0925F34CE43F6E97FF0B0E3BE83F87
:10572000E9E5E3BBCAE6E43FB0AF6A22DFB5E73F95
:105730009FEC8C34697DE53F97FFEF37082DE73FFD
:10574000DE2C1D55B710E63FCC3B7F669EA0E63FA2
:10575000CC3B7F669EA0E63FDE2C1D55B710E63F92
:1057600097FFEF37082DE73F9FEC8C34697DE53FCD
:10577000B0AF6A22DFB5E73FE9E5E3BBCAE6E43F45
:105780006E97FF0B0E3BE83FD61D0925F34CE43F17
:105790004117156B80BCE83FB9502029FAAFE33FB1
:1057A000FC639249223AE93F3570E1FCF70FE33F91
:1057B0004187F347E0B3E93FDF12DD4C056DE23F7F
:1057C000822746A0A729EA3FC868AE393BC7E13F18
:1057D000A3A10E29669BEA3F224B1B54B31EE13F57
:1057E000000215580A09EB3FEDFF22998773E03F4D
:1057F0003E6E19458372EB3FBA9AF8DBA48BDF3F0C
:105800002A956FACC0D7EB3F3BF606385D2BDE3FE9
:10581000B1BD80F1B238EC3F5DC431996EC6DC3F5A
:10582000F51134214B95EC3FC05CE109105DDB3F85
:1058300073C73CF47AEDEC3F8AEDA84379EFD93F8A
:105840003AC94DD13441ED3F63A9AEA6E27DD83FC0
:10585000468D32CF6B90ED3F9E45FA308508D73F9D
:105860003DC2CCB613DBED3FDD1FAB759A8FD53F44
:10587000E586F6042121EE3F026617945C13D43FBF
:1058800012E148EC8862EE3F059FD52E0694D23F88
:10589000DA2DC656419FEE3F77F6B162D211D13F65
:1058A000634968E740D7EE3F1A5F217BF919CF3F84
:1058B000D73092FB7E0AEF3F634F7E6A820BCC3F6C
:1058C00089E564ACF338EF3F0AA6693CB8F8C83FF5
:1058D000B05CF7CF9762EF3FC63F8B4414E2C53F01
:1058E000A94B71FA6487EF3F3A618E6E10C8C23FD0
:1058F00017A5087F55A7EF3F0E73A9564E56BF3F19
:10590000D39FE17064C2EF3F2CB429BCA617B93F06
:105910002625D1A38DD8EF3FF619CE9220D5B23FE0
:105920003A8801ADCDE9EF3F14D80DF1651FA93FCD
:105930007E6D79E321F6EF3F7E66A3F75521993F0F
:105940000DCD846088FDEF3F0000000000000000E6
:10595000000000000000F03F7E66A3F7552199BFCC
:105960000DCD846088FDEF3F14D80DF1651FA9BFF0
:105970007E6D79E321F6EF3FF619CE9220D5B2BFC6
:105980003A8801ADCDE9EF3F2CB429BCA617B9BFC9
:105990002625D1A38DD8EF3F0E73A9564E56BFBF13
:1059A000D39FE17064C2EF3F3A618E6E10C8C2BFF0
:1059B00017A5087F55A7EF3FC63F8B4414E2C5BF2C
:1059C000A94B71FA6487EF3F0AA6693CB8F8C8BFD3
:1059D000B05CF7CF9762EF3F634F7E6A820BCCBF1C
:1059E00089E564ACF338EF3F1A5F217BF919CFBF2B
:1059F000D73092FB7E0AEF3F77F6B162D211D1BF6A
:105A0000634968E740D7EE3F059FD52E0694D2BF85
:105A1000DA2DC656419FEE3F026617945C13D4BF41
:105A200012E148EC8862EE3FDD1FAB759A8FD5BF5F
:105A3000E586F6042121EE3F9E45FA308508D7BF62
:105A40003DC2CCB613DBED3F63A9AEA6E27DD8BF65
:105A5000468D32CF6B90ED3F8AEDA84379EFD9BFE9
:105A60003AC94DD13441ED3FC05CE109105DDBBF67
:105A700073C73CF47AEDEC3F5DC431996EC6DCBF70
:105A8000F51134214B95EC3F3BF606385D2BDEBF1C
:105A9000B1BD80F1B238EC3FBA9AF8DBA48BDFBF1E
:105AA0002A956FACC0D7EB3FEDFF22998773E0BF1B
:105AB0003E6E19458372EB3F224B1B54B31EE1BF70
:105AC000000215580A09EB3FC868AE393BC7E1BF71
:105AD000A3A10E29669BEA3FDF12DD4C056DE2BFF4
