:020000040800F2
:10000000C8460020E90200084D1B0008111A00082C
:10001000491B00088B0600081122000800000000A0
:10002000000000000000000000000000290200089D
:100030008F0600080000000085020008ED1B000884
:100040000303000803030008030300080303000878
:100050000303000803030008030300080303000868
:100060000303000803030008030300080303000858
:100070000303000803030008030300080303000848
:100080000303000803030008030300080303000838
:100090000303000803030008030300080303000828
:1000A0000303000803030008030300080303000818
:1000B000E91C000803030008030300080303000809
:1000C00003030008030300080303000803030008F8
:1000D00003030008012200080303000803030008CB
:1000E00003030008030300080303000803030008D8
:1000F00003030008030300080303000803030008C8
:1001000003030008030300080303000803030008B7
:1001100003030008030300080303000803030008A7
:100120000303000803030008030300080303000897
:100130000303000803030008030300080303000887
:100140000303000803030008030300080303000877
:100150000303000803030008030300080303000867
:100160000303000803030008030300080303000857
:100170000303000803030008030300080000000055
:10018000030300080303000800F002F800F03CF845
:100190000AA090E8000C82448344AAF10107DA45E2
:1001A00001D100F031F8AFF2090EBAE80F0013F0F8
:1001B000010F18BFFB1A43F001031847503A000023
:1001C000703A0000103A24BF78C878C1FAD85207B4
:1001D00024BF30C830C144BF04680C6070470000C1
:1001E0000023002400250026103A28BF78C1FBD840
:1001F000520728BF30C148BF0B6070471FB503F0DE
:10020000ACF81FBD10B510BD00F061F91146FFF745
:10021000F5FF02F01BF800F07FF903B4FFF7F2FFDF
:1002200003BC00F087F900002C4B19680868B0E89F
:10023000F04F80F30988BFF36F8F4FF0000080F319
:10024000118870470000000008480068006880F3CB
:1002500008884FF0000080F3148862B661B6BFF3DF
:100260004F8FBFF36F8F00DF00BF00BF08ED00E0CE
:10027000DFF80C00016841F470010160704700BFB5
:1002800088ED00E0EFF30980BFF36F8F134B1A681E
:100290001EF0100F08BF20ED108A20E9F04F10600B
:1002A00009B44FF0500080F31188BFF34F8FBFF3B4
:1002B0006F8F02F0AFFC4FF0000080F3118809BC93
:1002C00019680868B0E8F04F1EF0100F08BFB0ECD6
:1002D000108A80F30988BFF36F8F70472C000020CD
:1002E000EFF3058070470000094880470948004740
:1002F000FEE7FEE7FEE7FEE7FEE7FEE7FEE7FEE7D6
:10030000FEE7FEE704480549054A064B7047000032
:10031000D51C000889010008C8400020C8460020FC
:10032000C8420020C842002053EA020C00F0698055
:100330002DE9F04B4FF00006002B1FBFB3FA83F5F9
:1003400003FA05F424FA05F65E4012BF1643B2FA2A
:1003500082F502FA05F4C5F120051EBF22FA05FC5C
:1003600044EA0C04203556EA044C4FEA144418BF02
:10037000641C4FF000084FF00009904271EB030C31
:1003800039D3002919BFB1FA81F701FA07F6B0FA9B
:1003900080F700FA07F6C7F120071EBF20FA07FC16
:1003A00046EA0C062037B6FBF4FCA7EB0507103F26
:1003B00007F01F0BCBF120060CFA0BFB2CFA06F60C
:1003C00044BFB3460026202FA4BF5E464FF0000B6B
:1003D0005BEA060C08BF4FF0010B19EB0B09ABFBF6
:1003E000027C48EB0608C01B06FB02CC0BFB03CCCF
:1003F00071EB0C01C1E70B46024641464846BDE899
:10040000F08B13B54FF000004FF00001AFF3008008
:10041000BDE81C40704710B5203AC0F00B80B1E831
:100420001850203AA0E81850B1E81850A0E8185029
:10043000BFF4F5AF5FEA027C24BFB1E81850A0E832
:10044000185044BF18C918C0BDE810405FEA827C4C
:1004500024BF51F8043B40F8043B08BF7047D20763
:1004600028BF31F8023B48BF11F8012B28BF20F804
:10047000023B48BF00F8012B70474FF0000200B567
:10048000134694469646203922BFA0E80C50A0E8B7
:100490000C50B1F12001BFF4F7AF090728BFA0E865
:1004A0000C5048BF0CC05DF804EB890028BF40F831
:1004B000042B08BF704748BF20F8022B11F0804F73
:1004C00018BF00F8012B704770477047704775469A
:1004D00000F02CF8AE4605006946534620F00700B0
:1004E000854618B020B5FFF70DFFBDE820404FF05E
:1004F00000064FF000074FF000084FF0000B21F00E
:100500000701AC46ACE8C009ACE8C009ACE8C009DA
:10051000ACE8C0098D46704710B50446AFF30080C3
:100520002046BDE81040FFF778BE00000048704745
:100530006840002001491820ABBEFEE726000200FB
:100540007047F0B581B04FF68311C3F6226102F017
:10055000B5FE4FF07A5102F00DFE044602F062FE45
:10056000054620460021002702F030FE002818BF73
:10057000013D284602F064FE0146204602F0F2FEEC
:100580004FF0884102F09AFE054602F052FE044602
:1005900028464FF0444102F0EDFD0646B7EB542FDC
:1005A0000CBF2E460024204602F051FE0146304684
:1005B00002F0D8FE05464FF07E50294602F0D2FEEA
:1005C00043F20847C0F6000757F8241002F076FE01
:1005D000064607EB84004168284602F06FFE01469C
:1005E000304602F0C7FD01B0F0BDF0B581B04FF666
:1005F0008311C3F6226102F061FE044602F012FE8E
:10060000054620460021002702F0E0FD002818BF23
:10061000013D284602F014FE0146204602F0A2FEEB
:100620004FF0884102F04AFE054602F002FE044601
:1006300028464FF0444102F09DFD0646B7EB542F8B
:100640000CBF2E460024204602F001FE0146304633
:1006500002F088FE05464FF07E50294602F082FEE9
:1006600043F20847C0F6000757F8241002F026FEB0
:10067000064607EB84004168284602F01FFE01464B
:10068000304602F077FD01B0F0BD00BFFEE77047D5
:1006900072B600BFFEE770B50446A56D00F070F9B4
:1006A000064694F83500022808D08020606500BF17
:1006B000002084F8340000BF012070BD206800686D
:1006C00020F01600216808602068406920F0800052
:1006D00021684861206C08B9A06C28B120680068C6
:1006E00020F00800216808602068006820F0010000
:1006F0002168086010E000F043F9801B05280BD941
:1007000020206065032084F8350000BF002084F8B5
:10071000340000BF0320D0E72068006800F001002B
:100720000028E8D194F85C103F208840A8600120A0
:1007300084F8350000BF002084F8340000BF00BFFB
:10074000BBE7014691F83500022803D080204865B8
:1007500001207047052081F835000868006820F006
:1007600001000A6810600020F3E70000F8B50246B7
:100770000B460025002400200021D6E0012606FAC1
:1007800001F51E6806EA0504AC4274D11E7906F034
:100790000306012E04D01E7906F00306022E13D1A3
:1007A00090684F000326BE40B0434F00DE68BE4055
:1007B00030439060506801268E40B0431E79C6F3E6
:1007C00000168E40304350601E7906F00306032E5B
:1007D00009D0D0684F000326BE40B0434F009E684A
:1007E000BE403043D0601E7906F00306022E13D1BE
:1007F000CF0802F1200656F827004E07F70E0F2605
:10080000BE40B0434F07FF0E1E69BE403043CF08C5
:1008100002F1200646F8270010684F000326BE406C
:10082000B0431E7906F003064F00BE40304310600F
:100830005E6806F44036002E76D000BF0026009693
:100840003C4E366846F480463A4F3E603E46366837
:1008500006F48046009600BF00BF374E8F0856F85A
:1008600027008E07370F0F26BE40B043334EB242EB
:1008700002D1002624E057E0314EB24201D10126D8
:100880001EE0304EB24201D1022619E02E4EB24295
:1008900001D1032614E02D4EB24201D104260FE00F
:1008A0002B4EB24201D105260AE02A4EB24201D1B6
:1008B000062605E0284EB24201D1072600E00826B0
:1008C0008F073F0FBE4030431B4E8F0846F827006E
:1008D000224E3068A0435E6806F4801606B12043BD
:1008E0001E4E3060361D3068A0435E6806F4001668
:1008F00006B12043194E361D3060184E361F306841
:10090000A0435E6806F4003606B12043134E361F3E
:100910003060361F3068A0435E6806F4803606B14A
:1009200020430E4E083E3060491C1029FFF426AFCC
:10093000F8BD000044380240083801400000024081
:100940000004024000080240000C02400010024077
:100950000014024000180240001C0240083C014004
:1009600010B5426921EA020302EA010443EA0443A2
:10097000836110BD0AB1816101E00B04836170479E
:1009800001480068704700001C0000200348006810
:100990000349097808440149086070471C00002099
:1009A0002400002010B50D48006840F400700B4989
:1009B00008600846006840F48060086008460068E7
:1009C00040F480700860032000F0E0F80F2000F091
:1009D00007F800F05FF8002010BD0000003C024066
:1009E0002DE9F04188B004460027B84600BF00203A
:1009F00001902448006840F0010022490860084640
:100A0000006800F00100019000BF00BF02A903A828
:100A100000F092F9069F1FB900F0B6F9054602E012
:100A200000F0B2F945001848B5FBF0F0A0F101085C
:100A30004FF080401549086040F2E7311348C1602B
:100A4000C0F80480002101618160816100F064FCD4
:100A5000064696B90D4800F093FC06466EB91C2078
:100A600000F042F8102C07D2002221461C2000F092
:100A70004FF80748046000E00126304608B0BDE8A2
:100A8000F08100004038024040420F003003002057
:100A90002000002008B500BF002000901148006829
:100AA00040F480400F4908600846006800F4804028
:100AB000009000BF00BF00BF00200090081F00682A
:100AC00040F08050091F08600846006800F0805020
:100AD000009000BF00BF00220F21901E00F018F808
:100AE00008BD0000443802400146084600280DDBDE
:100AF00000BF00BF00F01F0301229A4043099B0082
:100B000003F1E023C3F8002100BF00BF00BF70471E
:100B10002DE9F05F80460D461646002701F07AFB6E
:100B2000074639462A46334601F00700C0F1070A56
:100B3000BAF1040F02D94FF0040A01E0C0F1070A2C
:100B4000D14600F1040ABAF1070F02D24FF0000AB1
:100B500001E0A0F1030AD4464FF0010A0AFA09FAAB
:100B6000AAF1010A0AEA020A0AFA0CFA4FF0010B8A
:100B70000BFA0CFBABF1010B0BEA030B4AEA0B047B
:100B80002146404601F04EFBBDE8F09F00BF00F05B
:100B90000702064B19684FF6FF031940044B0B433D
:100BA00043EA0221014B196000BF70470CED00E0E1
:100BB0000000FA0570B504460D460CB9012070BD61
:100BC0005848006800F00700A84209D255490D7046
:100BD0000846006800F00700A84201D00120EEE7B7
:100BE000207800F0020002281DD1207800F00400D7
:100BF000042805D14C48006840F4E0504A49086098
:100C0000207800F00800082805D14748006840F423
:100C10006040454908604448006820F0F000A16841
:100C2000084341490860207800F00100A8B36068DB
:100C3000012807D13C4808380068C0F34040B8B9E3
:100C40000120BCE76068022802D06068032807D151
:100C5000354808380068C0F3406048B90120AEE765
:100C6000314808380068C0F3400008B90120A6E701
:100C70002D48006820F00300616808432A49086095
:100C8000FFF77EFE064609E0FFF77AFE801B41F281
:100C90008831884202D9032091E707E022480068A2
:100CA00000F00C006168B0EB810FEDD11D480068C9
:100CB00000F00700A84209D91A490D7008460068DB
:100CC00000F00700A84201D0012078E7207800F06A
:100CD0000400042807D11448006820F4E050E168BB
:100CE000084311490860207800F00800082808D15E
:100CF0000D48006820F46040216940EAC1000A49BB
:100D0000086000F061F808490968C1F30311074A57
:100D1000515CC8400649086006480068FFF760FE5D
:100D200000204CE7003C024008380240CC33000869
:100D300028000020200000200F2202600D4A1268C7
:100D400002F0030242600B4A126802F0F002826075
:100D5000084A126802F4E052C260064A126802F4BD
:100D60006042D2080261044A126802F007020A6077
:100D70007047000008380240003C0240014800680B
:100D8000704700002800002000B5FFF7F7FF044976
:100D90000968C1F38221034A515CC84000BD0000CC
:100DA00008380240DC33000800B5FFF7E7FF0449CC
:100DB0000968C1F34231034A515CC84000BD0000DC
:100DC00008380240DC3300082DE9F04700240025F4
:100DD0000026A1462548006800F00C0020B1042838
:100DE00005D008283AD105E0DFF8849039E0DFF833
:100DF000849036E01D48001F006800F03F041B4847
:100E0000001F006800F4800078B11A481749091FD4
:100E10000968C1F38811A0FB017001462246002336
:100E20003846FFF781FA05460EE011480F49091FC1
:100E30000968C1F38811A0FB017001462246002316
:100E40003846FFF771FA05460848001F0068C0F3EE
:100E50000140401C4600B5FBF6F902E0DFF81090B7
:100E600000BF00BF4846BDE8F087000008380240D8
:100E70000024F400001BB700F8B504460CB90120AB
:100E8000F8BD207800F00100002874D0F94800680F
:100E900000F00C0004280DD0F648006800F00C00AB
:100EA000082813D1F348001F006800F48000B0F553
:100EB000800F0BD1EF4808380068C0F3404000288D
:100EC00059D06068002856D10120D9E700BF60687A
:100ED000B0F5803F08D1E7480838006840F480301A
:100EE000E449083908601EE06068B0F5A02F0DD114
:100EF000E0480838006840F48020DE49083908607E
:100F00000846006840F4803008600CE0D948083892
:100F1000006820F48030D749083908600846006826
:100F200020F48020086000BF606890B1FFF728FDC2
:100F3000054606E0FFF724FD401B642801D9032085
:100F40009EE7CC4808380068C0F340400028F1D044
:100F500011E0FFF715FD054606E0FFF711FD401B08
:100F6000642801D903208BE7C24808380068C0F321
:100F700040400028F1D1207800F0020002285FD123
:100F8000BC48006800F00C0058B1BA48006800F096
:100F90000C0008281CD1B748001F006800F480002E
:100FA000B0B9B44808380068C0F3400020B1E06828
:100FB000012801D0012063E7AE480838006820F01E
:100FC000F800216940EAC100AA490839086037E001
:100FD000E06800B30120A8490860FFF7D1FC05468E
:100FE00006E0FFF7CDFC401B022801D9032047E7AC
:100FF000A04808380068C0F340000028F1D09D48A0
:101000000838006820F0F800216940EAC1009949D9
:101010000839086014E0002097490860FFF7B0FC29
:10102000054606E0FFF7ACFC401B022801D903206F
:1010300026E7904808380068C0F340000028F1D146
:10104000207800F0080008282CD16069A8B10120A0
:101050008A490860FFF794FC054606E0FFF790FC1C
:10106000401B022801D903200AE782486C3000683F
:10107000C0F340000028F1D014E000207F49086050
:10108000FFF77EFC054606E0FFF77AFC401B0228CE
:1010900001D90320F4E677486C300068C0F34000C3
:1010A0000028F1D1207800F00400042870D1002736
:1010B00070483830006800F0805090B900BF0020C0
:1010C00000906C483830006840F0805069493831F1
:1010D00008600846006800F08050009000BF00BF24
:1010E00001276748006800F48070B0B96448006860
:1010F00040F4807062490860FFF742FC054606E054
:10110000FFF73EFC401B022801D90320B8E65C48EB
:10111000006800F480700028F2D000BFA0680128A9
:1011200008D154486830006840F0010051496831E6
:1011300008601DE0A06805280DD14E4868300068A1
:1011400040F004004B49683108600846006840F0F0
:10115000010008600CE047486830006820F001009A
:101160004449683108600846006820F004000860BF
:1011700000BFA068A8B1FFF703FC054609E0FFF730
:10118000FFFB401B41F28831884202D9032077E6F9
:1011900026E0384868300068C0F340000028EED0F0
:1011A00013E0FFF7EDFB054608E0FFF7E9FB401B06
:1011B00041F28831884201D9032061E62D48683028
:1011C0000068C0F340000028EFD1012F07D1294863
:1011D0003830006820F0805026493831086000BF60
:1011E000A069002845D02348006800F00C000828BA
:1011F0005DD0A069022845D100201F490866FFF78D
:10120000BFFB054606E0FFF7BBFB401B022801D9E8
:10121000032035E6174808380068C0F3406000280E
:10122000F1D1D4E907010843616A40EA8111012242
:10123000A06AC2EB500041EA00412C20005D41EA67
:1012400000600C49091F086001200B490866FFF780
:1012500097FB054606E0FFF793FB401B022801D9E8
:1012600003200DE6034808380068C0F340600028FA
:10127000F1D049E00838024000004742800E474262
:1012800000700040002021490866FFF779FB054601
:1012900006E0FFF775FB401B022801D90320EFE5AC
:1012A0001B480068C0F340600028F2D12CE0A06920
:1012B000012800D1E4E51648001D0668A069012850
:1012C00020D006F48001E06981421BD106F03F0185
:1012D000206A814216D147F6C0703040616AB0EB97
:1012E000811F0FD106F440310122A06AC2EB5000E9
:1012F000B1EB004F06D106F070612C20005DB1EB20
:10130000006F01D00120BBE50020B9E50000474295
:10131000003802407047704710B504460CB90120F0
:1013200010BD94F83D0028B9002084F83C00204608
:1013300000F025F8022084F83D00211D206800F00F
:10134000DBFC012084F8460000BF84F83E00012148
:101350003F200155402001554120015500BF00BFED
:10136000012084F8420043200155442001554520C6
:10137000015500BF012084F83D000020D0E77047F0
:10138000014691F83D00012801D00120704702205C
:1013900081F83D000868C06840F001000B68D86023
:1013A0001A4B086898421BD00868B0F1804F17D0DC
:1013B000174B0868984213D0164B086898420FD014
:1013C000154B086898420BD0144B0868984207D018
:1013D000134B0868984203D0124B086898420CD10E
:1013E0000868806800F00702062A0CD008680068C8
:1013F00040F001000B68186005E00868006840F0E4
:1014000001000B6818600020C0E7000000000140E8
:101410000004004000080040000C004000040140AF
:101420000040014000180040704770B50446206835
:10143000C5682068066906F00200022819D105F087
:101440000200022815D1401F216808610120207781
:101450002068806900F0030018B12046FFF7E4FF20
:1014600005E0204600F097F8204600F095F80020AF
:10147000207706F00400042819D105F004000428A0
:1014800015D1C04321680861022020772068806957
:1014900000F4407018B12046FFF7C6FF05E0204673
:1014A00000F079F8204600F077F80020207706F069
:1014B0000800082819D105F00800082815D1C043F4
:1014C00021680861042020772068C06900F00300CB
:1014D00018B12046FFF7A8FF05E0204600F05BF8B2
:1014E000204600F059F80020207706F01000102860
:1014F00019D105F01000102815D1C04321680861EA
:10150000082020772068C06900F4407018B1204698
:10151000FFF78AFF05E0204600F03DF8204600F086
:101520003BF80020207706F0010048B105F00100EB
:1015300030B16FF0010021680861204600F02DF8FD
:1015400006F08000802809D105F08000802805D1B0
:10155000C043216808612046FFF7DCFE06F040002A
:10156000402809D105F04000402805D1C04321683A
:101570000861204600F01AF806F02000202809D162
:1015800005F02000202805D1C043216808612046CD
:10159000FFF7C1FE70BD7047704710B50446206864
:1015A000B0F1804F01D1FFF7F1F910BD70477047DE
:1015B000704700002DE9F84F044620680568206850
:1015C000C668206847694FF00009CA4605F00F0950
:1015D000B9F1000F0AD105F0200038B106F0200063
:1015E00020B1204600F047FCBDE8F88FB9F1000FAC
:1015F0007CD007F0010018B906F49070002875D06F
:1016000005F0010030B106F4807018B1606C40F054
:101610000100606405F0040030B107F0010018B16A
:10162000606C40F00200606405F0020030B107F029
:10163000010018B1606C40F00400606405F008001F
:1016400048B106F0200010B907F0010018B1606C35
:1016500040F008006064606C002846D005F020006F
:1016600028B106F0200010B1204600F004FC2068EC
:101670004069C0F3801A606C00F0080010B9BAF13C
:10168000000F2DD0204600F0B0FB2068406900F02C
:101690004000402820D100BF00BF2168143151E82C
:1016A000001F21F040002168143141E80002002AA7
:1016B000F3D100BFE06B50B17F48E16B0865E06B90
:1016C000FFF73FF888B1E06B016D88470DE02046D9
:1016D000FFF76EFF09E009E02046FFF769FF04E02D
:1016E0002046FFF765FF002060647DE7206B01283E
:1016F00078D105F01000002874D006F01000002802
:10170000FAD000BF00200090206800680090206898
:101710004068009000BF00BF2068406900F04000B2
:10172000402870D1E06B006840681FFA80F8B8F17B
:10173000000F58D0A08D404555DDA4F82E80E06BF9
:10174000C069B0F5807F43D000BF00BF21680C3175
:1017500051E8001F21F4807021680C3141E800023B
:10176000002AF3D100BF00BF00BF2168143151E847
:10177000001F21F001002168143141E80002002A15
:10178000F3D100BF00BF00BF2168143151E8001F32
:1017900021F040002168143141E80002002AF3D111
:1017A00000BF202084F842000020206300BF00BF5B
:1017B00021680C3151E8001F21F0100021680C3124
:1017C00041E80002002AF3D100BFE06BFEF763FF9F
:1017D00002206063A08DE28D801A81B22046FFF75F
:1017E000E6FE0EE052E0A08D40450AD1E06BC069F4
:1017F000B0F5807F05D102206063A18D2046FFF700
:10180000D6FEF1E6FFE7A08DE18D401A1FFA80F8C1
:10181000E08DD0B3B8F1000F37D000BF00BF216812
:101820000C3151E8001F21F4907021680C3141E81F
:101830000002002AF3D100BF00BF00BF21681431AD
:1018400051E8001F21F001002168143141E8000235
:10185000002AF3D100BF202084F84200002020633A
:1018600000BF00BF21680C3151E8001F21F01000BB
:1018700021680C3141E80002002AF3D100BF0220A8
:10188000606341462046FFF792FEADE605F080001A
:1018900030B106F0800018B1204600F081FCA3E6CC
:1018A00005F0400030B106F0400018B1204600F0CD
:1018B000D2FA99E600BF97E6D91D000810B5044694
:1018C0000CB9012010BDA06900B100E000BF94F880
:1018D000410028B9002084F84000204600F02AF892
:1018E000242084F841002068C06820F4005021685A
:1018F000C860204600F03EFB2068006920F490405C
:10190000216808612068406920F02A002168486148
:101910002068C06840F400502168C86000206064FE
:10192000202084F8410084F842000020606300BF5A
:10193000C8E7000010B586B00446142101A8FEF7E0
:101940009CFD2E492068884255D100BF00200090A0
:101950002B48006840F010002949086008460068DC
:1019600000F01000009000BF00BF00BF00200090FA
:1019700023481438006840F00200214914390860F7
:101980000846006800F00200009000BF00BF00BFE2
:10199000002000900846006840F0010008600846FA
:1019A000006800F00100009000BF00BF802001909F
:1019B000022002900020039003200490072005904D
:1019C00001A91048FEF7D2FE4FF4007001900220EA
:1019D000029000200390032004900720059001A9A5
:1019E0000948FEF7C3FE002205212520FFF790F8E5
:1019F0002520FFF779F806B010BD00000010014067
:101A00004438024000040240000002407047704722
:101A100000BFFEE700B595B01C2212490EA8FEF7E4
:101A2000FAFC00210EA800F037FC0F4908601C22C8
:101A30000C491C3107A8FEF7EEFC002107A800F0B6
:101A40002BFC0A4908601C22064938316846FEF71B
:101A5000E2FC0021684600F01FFC0549086015B053
:101A600000BD0000783300080000002004000020C2
:101A70000800002000B587B0142102A8FEF7FDFC85
:101A800000BF002001902048006840F001001E497E
:101A900008600846006800F00100019000BF00BF28
:101AA00000BF002001900846006840F00200086076
:101AB0000846006800F00200019000BF00BF00BFB0
:101AC000002001900846006840F080000860084649
:101AD000006800F08000019000BF00BF00224FF4BA
:101AE000E0510A48FEF746FF4FF4E0500290012013
:101AF0000390022004900020059002A90348FEF7FD
:101B000035FE07B000BD000030380240001C024026
:101B100010B50B480B4908604FF4E13048600021D4
:101B200008488160C16001610C214161002181612F
:101B3000C161FFF7C3FE08B1FEF7AAFD10BD0000AA
:101B400000100140E802002000BFFEE700BFFEE7F2
:101B50002DED028B29E0154800684FF47A71B0FB37
:101B6000F1F000EE100AB8EE400AB0EE408AFEF73F
:101B70003CFD0F4880ED000A0C4800684FF47A7174
:101B8000B0FBF1F000EE100AB8EE400AB0EE408A69
:101B9000FEF7D7FC074880ED000A4FF48061064845
:101BA000FEF7DEFE012000F066FBD4E71C000020FB
:101BB0001400002018000020001C024007E04FF431
:101BC00000610348FEF7CCFE012000F054FBF6E76D
:101BD000001C024007E04FF480510348FEF7C0FEAE
:101BE000012000F048FBF6E7001C024010B500BFE2
:101BF000502080F31188BFF34F8FBFF36F8F00BF6A
:101C000001F092F918B14FF080500449086000BF0C
:101C1000002080F3118800BF10BD000004ED00E03B
:101C200000B593B0302107A8FEF727FC142102A8C5
:101C3000FEF723FC00BF002001902448006840F01C
:101C40008050224908600846006800F080500190EA
:101C500000BF00BF00BF002001901D48006840F495
:101C600080401B4908600846006800F480400190ED
:101C700000BF00BF012007900004089002200D90D3
:101C800041050E9106210F91A82110910221119179
:101C90000421129107A8FFF7EFF808B1FEF7F8FC4E
:101CA0000F20029002200390002004904FF4A050D7
:101CB00005904FF480500690052102A8FEF77AFFA8
:101CC00008B1FEF7E5FC13B000BD0000403802404B
:101CD000007000400348006840F47000014908604B
:101CE0007047000088ED00E010B50248FFF79DFB4B
:101CF00010BD00003003002010B502682B4B984245
:101D00000ED0B0F1804F0BD0294B984208D0294B10
:101D1000984205D0284B984202D0284B984203D1D4
:101D200022F070024B681A43204B984220D0B0F149
:101D3000804F1DD01E4B98421AD01E4B984217D090
:101D40001D4B984214D01D4B984211D01C4B984209
:101D50000ED01C4B98420BD01B4B984208D01B4B0B
:101D6000984205D01A4B984202D01A4B984203D1A0
:101D700022F44072CB681A4322F080034C6943EA94
:101D800004028B68C3620B688362084B984202D0DE
:101D90000A4B984201D10B690363036843F00403C3
:101DA000036001234361026010BD00000000014098
:101DB0000004004000080040000C00400004014006
:101DC000004001400044014000480140001800402C
:101DD000001C00400020004070B50446A56B0020A8
:101DE000E8852846FFF7E4FB70BD00BF00BF02682E
:101DF0000C3252E8002F22F4907102680C3242E853
:101E00000013002BF3D100BF00BF00BF02681432E3
:101E100052E8002F22F001010268143242E8001358
:101E2000002BF3D100BF016B01290ED100BF00BF11
:101E300002680C3252E8002F22F0100102680C32C6
:101E400042E80013002BF3D100BF202180F842109C
:101E500000210163704710B504462068C06820F077
:101E600040002168C860202084F841002046FFF728
:101E7000CEFD002010BDF8B504460025002694F8DC
:101E80004200222873D1A068B0F5805F0BD1206991
:101E900048B9A66A20684068C0F308003080A06A8C
:101EA000801CA06214E0A56AA068B0F5805F03D032
:101EB000A06828B9206918B920684068287004E033
:101EC0002068406800F07F002870A06A401CA06273
:101ED000E08D401E80B2E085002846D12068C068B1
:101EE00020F020002168C8602068C06820F480705D
:101EF0002168C8602068406920F0010021684861BD
:101F0000202084F8420000206063206B012826D145
:101F10000020206300BF00BF21680C3151E8001F82
:101F200021F0100021680C3141E80002002AF3D1B1
:101F300000BF2068006800F0100010280AD100BF20
:101F400000200090206800680090206840680090A1
:101F500000BF00BFA18D2046FFF729FB02E020460D
:101F6000FFF754FD0020F8BD01E00020FBE7022050
:101F7000F9E700002DE9F84F04462068006920F4D5
:101F80004050E1680843216808612169A06808435E
:101F900061690843E169084300902068C06849F21C
:101FA0000C618843009908432168C8602068406933
:101FB00020F44070A169084321684861764920688F
:101FC000884203D075492068884203D1FEF7ECFEB1
:101FD000814602E0FEF7D8FE8146E069B0F5004F89
:101FE0006CD102206168A0FB015003461920A9FBB7
:101FF000007001462A463846FEF796F96421B0FB88
:10200000F1F04FEA001A02206168A0FB01510B4673
:102010001920A9FB00712A463846FEF785F9834648
:1020200002206168A0FB015003461920A9FB007142
:102030002A463846FEF778F96421B0FBF1F000EB50
:10204000C00101EB0010ABEB8000322101EBC000BE
:102050006421B0FBF1F000F0F8000AEB400A022026
:102060006168A0FB015003461920A9FB00700146DE
:102070002A463846FEF758F9834602206168A0FBDD
:10208000015003461920A9FB00712A463846FEF785
:102090004BF96421B0FBF1F000EBC00101EB001043
:1020A000ABEB8000322101EBC0006421B0FBF1F00A
:1020B00000F007005044216888606AE004206168ED
:1020C000A0FB015003461920A9FB007001462A46D7
:1020D0003846FEF729F9824604206168A0FB0150CA
:1020E00003461920A9FB007001462A463846FEF730
:1020F0001BF96421B0FBF1F000EBC00101EB001013
:10210000AAEB8000322101EB00106421B0FBF1F05A
:1021100000F0F00A04206168A0FB0170034619205A
:10212000A9FB00513A462846FEF7FEF86421B0FBB1
:10213000F1F00AEB001A04206168A0FB01510B4684
:102140001920A9FB00712A463846FEF7EDF88346B0
:1021500004206168A0FB015003461920A9FB007010
:1021600001462A463846FEF7DFF86421B0FBF1F05D
:1021700000EBC00101EB0010ABEB8000322101EB62
:1021800000106421B0FBF1F000F00F005044216812
:102190008860BDE8F88F0000001001400014014085
:1021A000014691F84100212828D18868B0F5805F68
:1021B0000BD1086948B90A6A1088C0F308000B6897
:1021C0005860086A801C086205E00B6A581C0862A7
:1021D00018780B685860C88C401E80B2C88458B903
:1021E0000868C06820F080000B68D8600868C06884
:1021F00040F040000B68D860002070470220FCE7E8
:1022000010B50248FFF7D6F910BD0000E802002023
:1022100000BFFEE702480068C0F3022070470000DC
:102220000CED00E010B5002804DB0A07130E054A88
:10223000135406E00A07140E034A00F00F031B1F95
:10224000D45410BD00E400E018ED00E0FEF7AAFB56
:10225000FFF7E6FCFFF70EFCFFF75AFCFFF7DAFB8F
:1022600000F015F800BFFEE701460020842901D0E8
:10227000CA1C1044704770B5044625460DB1294666
:1022800000E00121084600F037FC002070BD10B5C9
:1022900000F060FC002010BD7FB504460D4660696B
:1022A00098B1A06988B1B4F90800FFF7DDFF0646D0
:1022B000D4E90510CDE9006102902B462269D4E9EA
:1022C000001000F0D3FD039013E0B4F90800FFF70D
:1022D000CBFF064603A8CDE90060238A9AB22B46BD
:1022E000D4E9001000F090FD012802D0002004B0D5
:1022F00070BD0398FBE700002DE9F04105460E464E
:102300001C4807681C480068001D00F0F1FA50B92D
:102310001948006890F82C10012088401749096876
:10232000814316480160681C38B936B1124801680B
:10233000091D134800F026FB1AE07C190E480068BE
:102340004460BC4207D20C480168091D0D48006872
:1023500000F0FEFA0CE008480168091D0A48006810
:1023600000F0F6FA09480068844201D20748046088
:10237000BDE8F081400000202C0000204400002037
:102380005404002034000020300000205C000020B5
:1023900010B5044600F002FB23480068401C2249A7
:1023A00008602248006840B9204804600846006878
:1023B00001280DD100F03EF90AE01D48006838B947
:1023C0001A480068C06AE16A884201D81748046068
:1023D00018480068401C1749086094F82C10012028
:1023E000884015490968084313490860E16A01EB10
:1023F0008101124A02EB8100211D00F0C3FA00F0B6
:10240000F7FA0B48006868B108480068C06AE16ADA
:10241000884207D24FF0805009490860BFF34F8FC0
:10242000BFF36F8F10BD00003C0000202C00002087
:1024300048000020580000204400002078030020BD
:1024400004ED00E010B516E000F0A8FA0C48C068F2
:10245000C468201D00F04CFA0A480068401E094973
:10246000086009480068401E0749086000F0C0FA8B
:10247000204600F00BF8044800680028E4D110BDA5
:10248000400400203C0000203800002010B5044625
:1024900094F8510030B9206B00F0C8FA204600F0E3
:1024A000C5FA1AE094F85100012803D1204600F043
:1024B000BDFA12E094F85100022801D1012000E099
:1024C000002050B900BF502080F31188BFF34F8F18
:1024D000BFF36F8F00BF00BFFEE710BD30B54FF4F4
:1024E0007053174800F007042CB1C01D20F00700FE
:1024F000134C041B1B1B0246124C22600024114D7E
:102500006C60D018083820F007000F4C20600024C1
:102510000D4D2D686C600C4D2D682C601146441AD1
:102520004C60094C24680C60084D4C682C60084DC8
:102530004C682C604FF00044064D2C6030BD00000C
:10254000680400206800002070000020780000204F
:10255000740000208400002000BFFFF773FF0648CE
:1025600000680128F9D94FF0805004490860BFF392
:102570004F8FBFF36F8FF0E77803002004ED00E08A
:102580002DE9FF5F81460E469246DDE90E7B109CE9
:10259000AAF10100216B01EB800828F0070808F080
:1025A000070008B9012000E0002050B900BF50200A
:1025B00080F31188BFF34F8FBFF36F8F00BF00BF51
:1025C000FEE786B1002507E0715D04F13400415556
:1025D000705D00B902E06D1C102DF5D300BF002125
:1025E0004320015502E0002084F83400072F00D377
:1025F0000627E76267640020A064201D00F0A5F9AB
:1026000004F1180000F0A1F92461C7F10700A061EE
:1026100064620020E06484F8500049464046039A12
:1026200000F050F92060BBF1000F01D0CBF8004062
:10263000BDE8FF9F10B5002407E004EB84010F4ABA
:1026400002EB810000F074F9641C072CF5D30C48F0
:1026500000F06EF90B4800F06BF90B4800F068F9D8
:102660000A4800F065F90A4800F062F9044809498F
:10267000086004480849086010BD00007803002085
:1026800004040020180400202C0400204004002032
:1026900054040020300000203400002010B5014612
:1026A000164800E0006803688B42FBD3024643688B
:1026B00013448B4204D143684C6823444360014671
:1026C0000A464B6813440468A34211D10C4C0368BA
:1026D0002468A34208D04B680468646823444B60B4
:1026E00003681B680B6005E0054B1B680B6001E08D
:1026F00003680B60884200D0016010BD68000020B4
:10270000700000200A490968096809B9012100E040
:10271000002121B14FF0FF31064A116006E0044963
:102720000968C968C868034A4168116070470000B9
:10273000300000205C0000200E480068401C08B9F2
:10274000012000E0002050B900BF502080F3118824
:10275000BFF34F8FBFF36F8F00BF00BFFEE700BF17
:10276000502080F31188BFF34F8FBFF36F8F00BFEE
:1027700000BFFEE7880000202DE9F04104464FF03D
:10278000000800F03FFA4948006808B9FFF7A6FEC4
:10279000474800682040002870D1D4B1083404F0C4
:1027A0000700B0B104F00700C0F10800044404F0D1
:1027B000070008B9012000E0002050B900BF5020F8
:1027C00080F31188BFF34F8FBFF36F8F00BF00BF3F
:1027D000FEE7002C52D03748006884424ED8364E6F
:1027E0003046056801E02E462D686868A04202D296
:1027F00028680028F7D12D48006885423ED030680F
:1028000000F10808286830606868001B102819D992
:102810002F1907F0070008B9012000E0002050B987
:1028200000BF502080F31188BFF34F8FBFF36F8F2D
:1028300000BF00BFFEE76868001B78606C60384628
:10284000FFF72CFF1B4968680968081A19490860D6
:102850000846006819490968884203D2154800688B
:1028600016490860124968680968084368600020D2
:10287000286013480068401C1149086000F0F8FB0C
:1028800008F0070008B9012000E0002050B900BF9F
:10289000502080F31188BFF34F8FBFF36F8F00BFBD
:1028A00000BFFEE74046BDE8F08100007000002058
:1028B00084000020740000206800002078000020C0
:1028C0007C000020001F4FF080730360001F21F088
:1028D00001030360001F054B036014380260001FF2
:1028E0006FF00203036020387047000039270008AA
:1028F00001460A69D1E901309860D1E901035860C5
:102900005068884201D188685060002008611068D2
:10291000401E106010687047034B0360034B0B6050
:10292000802313607047000094000020E80000201E
:1029300000F1080141604FF0FF31816000F10801B2
:10294000C160016100210160704700210161704791
:1029500010B502460B685C1C0CB9106907E002F167
:10296000080000E04068446824689C42FAD9446842
:102970004C604C68A160886041600A611468641C06
:10298000146010BD42684A6093688B609368596018
:102990009160086103685B1C0360704700BF5020B2
:1029A00080F31188BFF34F8FBFF36F8F00BF0E48C6
:1029B0000068401C0C49086008460068012812D1D4
:1029C0000A480068C0B208B9012000E0002050B9F0
:1029D00000BF502080F31188BFF34F8FBFF36F8F7C
:1029E00000BF00BFFEE770478800002004ED00E054
:1029F0000D48006850B900BF502080F31188BFF324
:102A00004F8FBFF36F8F00BF00BFFEE7064800681F
:102A1000401E054908600846006820B9002080F380
:102A2000118800BF00BF70478800002070B50646BF
:102A30003546002E44D0083D2C462249606809687E
:102A4000084008B1012000E0002050B900BF50202C
:102A500080F31188BFF34F8FBFF36F8F00BF00BFAC
:102A6000FEE7206808B9012000E0002050B900BF4F
:102A7000502080F31188BFF34F8FBFF36F8F00BFDB
:102A800000BFFEE70F49606809680840C0B12068D0
:102A9000B0B90C49606809688843606000F0B2F81A
:102AA0000949606809680844074908602046FFF73B
:102AB000F5FD06480068401C0449086000F0D8FA9B
:102AC00070BD000084000020740000208000002001
:102AD00000204FF0E02108618861064800684FF44B
:102AE0007A71B0FBF1F0401E4FF0E0214861072001
:102AF000086170472800002070B504460025D4B155
:102B00001248006808B9012000E0002050B900BF59
:102B1000502080F31188BFF34F8FBFF36F8F00BF3A
:102B200000BFFEE700F06EF800212046FFF7E4FB4F
:102B300000F09EFA05463DB94FF080500449086008
:102B4000BFF34F8FBFF36F8F70BD00006400002094
:102B500004ED00E010B586B000200590049003AAB3
:102B600004A905A8FFF7D8FE0022DDE904101346EA
:102B7000CDE9002102901CA11D48039A00F076F9CE
:102B80001C4908600846006808B1012400E00024E0
:102B9000012C15D100BF502080F31188BFF34F8F57
:102BA000BFF36F8F00BF4FF0FF3013490860012063
:102BB0001249086000201249086000F071F810E026
:102BC000601C08B1012000E0002050B900BF502077
:102BD00080F31188BFF34F8FBFF36F8F00BF00BF2B
:102BE000FEE706B010BD000049444C45000000005F
:102BF00059250008600000205C00002048000020EB
:102C00004000002002480068401C014908607047ED
:102C1000640000201D48006818B101201C490860AC
:102C200032E000201A4908601A480068B0FA80F0C3
:102C3000C0F11F0101EB8100174A52F8200008B1D2
:102C4000012000E0002050B900BF502080F311881F
:102C5000BFF34F8FBFF36F8F00BF00BFFEE701EBE5
:102C600081020D4B03EB820042685268426000F122
:102C700008024368934202D1426852684260426847
:102C8000D268064B1A6000BF704700006400002045
:102C90005000002044000020780300202C00002079
:102CA0001CB5524800685249884201D0012000E01A
:102CB000002050B900BF502080F31188BFF34F8F20
:102CC000BFF36F8F00BF00BFFEE748480068484968
:102CD000491E884201D0012000E0002050B900BF09
:102CE000502080F31188BFF34F8FBFF36F8F00BF69
:102CF00000BFFEE73F49084600780190FF200A46E2
:102D000010700846007800909DF8000000F0F00078
:102D10009DF80020904201D1012000E0002050B930
:102D200000BF502080F31188BFF34F8FBFF36F8F28
:102D300000BF00BFFEE79DF8000000F050002E4AE3
:102D4000107007202D4A106009E02C480068401ED2
:102D50002A4A10609DF800004006000E00909DF881
:102D6000000000F080008028EFD024480068C0F107
:102D70000700042801D1012000E0002050B900BF65
:102D8000502080F31188BFF34F8FBFF36F8F00BFC8
:102D900000BFFEE7194800680002184A106010469C
:102DA000008800F4E0601060124A019810700F482B
:102DB0002030006840F470000C492031086008465B
:102DC000006840F070400860FFF782FE00200C4968
:102DD0000860FDF74DFA0B48006840F04040094993
:102DE0000860FDF731FA00201CBD000000ED00E096
:102DF00071C20F4100E400E08C0000209000002030
:102E00008800002034EF00E02DE9FF4F85B08046B8
:102E100089461746DDE912ABB800FFF7ADFC064660
:102E200056B15420FFF7A8FC04460CB1266304E019
:102E30003046FFF7FBFD00E000248CB1002084F851
:102E40005100CDE900ABCDE902403A464946404643
:102E5000089BFFF795FB2046FFF79AFA012501E052
:102E60004FF0FF35284609B0BDE8F08F2DE9F04F4F
:102E700085B00746884691469A46DDE90EB6109C15
:102E80000EB1012000E0002050B900BF502080F3B7
:102E90001188BFF34F8FBFF36F8F00BF00BFFEE7F6
:102EA0000CB1012000E0002050B900BF502080F399
:102EB0001188BFF34F8FBFF36F8F00BF00BFFEE7D6
:102EC000542003900398542801D1012000E00020F1
:102ED00050B900BF502080F31188BFF34F8FBFF36C
:102EE0006F8F00BF00BFFEE700BFB4B1AEB1254693
:102EF0002C462E63022085F85100002004A9534679
:102F00004A46CDE900B1CDE9025041463846FFF7C7
:102F100037FB2846FFF73CFA01E0002004900498B4
:102F200005B0BDE8F08F00002DE9F0414FF000083A
:102F30004448006800287CD143480068451C42484A
:102F4000056015BB41480068006808B9012000E031
:102F5000002050B900BF502080F31188BFF34F8F7D
:102F6000BFF36F8F00BF00BFFEE7384807683848DF
:102F70000068364908603648076036480068401CDB
:102F800034490860FFF7BEFB00BF33480068854244
:102F90003CD300BF2D480068006808B9012000E05C
:102FA000002020B14FF0FF302B4908602DE027486A
:102FB0000068C068C4686668B54202D226480660E8
:102FC00023E0201DFFF794FCA06A18B104F118005B
:102FD000FFF78EFC94F82C10012088401F490968E7
:102FE00008431E490860E16A01EB81011C4A02EBBB
:102FF0008100211DFFF7C6FC1A49E06A0968C96A09
:103000008842C7D34FF00108C4E700BF15480068E5
:10301000C06A00EB8000124951F82000012801D954
:103020004FF001081048006808B14FF0010805E0B2
:10303000FFE70E480068401C0C4908604046BDE8A8
:10304000F0810000640000204000002030000020DB
:1030500034000020540000205C00002044000020C8
:10306000780300202C000020500000204C0000209D
:1030700070B5002400263648006850B900BF5020C3
:1030800080F31188BFF34F8FBFF36F8F00BF00BF76
:10309000FEE7FFF783FC2E480068401E2C490860BD
:1030A0000846006800284FD12A48006800284BD005
:1030B00024E02948C068C46804F11800FFF718FC30
:1030C000201DFFF715FC94F82C100120884023499F
:1030D0000968084321490860E16A01EB8101204A3F
:1030E00002EB8100211DFFF74DFC1E49E06A0968D3
:1030F000C96A884202D301201B490860164800684B
:1031000008B9012000E000200028D2D00CB1FFF760
:10311000F9FA1648056865B100BFFFF705FF10B161
:103120000120114908606D1E002DF6D100200F49C5
:1031300008600D48006838B1012630070C49086066
:10314000BFF34F8FBFF36F8FFFF752FC304670BD58
:10315000640000203C0000202C04002044000020DB
:10316000780300202C000020500000204C0000209C
:1031700004ED00E000EE100A00EE901A30EE200A96
:1031800010EE100A704710B500F034F80CBF0120A3
:10319000002010BD10B500F02DF814BF0120002054
:1031A00010BD10B500F05AF88CBF0120002010BDF2
:1031B00010B500F053F82CBF0120002010BD10B551
:1031C00000F064F894BF0120002010BD10B500F09D
:1031D0005DF834BF0120002010BD401058BFC0F181
:1031E0004040491058BFC1F140418142EFF3008097
:1031F0007047000000EE100A00EE901AB4EE600A6C
:10320000F1EE10FA78BF704700F000B810B500F08A
:103210005EF800BF922449004FF000504FF08051FB
:10322000FFF7DBBF00EE100ABDEEC01A11EE100A68
:10323000704700EE100ABCEEC01A11EE100A70477B
:1032400000EE100AB8EEC00A10EE100A704700EE49
:10325000100AB8EE400A10EE100A704700EE100A8D
:1032600000EE901AB4EE600AF1EE10FA78BF7047E3
:1032700000F000B810B500F02AF800BF9224490011
:103280004FF080504FF00051FFF7A7BF00EE100A3B
:1032900000EE901AB4EE600AF1EE10FA78BF7047B3
:1032A000AFF3008010B500F012F800BF922449007F
:1032B0004FF000504FF08051FFF78FBF00EE100A23
:1032C00000EE901A20EE200A10EE100A70470EF160
:1032D000020E2EF0030E5EF8044B244204D44FEA93
:1032E0004102B2F17F4F11D84FEA4003B3F17F4F53
:1032F0000CD80ED14FEAD07CB2F17F4F0CEB4C0CC6
:103300000CF1020C08BF4CEBD17C04E04FF0080C30
:1033100001E04FEAD17C0CEB4C0324FA03F404F0F7
:103320000704B4F1040C06D20EEB840CBDE8104087
:103330004CF0010C6047DFE80CF0070802024FF088
:103340000040A0F5800010BD0846420018BFD2F131
:10335000807288BF00F0004010BD4FF04070E1EE79
:10336000100A704700EE100A00EE901A30EE600A64
:1033700010EE100A70470000FC330008511B0008D3
:10338000000000000000000000020000000000003B
:1033900000000000E4330008BD1B0008FDFF000032
:1033A000000000000002000000000000000000001B
:1033B000F0330008D51B0008FDFF000000000000EE
:1033C00000020000000000000000000000000000FB
:1033D00000000000010203040607080900000000C5
:1033E000010203046D795461736B303200000000F8
:1033F0006D795461736B3033000000006465666161
:10340000756C745461736B0000000000920E493CAF
:10341000B10AC93C2BC3163D2EFB483D752B7B3DA5
:1034200004A9963D80B6AF3D36BDC83D2FBCE13DF9
:1034300073B2FA3D87CF093E8340163EB5AB223EBC
:10344000A2102F3ECF6E3B3EC2C5473E0115543EF3
:10345000135C603E7F9A6C3ECCCF783EC07D823E4E
:10346000938E883E229A8E3E32A0943E86A09A3E4B
:10347000E59AA03E128FA63ED47CAC3EEF63B23EEE
:103480002A44B83E491DBE3E15EFC33E53B9C93E5E
:10349000CA7BCF3E4136D53E80E8DA3E4F92E03ED1
:1034A0007533E63EBBCBEB3EEA5AF13ECBE0F63E4F
:1034B000275DFC3EE4E7003F3D9C033F824B063F17
:1034C0009BF5083F6B9A0B3FDA390E3FCDD3103F87
:1034D0002A68133FD9F6153FC07F183FC6021B3F2D
:1034E000D17F1D3FCBF61F3F9967223F25D2243F56
:1034F0005636273F1594293F4AEB2B3FDE3B2E3FA4
:10350000BB85303FC9C8323FF304353F233A373FCC
:103510004268393F3B8F3B3FF9AE3D3F67C73F3F76
:1035200070D8413F01E2433F03E4453F65DE473F3A
:1035300012D1493FF8BB4B3F029F4D3F207A4F3F8E
:103540003D4D513F4918533F31DB543FE595563FC0
:103550005348583F6AF2593F1A945B3F532D5D3FE1
:1035600005BE5E3F2146603F97C5613F5A3C633FC1
:1035700059AA643F880F663FD86B673F3CBF683FDE
:10358000A7096A3F0C4B6B3F5E836C3F93B26D3F64
:103590009ED86E3F73F56F3F0809713F5213723F1B
:1035A0004714733FDD0B743F0BFA743FC6DE753F63
:1035B00007BA763FC58B773FF853783F9812793F2B
:1035C0009DC7793F02737A3FBE147B3FCDAC7B3FF2
:1035D000283B7C3FC9BF7C3FAC3A7D3FCCAB7D3FB5
:1035E00023137E3FB0707E3F6DC47E3F580E7F3FF9
:1035F0006D4E7F3FAB847F3F0FB17F3F97D37F3FBF
:1036000043EC7F3F11FB7F3F0000803F11FB7F3F7A
:1036100043EC7F3F97D37F3F0FB17F3FAB847F3F2A
:103620006D4E7F3F580E7F3F6DC47E3FB0707E3F32
:1036300023137E3FCCAB7D3FAC3A7D3FC9BF7C3F7F
:10364000283B7C3FCDAC7B3FBE147B3F02737A3F6F
:103650009DC7793F9812793FF853783FC58B773FE4
:1036600007BA763FC6DE753F0BFA743FDD0B743F39
:103670004714733F5213723F0809713F73F56F3F50
:103680009ED86E3F93B26D3F5E836C3F0C4B6B3F99
:10369000A7096A3F3CBF683FD86B673F880F663F0A
:1036A00059AA643F5A3C633F97C5613F2146603F3A
:1036B00005BE5E3F532D5D3F1A945B3F6AF2593F52
:1036C0005348583FE595563F31DB543F4918533F27
:1036D0003D4D513F207A4F3F029F4D3FF8BB4B3F3E
:1036E00012D1493F65DE473F03E4453F01E2433FD6
:1036F00070D8413F67C73F3FF9AE3D3F3B8F3B3FEF
:103700004268393F233A373FF304353FC9C8323F57
:10371000BB85303FDE3B2E3F4AEB2B3F1594293FC4
:103720005636273F25D2243F9967223FCBF61F3FCD
:10373000D17F1D3FC6021B3FC07F183FD9F6153F02
:103740002A68133FCDD3103FDA390E3F6B9A0B3FF7
:103750009BF5083F824B063F3D9C033FE4E7003F5B
:10376000275DFC3ECBE0F63EEA5AF13EBBCBEB3E9A
:103770007533E63E4F92E03E80E8DA3E4136D53E74
:10378000CA7BCF3E53B9C93E15EFC33E491DBE3E6D
:103790002A44B83EEF63B23ED47CAC3E128FA63EC4
:1037A000E59AA03E86A09A3E32A0943E229A8E3E92
:1037B000938E883EC07D823ECCCF783E7F9A6C3E11
:1037C000135C603E0115543EC2C5473ECF6E3B3E82
:1037D000A2102F3EB5AB223E8340163E87CF093E56
:1037E00073B2FA3D2FBCE13D36BDC83D80B6AF3D5A
:1037F00004A9963D752B7B3D2EFB483D2BC3163D02
:10380000B10AC93C920E493C00000000920E49BC2E
:10381000B10AC9BC2BC316BD2EFB48BD752B7BBDA1
:1038200004A996BD80B6AFBD36BDC8BD2FBCE1BDF5
:1038300073B2FABD87CF09BE834016BEB5AB22BEB8
:10384000A2102FBECF6E3BBEC2C547BE011554BEEF
:10385000135C60BE7F9A6CBECCCF78BEC07D82BE4A
:10386000938E88BE229A8EBE32A094BE86A09ABE47
:10387000E59AA0BE128FA6BED47CACBEEF63B2BEEA
:103880002A44B8BE491DBEBE15EFC3BE53B9C9BE5A
:10389000CA7BCFBE4136D5BE80E8DABE4F92E0BECD
:1038A0007533E6BEBBCBEBBEEA5AF1BECBE0F6BE4B
:1038B000275DFCBEE4E700BF3D9C03BF824B06BF13
:1038C0009BF508BF6B9A0BBFDA390EBFCDD310BF83
:1038D0002A6813BFD9F615BFC07F18BFC6021BBF29
:1038E000D17F1DBFCBF61FBF996722BF25D224BF52
:1038F000563627BF159429BF4AEB2BBFDE3B2EBFA0
:10390000BB8530BFC9C832BFF30435BF233A37BFC8
:10391000426839BF3B8F3BBFF9AE3DBF67C73FBF72
:1039200070D841BF01E243BF03E445BF65DE47BF36
:1039300012D149BFF8BB4BBF029F4DBF207A4FBF8A
:103940003D4D51BF491853BF31DB54BFE59556BFBC
:10395000534858BF6AF259BF1A945BBF532D5DBFDD
:1039600005BE5EBF214660BF97C561BF5A3C63BFBD
:1039700059AA64BF880F66BFD86B67BF3CBF68BFDA
:10398000A7096ABF0C4B6BBF5E836CBF93B26DBF60
:103990009ED86EBF73F56FBF080971BF521372BF17
:1039A000471473BFDD0B74BF0BFA74BFC6DE75BF5F
:1039B00007BA76BFC58B77BFF85378BF981279BF27
:1039C0009DC779BF02737ABFBE147BBFCDAC7BBFEE
:1039D000283B7CBFC9BF7CBFAC3A7DBFCCAB7DBFB1
:1039E00023137EBFB0707EBF6DC47EBF580E7FBFF5
:1039F0006D4E7FBFAB847FBF0FB17FBF97D37FBFBB
:103A000043EC7FBF11FB7FBF000080BF11FB7FBF76
:103A100043EC7FBF97D37FBF0FB17FBFAB847FBF26
:103A20006D4E7FBF580E7FBF6DC47EBFB0707EBF2E
:103A300023137EBFCCAB7DBFAC3A7DBFC9BF7CBF7B
:103A4000283B7CBFCDAC7BBFBE147BBF02737ABF6B
:103A50009DC779BF981279BFF85378BFC58B77BFE0
:103A600007BA76BFC6DE75BF0BFA74BFDD0B74BF35
:103A7000471473BF521372BF080971BF73F56FBF4C
:103A80009ED86EBF93B26DBF5E836CBF0C4B6BBF95
:103A9000A7096ABF3CBF68BFD86B67BF880F66BF06
:103AA00059AA64BF5A3C63BF97C561BF214660BF36
:103AB00005BE5EBF532D5DBF1A945BBF6AF259BF4E
:103AC000534858BFE59556BF31DB54BF491853BF23
:103AD0003D4D51BF207A4FBF029F4DBFF8BB4BBF3A
:103AE00012D149BF65DE47BF03E445BF01E243BFD2
:103AF00070D841BF67C73FBFF9AE3DBF3B8F3BBFEB
:103B0000426839BF233A37BFF30435BFC9C832BF53
:103B1000BB8530BFDE3B2EBF4AEB2BBF159429BFC0
:103B2000563627BF25D224BF996722BFCBF61FBFC9
:103B3000D17F1DBFC6021BBFC07F18BFD9F615BFFE
:103B40002A6813BFCDD310BFDA390EBF6B9A0BBFF3
:103B50009BF508BF824B06BF3D9C03BFE4E700BF57
:103B6000275DFCBECBE0F6BEEA5AF1BEBBCBEBBE96
:103B70007533E6BE4F92E0BE80E8DABE4136D5BE70
:103B8000CA7BCFBE53B9C9BE15EFC3BE491DBEBE69
:103B90002A44B8BEEF63B2BED47CACBE128FA6BEC0
:103BA000E59AA0BE86A09ABE32A094BE229A8EBE8E
:103BB000938E88BEC07D82BECCCF78BE7F9A6CBE0D
:103BC000135C60BE011554BEC2C547BECF6E3BBE7E
:103BD000A2102FBEB5AB22BE834016BE87CF09BE52
:103BE00073B2FABD2FBCE1BD36BDC8BD80B6AFBD56
:103BF00004A996BD752B7BBD2EFB48BD2BC316BDFE
:103C0000B10AC9BC920E49BC000000802C3C0008DF
:103C10000000002094000000C4010008C03C00081F
:103C20009400002034460000E0010008000000007D
:103C300000000000000000000000803F0000803F06
:103C40000000000000000000000000001000000064
:103C5000010000000024F40000000000000000004B
:103C60000000000000000000000000000000000054
:103C70000000000000000000000000000000000044
:103C80000000000000000000000000000000000034
:103C90000000000000000000000000000000000024
:103CA0000000000000000000000000000000000014
:103CB00000000000AAAAAAAA00000000000000005C
:040000050800018965
:00000001FF
