:020000040800F2
:100000009852002061020008513A00081534000897
:10001000A1370008EF090008B547000800000000FC
:10002000000000000000000000000000A101000826
:100030001F13000800000000FD010008613C0008DB
:100040007B0200087B0200087B0200087B0200089C
:100050007B0200087B0200087B0200087B0200088C
:100060007B0200087B0200087B0200087B0200087C
:10007000F51100087B0200087B0200087B020008E3
:100080007B0200087B0200087B020008250A0008AA
:10009000F5090008050A0008150A00087B02000897
:1000A0007B0200085D3D00087B0200087B0200081F
:1000B0007B0200087B0200087B0200087B0200082C
:1000C0007B0200087B0200087B0200087B0200081C
:1000D0007B020008D54400087B020008E5440008C4
:1000E0007B0200087B0200087B0200087B020008FC
:1000F0007B0200087B0200087B0200087B020008EC
:100100007B0200087B0200087B0200087B020008DB
:100110007B0200087B0200087B0200087B020008CB
:100120007B0200087B020008051200087B02000821
:100130007B0200087B0200087B020008650A0008B9
:10014000350A0008450A0008550A00087B02000825
:100150007B0200087B0200087B0200087B0200088B
:100160007B0200087B0200087B0200087B0200087B
:100170007B0200087B0200087B02000800000000F0
:100180007B0200087B020008DFF810D000F0F2FBD1
:10019000004800478B570008AFF3008098520020BA
:1001A0002C4B19680868B0E8F04F80F30988BFF35A
:1001B0006F8F4FF0000080F311887047000000003F
:1001C00008480068006880F308884FF0000080F35A
:1001D000148862B661B6BFF34F8FBFF36F8F00DF35
:1001E00000BF00BF08ED00E0DFF80C00016841F43B
:1001F00070010160704700BF88ED00E0EFF30980F7
:10020000BFF36F8F134B1A681EF0100F08BF20ED5D
:10021000108A20E9F04F106009B44FF0500080F3CD
:100220001188BFF34F8FBFF36F8F06F02BF94FF09C
:10023000000080F3118809BC19680868B0E8F04F25
:100240001EF0100F08BFB0EC108A80F30988BFF3CE
:100250006F8F704720000020EFF30580704700008B
:100260000648804706480047FEE7FEE7FEE7FEE750
:10027000FEE7FEE7FEE7FEE7FEE7FEE7493D000892
:10028000890100082DE9F05F0546002092469B4653
:1002900088460646814640241BE02846414647469C
:1002A000224600F05BFA53465A46C01A914110D3D9
:1002B00011461846224600F016F82D1A67EB010881
:1002C0004F4622460120002100F00DF817EB0009EF
:1002D0004E41201EA4F10104DFDC484631462A4687
:1002E0004346BDE8F09F202A04DB203A00FA02F1E1
:1002F000002070479140C2F1200320FA03F3194314
:1003000090407047202A06DBCB17203A41FA02F0D2
:1003100043EAE07306E041FA02F3D040C2F1200262
:10032000914008431946704740EA01039B0703D0F8
:1003300009E008C9121F08C0042AFAD203E011F824
:10034000013B00F8013B521EF9D27047D2B201E0E6
:1003500000F8012B491EFBD270470022F6E710B5CA
:1003600013460A4604461946FFF7F0FF204610BD23
:100370002DE9FE4F804681EA0300C00F0C46009035
:1003800021F0004123F00045B8EB0200A94105D25D
:100390004046214690461C460B46024623F000404C
:1003A000104347D0270DC7F30A00C3F30A51029048
:1003B000401A019040286BDAC3F3130040F4801B0D
:1003C0000098924620B10023D2EB030A63EB0B0B9B
:1003D00001985946C0F140025046FFF784FF064697
:1003E0000D4650465946019AFFF78CFF10EB080066
:1003F0006141002487EA115284EAE7731A4340D02E
:10040000009A62B3019A012A4FEA075215DC001BD9
:1004100061EB02014FF0004202EA0752CDE90042CF
:10042000001C41F5801132462B4600F0EDF903B077
:10043000BDE8F08F40462146F9E7001B61EB020161
:10044000001C41F5801300185B412018A2F500172D
:1004500047EB030140EAD570B6196D4111E06D0814
:100460004FEA360645EAC0754FEA0752001B61EBBA
:100470000201001C41F5801149084FEA30000019C3
:10048000514132462B4603B0BDE8F04F00F0ADB904
:100490000098012240000023D0EB020263EBE073DE
:1004A000009821464FEAE074B8EB000061EB0401CC
:1004B000E9E783F000435BE781F0004158E72DE96D
:1004C000FE4F81EA030404F0004421F0004100944F
:1004D0004FF0000B23F0004350EA01045ED052EAD3
:1004E00003045BD0C3F30A54C1F30A552C44A4F2AD
:1004F000F3340194A0FB0254C1F3130141F48011C1
:10050000C3F3130343F4801301FB024400FB034EC7
:10051000840A970A44EA815447EA8357A4FB076890
:1005200002958D0A05FB07854FEA932C04FB0C54BA
:100530002705029D4FEA065847EA1637B5EB08052E
:100540006EEB070C870E920E47EA811742EA831280
:10055000A7FB0201B6EB0B0164EB00042B0D43EA91
:100560000C335E1844EB1C50DA465146E7FB02019F
:10057000C5F313044FEA0B3343EA14534FEA043232
:10058000019C43EA0603A4F10C040294009CCDE90B
:1005900000B400F039F903B0BDE8F08F0020014647
:1005A000F9E72DE9F04D81EA030404F0004B21F056
:1005B000004514464FF0000A23F0004150EA0502BE
:1005C00020D054EA01021DD0C5F30A570246C5F3F4
:1005D0001303C1F31300C1F30A5640F4801543F42A
:1005E0008013A7EB0608101BD64608F2FD3873EB04
:1005F000050002D308F1010801E092185B41B8F14F
:10060000000F03DA00200146BDE8F08D00204FF412
:100610008011064684460EE0171B73EB050705D3D1
:10062000121B63EB050306434CEA010C49084FEA31
:10063000300092185B4150EA0107EDD152EA030005
:1006400012D082EA040083EA0501084305D0101B9A
:10065000AB4106D20122002306E000224FF0004306
:1006600002E06FF0010253101AEB06004CEB085148
:1006700010EB0A0041EB0B01BDE8F04D00F0B5B8FE
:10068000F0B4CA17CB0F50405140C61841F10005D5
:100690004FEAC372314628004FF0960303D0B623C9
:1006A000F0BC00F074B830460021F9E70EB5C10F78
:1006B00080EAE0700844CA07002140F233438DE825
:1006C0000E000A460B4600F09FF803B000BD00F094
:1006D000004230F000400AD0C10D01F56071C0F356
:1006E000160042EA0151C20840071143704700203A
:1006F0000146704730B5041E71F1000404DB4FF071
:100700000044404264EB0101141E73F1000405DB58
:100710001C464FF00043524263EB0403994208BF6A
:10072000904230BD01F0004330B421F0004150EA66
:10073000010206D00A0DA2F56072C1F31301002A6E
:1007400002DC30BC00207047440F44EAC104C10001
:10075000E01830BC00EBC25000F010B8202A04DBD7
:10076000203A21FA02F00021704721FA02F3D0402A
:10077000C2F1200291400843194670470029A8BFE2
:100780007047401C490008BF20F00100704710B4BA
:10079000B0FA80FC00FA0CF050EA010404BF10BC6F
:1007A000704749B1CCF1200421FA04F411FA0CF19C
:1007B00018BF012121430843A3EB0C01CB1D4FEAD5
:1007C00000614FEA102042BF002010BC704700EBD0
:1007D000C35010440029A4BF10BC7047401C4900FE
:1007E00008BF20F0010010BC704710B5141E73F153
:1007F000000408DA401C41F1000192185B411A43E1
:1008000001D120F0010010BD2DE9F04D92469B462C
:1008100011B1B1FA81F202E0B0FA80F220329046D2
:10082000FFF761FD04460F4640EA0A0041EA0B016A
:1008300053465A46084313D0114653EA010019D0D3
:10084000C8F140025046FFF789FF05460E46504664
:1008500059464246FFF747FD084305D0012004E012
:1008600020463946BDE8F08D0020054346EAE07693
:100870002C4337430A986305E40AA0EB08000022E2
:10088000FD0A44EA47540A3002D500200146E9E750
:10089000010510196941DDE9084500196941BDE804
:1008A000F04DA2E770B521F0004303430CD0C1F333
:1008B0000A550024D5EB040564EB0403D617AD1AE2
:1008C000B34102DB0020014670BD201841EB02510C
:1008D00070BD2DE9F04D00231A461B1A8A4103DB37
:1008E00000200146BDE8F08DC1F30A52C1F31301A7
:1008F00041F480154FF0000BD10702D100186D4173
:10090000521E0027044640F2FF11384601EB620AEE
:100910003E468046024600204FF48011FFF71EFF3E
:10092000C2197141BB1846EB0100B4EB030C75EB27
:10093000000C04D3E41A65EB000517460E46241993
:1009400008F101006D4180463428E3DDF91946EBDA
:100950000600091BA84103D24FF0FF32134601E005
:10096000002213461BEB070046EB0A51BDE8F04D91
:10097000FFF73BBF064C074D06E0E06840F001037F
:1009800094E8070098471034AC42F6D3FFF700FC18
:10099000CC790008EC79000870B58C1810F8015B70
:1009A00015F0070301D110F8013B2A1106D110F808
:1009B000012B03E010F8016B01F8016B5B1EF9D10C
:1009C0002B0705D40023521E0DD401F8013BFAE792
:1009D00010F8013BCB1A921C03E013F8015B01F8FD
:1009E000015B521EF9D5A142D8D3002070BD00BFD3
:1009F000FEE7000010B5024800F0D1FE10BD000077
:100A00009C05002010B5024800F0C9FE10BD000092
:100A10009C05002010B5024800F0C1FE10BD00008A
:100A20009C05002010B5024800F0B9FE10BD000082
:100A30009C05002010B5024800F0B1FE10BD00007A
:100A4000C405002010B5024800F0A9FE10BD00004A
:100A5000C405002010B5024800F0A1FE10BD000042
:100A6000C405002010B5024800F099FE10BD00003A
:100A7000C405002070B58AB005460E461DB94FF07A
:100A8000FF300AB070BD0020089009901C2101A819
:100A9000FFF763FC08AB01AA3146284600F0B5FD1C
:100AA000002419E00F4951F8241009880198884260
:100AB00011D10C4951F82410886B0A4951F82410BF
:100AC0000A6B08A9904720B107A003F075FE01202A
:100AD000D7E70020D5E7641C084800688442E1DBC2
:100AE0000220CEE72045002063616E2064636F64BE
:100AF00065206572726F720A0000000030030020EA
:100B000070B505460DB9002070BD3C2004F066FEAE
:100B100004460CB90020F7E73C212046FFF71DFCF6
:100B20006868606028882080A969A16129692161BD
:100B300069696161A868A060297F21770748E06240
:100B400007486063074801680068401C054A106058
:100B5000054840F821402046D6E70000750A000805
:100B6000190C0008300300202045002000B58BB090
:100B7000012009900020079001200890002001909A
:100B80000290039004900690059001A90D4800F092
:100B9000ABFC0C4801F0E1F802210A4800F0EAFB46
:100BA0000E200A90069001A9074800F09DFC064817
:100BB00001F0D3F80221044800F0DCFB00200BB068
:100BC00000BD00009C050020C4050020F8B50546C6
:100BD0000E4614462CB909A003F0EEFD4FF0FF308D
:100BE000F8BD002000906B4622463146284600F0B2
:100BF000D6FB08B10120F3E70020F1E763616E2026
:100C0000747861737369737420706172616D2065AB
:100C100072726F720A00000010B5044614B94FF0EA
:100C2000FF3010BD04F1280304F1200204F1080193
:100C3000606800F0B4FB20B103A003F0BDFD01200B
:100C4000EFE70020EDE7000068616C2063616E2033
:100C50007278206572726F720A00000070B50546E6
:100C60002C2004F0BBFD04460CB9002070BD2846C2
:100C700002F07EFEA06005F5D07002F079FEE06023
:100C800005F5507002F074FE206005F59C6002F0DE
:100C90006FFE6060A06828B1E06818B1206808B1F4
:100CA000606808B90020E1E795F8800620740248E2
:100CB00004602046DAE700008800002070B5054691
:100CC0000DB9002070BD182004F088FD04461CB941
:100CD0002846FFF7C3FFE06005F2846000F024FBC4
:100CE000206105F6C41002F07BFF606105F0D2F9C7
:100CF000A06095F8A40E2070206980686060E068AC
:100D000038B1206928B1606818B1A06808B160687E
:100D100008B90020D6E7024804602046D2E7000068
:100D20008C00002010B5ADF6A86D40F6A86207490A
:100D30006846FFF7F9FA6846FFF7C0FF04461CB99A
:100D400001200DF6A86D10BD0020FAE7586A0008D2
:100D50002DE9F04105460F4635B94CA003F02CFDB6
:100D60004FF0FF30BDE8F0812C463968E1627968C8
:100D7000216304F12C067078317800EB0120208487
:100D8000F078B17800EB012001B2218120780128B0
:100D90000FD1B4F9080000EE100AB8EEC00AF3EE65
:100DA000030A80EE201ABDEEC10A10EE100A01B24D
:100DB0002181207878B9B4F9080000EE100AB8EE65
:100DC000C00ADFED390A80EE201ABDEEC10A10EE2E
:100DD000100A01B22181B4F9080000EE100AB8EE41
:100DE000C00ADFED320A20EE200A84ED030A707992
:100DF000317900EB012001B22182B07941B2217634
:100E0000208C00EE100AB8EE400ADFED290A20EE31
:100E1000200A84ED010A94ED010AD4ED0A0A30EEAD
:100E2000600ADFED240AB4EEE00AF1EE10FA02D215
:100E3000E069401CE06194ED010AD4ED0A0A30EE4D
:100E4000600ADFED1D0AB4EEE00AF1EE10FA02DDF1
:100E5000E069401EE06194ED010AD4ED070AF8EE66
:100E6000E00A9FED161A00EE810A84ED090A94ED5E
:100E7000010A84ED0A0AB4F9080011490860B4F9BE
:100E800010001049086000206CE70000444A494DFA
:100E90006F746F722044636F646520706172616D5E
:100EA000206572726F720A00000010423565023CC4
:100EB000A005343D000034C3000034430000B443B7
:100EC000300100203401002070B5054625B915A079
:100ED00003F072FC002070BD442004F07FFC044647
:100EE00024B917A003F068FC0020F4E76868606389
:100EF00028782070A868A06305F10C00FFF700FEB9
:100F0000E063E06B84631548E16B08631448016893
:100F10000068401C124A1060124840F821402046E8
:100F2000D9E70000444A496D6F746F7220526567BB
:100F3000697374657220657272726F720A000000C4
:100F4000444A494D6F746F7220696E7374616E63A9
:100F500065206572726F720A00000000510D000872
:100F6000980000207444002010B500F01BF810B168
:100F70004FF0FF3010BD064A06490748FFF726FE2E
:100F8000064A07490448FFF721FE00BFF2E70000C8
:100F9000180100209C0000209C050020200100205A
:100FA000B400002010B5002111E18C4850F8210058
:100FB00010B94FF0FF3010BD884850F8210000787C
:100FC000012856D1854850F82100406B042828DCC0
:100FD000824A52F82120526B0223C3EB42007F4A1F
:100FE00052F8212092ED100ABDEEC00A10EE102A30
:100FF000C2F307227A4B1A54784A52F8212092ED14
:10100000100ABDEEC00A10EE102AD3B2744C421C76
:10101000A35423469A5C1B5C02EB0322714B1A60BB
:1010200000BF6E4850F82100406B042821DD6B4A58
:1010300052F82120526B0A23C3EB4200674A52F850
:10104000212092ED100ABDEEC00A10EE102AC2F364
:101050000722654B1A54614A52F8212092ED100A7A
:10106000BDEEC00A10EE102AD3B25F4C421CA3544E
:1010700000BF5A4850F821000078E0BB574850F8AC
:101080002100406B042821DC544A52F82120526B85
:101090000223C3EB4200514A52F8212092ED100A7C
:1010A000BDEEC00A10EE102AC2F307224C4B1A54B0
:1010B0004A4A52F8212092ED100ABDEEC00A10EE05
:1010C000102AD3B2464C421CA35400BF434850F8E8
:1010D0002100406B042823DD404A52F82120526B46
:1010E0000A23C3EB42003D4A52F8212092ED100A38
:1010F000BDEEC00A00E013E010EE102AC2F3072292
:10110000394B1A54354A52F8212092ED100ABDEE9F
:10111000C00A10EE102AD3B2334C421CA35400BFB5
:101120002E4850F82100007802284FD12B4850F863
:101130002100406B042821DC284A52F82120526B00
:101140000223C3EB4200254A52F8212092ED100AF7
:10115000BDEEC00A10EE102AC2F30722224B1A5429
:101160001E4A52F8212092ED100ABDEEC00A10EE80
:10117000102AD3B21C4C421CA35400BF174850F88D
:101180002100406B042821DD144A52F82120526BC3
:101190000A23C3EB4200114A52F8212092ED100AB3
:1011A000BDEEC00A10EE102AC2F307220F4B1A54EC
:1011B0000A4A52F8212092ED100ABDEEC00A10EE44
:1011C000102AD3B2094C421CA35400BF491C084842
:1011D00000688142FFF6E9AE0020ECE6744400208E
:1011E00018010020380100202001002028010020E3
:1011F0009800002010B5024800F0E6FD10BD000088
:10120000DC06002010B5024800F0DEFD10BD000035
:101210007C0600200146087810381823B0FBF3F252
:101220000848805CC865032A05D908686FF309007F
:10123000001D886503E008686FF309008865886D04
:1012400070470000386A0008014600208A6A8B69EE
:10125000CBB932B1012A0DD0022A03D0032A10D112
:101260000EE000BFCB6A03F08073B3F1807F00D142
:10127000012007E0CB6AB3F1C07F00D1012001E07B
:1012800000E000BF34E08B69B3F5005F1AD132B1E2
:10129000012A07D0022A03D0032A11D10AE000BF95
:1012A00001200EE0CB6A03F08073B3F1807F00D1A0
:1012B000012006E0CB6AB3F1C07F00D1012000E03D
:1012C00000BF15E032B1012A05D0022A04D0032A5A
:1012D0000CD103E000BF00BF012008E0CB6A03F09F
:1012E0008073B3F1807F00D1012000E000BF00BF18
:1012F000704730B50468246824F4802405682C60A5
:10130000046863608468402C04D10468A2600468A7
:10131000E16003E00468A1600468E26030BD7047EA
:1013200072B600BFFEE7000070B505460DB900209B
:1013300070BD142004F052FA04460CB90020F7E7FF
:1013400002F0A2F8A060284602F012FB206005F52A
:10135000D07002F00DFB6060A06818B1206808B181
:10136000606808B90020E3E7014804602046DFE731
:101370009000002010B5024692F82030012B01D0D9
:10138000022B06D110684069084314686061002090
:1013900010BD506A40F4802050620120F8E7F0B59B
:1013A00004460D461E4694F8207020688368A8689D
:1013B00000B900E000BF012F01D0022F7DD103F062
:1013C000806030B903F0006018B903F08050002845
:1013D0007ED0C3F30161012088403060A86860B905
:1013E000B5F800C0E86840EA4C5C206800F5C070C1
:1013F00000EB0110C0F800C00FE0D5E901C040EAE1
:10140000CC00D5F80CC040EA0C00D4F800C00CF5B4
:10141000C07C0CEB011CCCF80000D5F810C0206893
:1014200000F5C07000EB0110C0F804C0287D012851
:101430000ED1206800F5C07000EB0110406840F448
:10144000807C206800F5C07000EB0110C0F804C07B
:10145000D079000692F806C040EA0C4092F805C028
:1014600040EA0C2092F804C040EA0C00D4F800C016
:101470000CF5C07C0CEB011CCCF80C00D0780006FD
:1014800092F802C040EA0C4092F801C040EA0C20F9
:1014900092F800C040EA0C00D4F800C00CF5C07C03
:1014A0000CEB011CCCF80800206800F5C07000EBC4
:1014B0000110006840F0010C01E00FE008E0206836
:1014C00000F5C07000EB0110C0F800C00020F0BDB6
:1014D000606A40F4001060620120F8E7606A40F43E
:1014E000802060620120F2E7F0B504460A4694F8D5
:1014F0002050012D01D0022D7ED1424901F500710D
:10150000086840F001000860086820F47C5008601A
:101510000868566A40EA06200860107D00F01F0641
:10152000012000FA06F3C8699843C861A1F500716B
:10153000D069C8B9D1F80C029843C1F80C02908860
:1015400080B2968940EA064601F51070576940F866
:101550003760108880B2168940EA064601F510709F
:10156000576900EBC7004660D069012819D1D1F84E
:101570000C021843C1F80C02908880B2168840EA29
:10158000064601F51070576940F83760908980B2BF
:10159000168940EA064601F51070576900EBC7004E
:1015A0004660906928B9D1F804029843C1F8040252
:1015B00004E0D1F804021843C1F80402106928B904
:1015C000D1F814029843C1F8140204E0D1F81402CF
:1015D0001843C1F81402106A012804D1D1F81C0282
:1015E0001843C1F81C02D1F8000220F00100C1F834
:1015F00000020020F0BDFFE7606A40F480206062D6
:101600000120F7E700640040704770B5044694F885
:101610002050012D01D0022D7DD151B92068C06824
:1016200000F0030080B9606A40F40010606201209D
:1016300070BD2068006900F0030028B9606A40F4BA
:10164000001060620120F3E7206800F5D87000EB1D
:101650000110006800F004009060906840B92068B4
:1016600000F5D87000EB01100068400D106007E035
:10167000206800F5D87000EB01100068C0085060C9
:10168000206800F5D87000EB0110006800F002003F
:10169000D060206800F5D87000EB0110406800F0C1
:1016A0000F00082802D30820106108E0206800F528
:1016B000D87000EB0110406800F00F001061206846
:1016C00000F5D87000EB0110406800F47F40000A7C
:1016D0009061206800F5D87000EB01104068000CA4
:1016E0005061206800F5D87000EB01108068187018
:1016F000206800F5D87000EB0110806800F47F408E
:10170000000A5870206800F5D87000EB011080685E
:1017100000F47F0000E03CE0000C9870206800F5C9
:10172000D87000EB01108068000ED870206800F5BA
:10173000D87000EB0110C0681871206800F5D870EF
:1017400000EB0110C06800F47F40000A5871206867
:1017500000F5D87000EB0110C06800F47F00000CA9
:101760009871206800F5D87000EB0110C068000E79
:10177000D87131B92068C06840F020002668F06058
:1017800005E02068006940F02000266830610020F4
:101790004EE7606A40F480206062012048E72DE94E
:1017A000F05F04460025206846692068D0F8049060
:1017B000206887682068D0F80CA02068D0F810B0A6
:1017C0002068D0F8188006F00100002855D007F0F6
:1017D0000100C0B101202168886007F0020018B143
:1017E000204600F0EAFA0EE007F0040010B145F4DC
:1017F000006508E007F0080010B145F4805502E0EC
:10180000204600F0D9FA07F48070C8B14FF4807018
:101810002168886007F4007018B1204600F0CFFA04
:101820000EE007F4806010B145F4005508E007F4BD
:10183000006010B145F4804502E0204600F0BEFA99
:1018400007F48030C8B14FF480302168886007F415
:10185000003018B1204600F0B4FA0EE007F4802002
:1018600010B145F4004508E007F4002010B145F43C
:10187000803502E0204600F0A3FA06F0080038B1F7
:101880000AF0100020B145F4007510202168C860EE
:1018900006F0040040B10AF0080028B108202168D1
:1018A000C860204600F03CFA06F0020038B120681B
:1018B000C06800F0030010B1204600F033FA06F0D3
:1018C000400038B10BF0100020B145F480651020C5
:1018D0002168086106F0200040B10BF0080028B133
:1018E000082021680861204600F034FA06F0100054
:1018F00038B12068006900F0030010B1204600F004
:101900002AFA06F4003040B109F0100028B1102086
:1019100021684860204600F01FFA06F4803040B18C
:1019200009F0080028B1082021684860204600F02E
:1019300049FA06F4004088B309F0040078B306F4CD
:10194000807020B108F0010008B145F0010506F4EF
:10195000007020B108F0020008B145F0020506F45D
:10196000806020B108F0040008B145F0040506F4D9
:101970000060A0B108F0700088B108F07000402845
:1019800017D006DC10280BD020280CD0302819D115
:101990000CE0502810D0602814D110E01DE019E0B0
:1019A00045F008050FE045F010050CE045F0200576
:1019B00009E045F0400506E045F0800503E045F408
:1019C000807500E000BF00BF2068806920F07000D3
:1019D000216888610420216848602DB1606A28432D
:1019E00060622046FFF710FEBDE8F09F70B5044628
:1019F0000CB9012070BD94F8200010B9204600F009
:101A0000AFF82068006840F001002168086000F02D
:101A1000C5FC05460DE000F0C1FC401B0A2808D9B2
:101A2000606A40F400306062052084F820000120E4
:101A3000E0E72068406800F001000028EBD0206853
:101A4000006820F002002168086000F0A7FC05464D
:101A50000DE000F0A3FC401B0A2808D9606A40F49E
:101A600000306062052084F820000120C2E7206871
:101A7000406800F002000028EBD1207E012806D14A
:101A80002068006840F080002168086005E0206858
:101A9000006820F0800021680860607E012806D17F
:101AA0002068006840F040002168086005E0206878
:101AB000006820F0400021680860A07E012806D15F
:101AC0002068006840F020002168086005E0206878
:101AD000006820F0200021680860E07E012806D11F
:101AE0002068006820F010002168086005E0206888
:101AF000006840F0100021680860207F012806D1AE
:101B00002068006840F008002168086005E020684F
:101B1000006820F0080021680860607F012806D175
:101B20002068006840F004002168086005E0206833
:101B3000006820F0040021680860D4E9020108432D
:101B400021690843616908436168491E08432168A7
:101B5000C86100206062012084F82000002049E76D
:101B600010B586B00446142101A8FEF7F6FB6649BD
:101B70002068884259D165480068401C6349086064
:101B80000846006801280FD100BF0020009060487F
:101B9000006840F000705E4908600846006800F088
:101BA0000070009000BF00BF00BF002000905848A8
:101BB0001038006840F008005549103908600846A0
:101BC000006800F00800009000BF00BF03200190F3
:101BD0000220029000200390032004900920059029
:101BE00001A94C4800F0D0FA00220521132000F092
:101BF00093FC132000F07CFC00220521142000F04F
:101C00008BFC142000F074FC00220521152000F04C
:101C100083FC152000F06CFC00220521162000F04A
:101C20007BFC162000F064FC6CE03B492068884295
:101C300068D100BF002000903548006840F0806007
:101C4000334908600846006800F08060009000BFDB
:101C500000BF2E480068401C2C49086008460068F8
:101C600001280FD100BF002000902948006840F0F3
:101C70000070274908600846006800F00070009076
:101C800000BF00BF00BF002000902148103800684E
:101C900040F002001E49103908600846006800F054
:101CA0000200009000BF00BF60200190022002905F
:101CB00000200390032004900920059001A91748F3
:101CC00000F062FA002205213F2000F025FC3F20B1
:101CD00000F00EFC00220521402000F01DFC4020F9
:101CE00000F006FC00220521412000F015FC4120F7
:101CF00000F0FEFB00220521422000F00DFC4220F6
:101D000000F0F6FB06B010BD006400400C0000209F
:101D100040380240000C02400068004000040240CD
:101D20007047000010B5044600212046FEF7A2FED1
:101D300018B103A002F040FD10BD00BFFCE7000099
:101D400063616E2063616C6C6261636B20657272AB
:101D50006F720A0070477047704770B5044694F878
:101D60002000012822D1022084F820002068006889
:101D700020F001002168086000F010FB05460DE02E
:101D800000F00CFB401B0A2808D9606A40F40030C0
:101D90006062052084F82000012070BD2068406842
:101DA00000F001000028EBD16062F6E7606A40F4C1
:101DB000002060620120F0E770477047704770476D
:101DC0007047704770470000F8B504460020009047
:101DD0008C4800684FF41651B0FBF1F7A56D2E68E2
:101DE00094F85C1008208840304098B12068006862
:101DF00000F0040070B12068006820F00400216841
:101E0000086094F85C1008208840A860606D40F07D
:101E10000100606594F85C1001208840304068B192
:101E20002068406900F0800040B194F85C10012007
:101E30008840A860606D40F00200606594F85C1016
:101E400004208840304068B12068006800F002003B
:101E500040B194F85C1004208840A860606D40F0A8
:101E60000400606594F85C1010208840304078B31E
:101E70002068006800F0080050B394F85C1010204F
:101E80008840A8602068006800F4802080B1206845
:101E9000006800F4002028B9206CC8B12046216CED
:101EA000884715E0A06C98B12046A16C88470FE0E8
:101EB0002068006800F4807028B92068006820F06D
:101EC000080021680860206C10B12046216C88470A
:101ED00094F85C10202088403040002865D02068AD
:101EE000006800F0100000285FD094F85C102020FB
:101EF0008840A86094F83500052828D1206800683B
:101F000020F01600216808602068406920F08000F9
:101F100021684861206C08B9A06C28B1206800686D
:101F200020F008002168086094F85C103F20884089
:101F3000A860012084F8350000BF002084F8340038
:101F400000BF206D10B12046216D8847F8BD206884
:101F5000006800F4802080B12068006800F4002050
:101F600028B9606C10B12046616C88471DE0E06BB9
:101F7000D8B12046E16B884717E02068006800F47C
:101F8000807068B92068006820F01000216808603F
:101F9000012084F8350000BF002084F8340000BF21
:101FA000E06B10B12046E16B8847606D38B3606D1F
:101FB00000F00100F0B1052084F8350020680068C9
:101FC00020F001002168086000BF0098401C0090CC
:101FD000B84200D905E02068006800F00100002840
:101FE000F3D100BF012084F8350000BF002084F841
:101FF000340000BFE06C10B12046E16C884700BFA0
:10200000A4E700001C0000202DE9F0410446002553
:1020100000F0C4F9074614B90120BDE8F081606AF8
:1020200000B100BF022084F8350000BF002084F812
:10203000340000BF2068006820F0010021680860BB
:102040000AE000F0ABF9C01B052805D92020606527
:10205000032084F83500E0E72068006800F0010004
:102060000028EED12068056821480540D4E9010127
:102070000843E16808432169084361690843A1698D
:102080000843E1690843216A08430543606A04285C
:1020900003D1D4E90B01084305432068056020689B
:1020A000456925F00705606A0543606A04280DD17B
:1020B000A06A0543E06A48B12046FFF7C5F828B199
:1020C00040206065012084F83500A6E7206845615E
:1020D0002046FFF79FF8064694F85C103F208840A2
:1020E000B06000206065012084F83500002094E78E
:1020F0003F8010F02DE9F04704460D4616461F4676
:102100004FF00008D4F8589000BF94F8340001282C
:1021100002D10220BDE8F087012084F8340000BF1E
:1021200094F83500012825D1022084F835000020DC
:1021300060653B46324629462046FFF7DAF894F8B8
:102140005C103F208840C9F808002068006840F013
:10215000160021680860206C28B12068006840F0F3
:102160000800216808602068006840F001002168CC
:10217000086006E000BF002084F8340000BF4FF084
:1021800002084046C6E70000F8B502460B460025A7
:10219000002400200021D6E0012606FA01F51E6881
:1021A00006EA0504AC4274D11E7906F00306012E3E
:1021B00004D01E7906F00306022E13D190684F005A
:1021C0000326BE40B0434F00DE68BE4030439060FF
:1021D000506801268E40B0431E79C6F300168E402B
:1021E000304350601E7906F00306032E09D0D068F4
:1021F0004F000326BE40B0434F009E68BE403043B0
:10220000D0601E7906F00306022E13D1CF0802F12A
:10221000200656F827004E07F70E0F26BE40B043A3
:102220004F07FF0E1E69BE403043CF0802F1200663
:1022300046F8270010684F000326BE40B0431E79C1
:1022400006F003064F00BE40304310605E6806F49F
:102250004036002E76D000BF002600963C4E3668F1
:1022600046F480463A4F3E603E46366806F4804665
:10227000009600BF00BF374E8F0856F827008E0724
:10228000370F0F26BE40B043334EB24202D1002674
:1022900024E057E0314EB24201D101261EE0304E1B
:1022A000B24201D1022619E02E4EB24201D10326DC
:1022B00014E02D4EB24201D104260FE02B4EB24263
:1022C00001D105260AE02A4EB24201D1062605E0D8
:1022D000284EB24201D1072600E008268F073F0FA3
:1022E000BE4030431B4E8F0846F82700224E306810
:1022F000A0435E6806F4801606B120431E4E30608F
:10230000361D3068A0435E6806F4001606B120430F
:10231000194E361D3060184E361F3068A0435E6877
:1023200006F4003606B12043134E361F3060361FC8
:102330003068A0435E6806F4803606B120430E4E36
:10234000083E3060491C1029FFF426AFF8BD00009C
:1023500044380240083801400000024000040240B6
:1023600000080240000C024000100240001402402D
:1023700000180240001C0240083C014010B54269B0
:1023800021EA020302EA010443EA0443836110BD27
:102390000AB1816101E00B04836170470148006864
:1023A00070470000100000200348006803490978C6
:1023B0000844014908607047100000201800002000
:1023C00010B50D48006840F400700B4908600846DD
:1023D000006840F4806008600846006840F480703F
:1023E0000860032000F0D6F80F2000F007F800F096
:1023F00055F8002010BD0000003C0240F0B587B049
:1024000004460026002700BF002000901E480068F8
:1024100040F001001C4908600846006800F0010017
:10242000009000BF00BF01A902A800F089F900F0E8
:10243000BFF946001548B6FBF0F0471E1448154991
:10244000086040F2E7311348C16047600021016134
:102450008160816100F064FC054695B90D4800F08B
:1024600093FC05466DB9192000F042F8102C07D2F4
:1024700000222146192000F04FF80748046000E0D0
:102480000125284607B0F0BD4438024040420F0005
:10249000000001403C0700201400002008B500BFE8
:1024A000002000901148006840F480400F49086007
:1024B0000846006800F48040009000BF00BF00BFE5
:1024C00000200090081F006840F08050091F08603D
:1024D0000846006800F08050009000BF00BF002256
:1024E0000F21901E00F018F808BD0000443802408B
:1024F0000146084600280DDB00BF00BF00F01F03A7
:1025000001229A4043099B0003F1E023C3F8002114
:1025100000BF00BF00BF70472DE9F05F80460D4649
:102520001646002702F068F9074639462A46334620
:1025300001F00700C0F1070ABAF1040F02D94FF009
:10254000040A01E0C0F1070AD14600F1040ABAF119
:10255000070F02D24FF0000A01E0A0F1030AD446AF
:102560004FF0010A0AFA09FAAAF1010A0AEA020A74
:102570000AFA0CFA4FF0010B0BFA0CFBABF1010B52
:102580000BEA030B4AEA0B042146404602F03CF9F1
:10259000BDE8F09F00BF00F00702064B19684FF638
:1025A000FF031940044B0B4343EA0221014B19601E
:1025B00000BF70470CED00E00000FA0570B504465E
:1025C0000D460CB9012070BD5848006800F00700A6
:1025D000A84209D255490D700846006800F007006E
:1025E000A84201D00120EEE7207800F00200022886
:1025F0001DD1207800F00400042805D14C48006863
:1026000040F4E0504A490860207800F008000828AB
:1026100005D14748006840F4604045490860444897
:10262000006820F0F000A168084341490860207864
:1026300000F00100A8B36068012807D13C480838C1
:102640000068C0F34040B8B90120BCE760680228C8
:1026500002D06068032807D1354808380068C0F305
:10266000406048B90120AEE7314808380068C0F33F
:10267000400008B90120A6E72D48006820F00300BB
:10268000616808432A490860FFF788FE064609E0AA
:10269000FFF784FE801B41F28831884202D9032073
:1026A00091E707E02248006800F00C006168B0EB99
:1026B000810FEDD11D48006800F00700A84209D93C
:1026C0001A490D700846006800F00700A84201D0C2
:1026D000012078E7207800F00400042807D114488E
:1026E000006820F4E050E168084311490860207850
:1026F00000F00800082808D10D48006820F4604068
:10270000216940EAC1000A49086000F061F80849FF
:102710000968C1F30311074A515CC84006490860C3
:1027200006480068FFF76AFE00204CE7003C0240C4
:1027300008380240406A00081C00002014000020F5
:102740000F2202600D4A126802F0030242600B4A37
:10275000126802F0F0028260084A126802F4E05245
:10276000C260064A126802F46042D2080261044A5A
:10277000126802F007020A60704700000838024041
:10278000003C024001480068704700001C00002027
:1027900000B5FFF7F7FF04490968C1F38221034A36
:1027A000515CC84000BD000008380240506A000873
:1027B00000B5FFF7E7FF04490968C1F34231034A56
:1027C000515CC84000BD000008380240506A000853
:1027D0002DE9F047002400250026A1462548006881
:1027E00000F00C0020B1042805D008283AD105E0FB
:1027F000DFF8849039E0DFF8849036E01D48001F50
:10280000006800F03F041B48001F006800F48000CF
:1028100078B11A481749091F0968C1F38811A0FB4C
:1028200001700146224600233846FDF72BFD054680
:102830000EE011480F49091F0968C1F38811A0FB78
:1028400001700146224600233846FDF71BFD054670
:102850000848001F0068C0F30140401C4600B5FB5B
:10286000F6F902E0DFF8109000BF00BF4846BDE86F
:10287000F0870000083802400024F400001BB70075
:10288000F8B504460CB90120F8BD207800F001002D
:10289000002874D0F948006800F00C0004280DD01E
:1028A000F648006800F00C00082813D1F348001F18
:1028B000006800F48000B0F5800F0BD1EF480838B5
:1028C0000068C0F34040002859D06068002856D105
:1028D0000120D9E700BF6068B0F5803F08D1E74824
:1028E0000838006840F48030E449083908601EE088
:1028F0006068B0F5A02F0DD1E0480838006840F4BA
:102900008020DE49083908600846006840F48030BD
:1029100008600CE0D9480838006820F48030D749B6
:10292000083908600846006820F48020086000BF6D
:10293000606890B1FFF732FD054606E0FFF72EFD17
:10294000401B642801D903209EE7CC480838006862
:10295000C0F340400028F1D011E0FFF71FFD05460D
:1029600006E0FFF71BFD401B642801D903208BE71D
:10297000C24808380068C0F340400028F1D12078F0
:1029800000F0020002285FD1BC48006800F00C0093
:1029900058B1BA48006800F00C0008281CD1B748AC
:1029A000001F006800F48000B0B9B448083800681F
:1029B000C0F3400020B1E068012801D0012063E7A6
:1029C000AE480838006820F0F800216940EAC100EC
:1029D000AA490839086037E0E06800B30120A84937
:1029E0000860FFF7DBFC054606E0FFF7D7FC401B5D
:1029F000022801D9032047E7A04808380068C0F33F
:102A000040000028F1D09D480838006820F0F80008
:102A1000216940EAC10099490839086014E00020A2
:102A200097490860FFF7BAFC054606E0FFF7B6FCD9
:102A3000401B022801D9032026E790480838006887
:102A4000C0F340000028F1D1207800F008000828E9
:102A50002CD16069A8B101208A490860FFF79EFC6B
:102A6000054606E0FFF79AFC401B022801D9032027
:102A70000AE782486C300068C0F340000028F1D0BB
:102A800014E000207F490860FFF788FC054606E057
:102A9000FFF784FC401B022801D90320F4E67748A5
:102AA0006C300068C0F340000028F1D1207800F0BD
:102AB0000400042870D1002770483830006800F006
:102AC000805090B900BF002000906C4838300068FA
:102AD00040F080506949383108600846006800F0CD
:102AE0008050009000BF00BF01276748006800F4D5
:102AF0008070B0B96448006840F480706249086032
:102B0000FFF74CFC054606E0FFF748FC401B022897
:102B100001D90320B8E65C48006800F48070002802
:102B2000F2D000BFA068012808D15448683000687E
:102B300040F001005149683108601DE0A068052897
:102B40000DD14E486830006840F004004B496831B0
:102B500008600846006840F0010008600CE0474843
:102B60006830006820F00100444968310860084678
:102B7000006820F00400086000BFA068A8B1FFF75B
:102B80000DFC054609E0FFF709FC401B41F28831C6
:102B9000884202D9032077E626E03848683000688A
:102BA000C0F340000028EED013E0FFF7F7FB054626
:102BB00008E0FFF7F3FB401B41F28831884201D95E
:102BC000032061E62D4868300068C0F3400000280B
:102BD000EFD1012F07D129483830006820F080500C
:102BE00026493831086000BFA069002845D0234835
:102BF000006800F00C0008285DD0A069022845D1CB
:102C000000201F490866FFF7C9FB054606E0FFF7ED
:102C1000C5FB401B022801D9032035E617480838B8
:102C20000068C0F340600028F1D1D4E907010843EF
:102C3000616A40EA81110122A06AC2EB500041EAB8
:102C400000412C20005D41EA00600C49091F08602A
:102C500001200B490866FFF7A1FB054606E0FFF7D8
:102C60009DFB401B022801D903200DE603480838CC
:102C70000068C0F340600028F1D049E00838024005
:102C800000004742800E474200700040002021496A
:102C90000866FFF783FB054606E0FFF77FFB401B56
:102CA000022801D90320EFE51B480068C0F340600B
:102CB0000028F2D12CE0A069012800D1E4E51648F3
:102CC000001D0668A069012820D006F48001E06993
:102CD00081421BD106F03F01206A814216D147F69E
:102CE000C0703040616AB0EB811F0FD106F44031F3
:102CF0000122A06AC2EB5000B1EB004F06D106F0F2
:102D000070612C20005DB1EB006F01D00120BBE5AC
:102D10000020B9E500004742003802407047704784
:102D200010B504460CB9012010BD94F83D0028B937
:102D3000002084F83C00204600F025F8022084F8AA
:102D40003D00211D206801F011F8012084F84600A3
:102D500000BF84F83E0001213F200155402001556D
:102D60004120015500BF00BF012084F842004320EC
:102D70000155442001554520015500BF012084F82C
:102D80003D000020D0E77047014691F83D00012842
:102D900001D001207047022081F83D000868C0681A
:102DA00040F001000B68D8601A4B086898421BD0AD
:102DB0000868B0F1804F17D0174B0868984213D0BD
:102DC000164B086898420FD0154B086898420BD0F4
:102DD000144B0868984207D0134B0868984203D0F8
:102DE000124B086898420CD10868806800F007020E
:102DF000062A0CD00868006840F001000B681860D3
:102E000005E00868006840F001000B6818600020C9
:102E1000C0E700000000014000040040000800403E
:102E2000000C004000040140004001400018004038
:102E3000704770B504462068C5682068066906F0CA
:102E40000200022819D105F00200022815D1401F06
:102E500021680861012020772068806900F0030064
:102E600018B12046FFF7E4FF05E0204600F097F890
:102E7000204600F095F80020207706F00400042892
:102E800019D105F00400042815D1C0432168086158
:102E9000022020772068806900F4407018B1204635
:102EA000FFF7C6FF05E0204600F079F8204600F065
:102EB00077F80020207706F00800082819D105F0DF
:102EC0000800082815D1C043216808610420207734
:102ED0002068C06900F0030018B12046FFF7A8FF82
:102EE00005E0204600F05BF8204600F059F800208D
:102EF000207706F01000102819D105F010001028D6
:102F000015D1C04321680861082020772068C06976
:102F100000F4407018B12046FFF78AFF05E0204614
:102F200000F03DF8204600F03BF80020207706F046
:102F3000010048B105F0010030B16FF001002168D7
:102F40000861204600F02EF806F08000802809D1A4
:102F500005F08000802805D1C04321680861204623
:102F6000FFF7DCFE06F04000402809D105F04000E4
:102F7000402805D1C04321680861204600F01EF8B2
:102F800006F02000202809D105F02000202805D1D6
:102F9000C043216808612046FFF7C1FE70BD70473D
:102FA0007047000010B5044603492068884201D1EB
:102FB000FFF7FAF910BD0000000001407047F8B5B6
:102FC00004460D46164694F8420020282DD105B13E
:102FD0000EB90120F8BD0120206300206063324655
:102FE0002946204601F0C4F90746206B012819D173
:102FF00000BF0020009020680068009020684068B2
:10300000009000BF00BF00BF00BF21680C3151E835
:10301000001F41F0100021680C3141E80002002A35
:10302000F3D100E001273846D4E70220D2E7704709
:10303000704710B5044604B910BD204601F05AFA95
:1030400000B1F9E700BFF7E710B504460CB901205D
:1030500010BDA06900B100E000BF94F8410028B99C
:10306000002084F84000204600F02AF8242084F84C
:1030700041002068C06820F400502168C8602046E4
:1030800001F060F82068006920F490402168086130
:103090002068406920F02A00216848612068C068E3
:1030A00040F400502168C86000206064202084F84B
:1030B000410084F842000020606300BFC8E70000C0
:1030C00010B586B00446142101A8FDF746F96E49F3
:1030D0002068884277D100BF002000906B480068CC
:1030E00040F01000694908600846006800F01000D0
:1030F000009000BF00BF00BF00200090634814385C
:10310000006840F002006149143908600846006810
:1031100000F00200009000BF00BF00BF0020009040
:103120000846006840F0010008600846006800F0AA
:103130000100009000BF00BF80200190022002909B
:1031400000200390032004900720059001A9504817
:10315000FFF71AF84FF4007001900220029000204F
:103160000390032004900720059001A94948FFF728
:103170000BF84948494908604FF000604860002159
:1031800046488160C1604FF4806101610021416166
:103190008161C1614FF40031016200214162FEF79B
:1031A00033FF08B1FEF7BCF800BF3C48E06384631E
:1031B00000BF002205212520FFF7AEF92520FFF7EB
:1031C00097F95FE0FFE73649206888425AD100BF8F
:1031D000002000902D48001F006840F480202B49FB
:1031E000091F08600846006800F48020009000BFB6
:1031F00000BF00BF0020009024481438006840F051
:1032000004002249143908600846006800F00400F0
:10321000009000BF00BF4FF4406001900220029078
:1032200000200390032004900720059001A91D4869
:10323000FEF7AAFF1C481D4908604FF00060486077
:1032400000211A488160C1604FF480610161002152
:1032500041618161C1614FF44031016200214162ED
:10326000FEF7D2FE08B1FEF75BF800BF0F48E0633F
:10327000846300BF002205212720FFF74DF9272096
:10328000FFF736F906B010BD001001404438024087
:103290000004024000000240406402407C0600201E
:1032A000004800400008024028600240DC06002080
:1032B000704770472DE9F84F04460E461746994669
:1032C0004FF0000A94F84100202850D106B117B9F8
:1032D0000120BDE8F88F00206064212084F84100BF
:1032E000FFF75CF88246A784E784A068B0F5805FAA
:1032F00004D1206910B90025B04602E035464FF0F0
:1033000000081EE05346002280212046CDF80090A0
:1033100001F09AF820B1202084F841000320D8E77A
:1033200045B9B8F80000C0F308002168486008F10A
:10333000020803E02878216848606D1CE08C401E7C
:10334000E084E08C0028DDD1534600224021204655
:10335000CDF8009001F078F820B1202084F84100E9
:103360000320B6E7202084F841000020B1E70220C6
:10337000AFE70000F7B50446154694F84100202851
:103380003ED1019800B10DB90120FEBD0198206227
:10339000A584E58400206064212084F84100194858
:1033A000A16BC8631848A16B08641848A16BC86476
:1033B0000020A16B086501AE23681A1D31682B46F9
:1033C000A06BFEF797FE30B110206064202084F8D7
:1033D00041000120D9E76FF040002168086000BF7C
:1033E00000BF2168143151E8001F41F080002168BE
:1033F000143141E80002002AF3D100BF0020C4E7E5
:103400000220C2E7753F0008CD3F00084D3E00088E
:103410007047704700BFFEE72DE9F04105460C46B6
:1034200017460DB104B137B911A001F0C5F94FF03D
:10343000FF30BDE8F0812E46A37F627F217FE07ED2
:1034400002F016F9354686ED050AA37C627C217CE4
:10345000E07B02F00DF986ED020AA37E627E217EFA
:10346000E07D02F005F986ED040A0020E1E70000A6
:10347000696D752064636F646520706172616D2091
:103480006572726F720A000010B586B0142212497C
:1034900001A8FCF749FF2C2002F0A0F904462C21DA
:1034A0002046FCF75AFF059401A800F0DFFDA0625A
:1034B000A06A28B909A001F07FF9002006B010BD6C
:1034C0000C4801680068401C0A4A10600A4840F82D
:1034D00021402046F2E7000000790008696D752060
:1034E0007561727420696E6974206572726F720AF8
:1034F000000000003C010020B044002010B510483E
:10350000104908600320486000210E488160C160B6
:103510004FF4102101614FF4001141610021017647
:1035200001214176002181760121C17600210177B8
:103530004177FEF75BFA08B1FDF7F2FE10BD00001F
:10354000006400409C05002010B50E480E4908603C
:103550000320486000210C488160C1604FF41021B5
:1035600001614FF4001141610021017641768176BD
:10357000C17601774177FEF739FA08B1FDF7D0FE41
:1035800010BD000000680040C405002008B500BF61
:10359000002000901648006840F4001014490860AC
:1035A0000846006800F40010009000BF00BF00BF94
:1035B000002000900846006840F48000086008463B
:1035C000006800F48000009000BF00BF00220521C9
:1035D0000C20FEF7A1FF0C20FEF78AFF0022052138
:1035E0003A20FEF799FF3A20FEF782FF08BD00005F
:1035F0003038024000B595B01C2212490EA8FCF7E5
:1036000093FE00210EA802F024F90F4908601C2245
:103610000C491C3107A8FCF787FE002107A802F01F
:1036200018F90A4908601C22064938316846FCF737
:103630007BFE0021684602F00CF90549086015B0D0
:1036400000BD0000E4690008000000200400002024
:103650000800002000B587B0142102A8FCF77DFE09
:1036600000BF002001902F48006840F002002D4963
:1036700008600846006800F00200019000BF00BF2B
:1036800000BF002001900846006840F0010008607B
:103690000846006800F00100019000BF00BF00BFB5
:1036A000002001900846006840F0080008600846C5
:1036B000006800F00800019000BF00BF00BF0020BC
:1036C00001900846006840F0040008600846006861
:1036D00000F00400019000BF00BF00BF0020019077
:1036E0000846006840F0800008600846006800F066
:1036F0008000019000BF00BF00224FF4E0510A4853
:10370000FEF746FE4FF4E0500290012003900220A5
:1037100004900020059002A90348FEF735FD07B08C
:1037200000BD000030380240001C024010B50B48BC
:103730000B4908604FF4E13048600021084881607F
:10374000C16001610421416100218161C161FFF714
:103750007BFC08B1FDF7E4FD10BD00000010014046
:10376000EC05002010B50B480B4908600B48486079
:10377000002109488160C1604FF48061016104212A
:10378000416100218161C161FFF75EFC08B1FDF775
:10379000C7FD10BD0048004034060020A08601008F
:1037A00000BFFEE770B52DED028B6E48006820B9B2
:1037B0004FF0FF30BDEC028B70BD0024C9E06A48B9
:1037C00050F8240090ED010AB0EE408A9FED670AA0
:1037D000F0EE408A644850F82400007800287CD13C
:1037E000614850F82400D0F86C5185ED108A5E488D
:1037F00050F8240090F84201012810D15A4850F89E
:103800002400D0F8500150B995ED100A564850F8F0
:103810002400D0ED570A20EE200A85ED100A524808
:1038200050F8240090F84201022810D14E4850F878
:103830002400D0F8540150B995ED100A4A4850F8C8
:103840002400D0ED580A20EE200A85ED100A4648E3
:1038500050F8240090F84201042810D1424850F852
:103860002400D0F8580150B995ED100A3E4850F8A0
:103870002400D0ED590A20EE200A85ED100A3A48BE
:1038800050F8240090F8410100F0040088B1364857
:1038900050F8240080ED168AD5ED090AB0EE600AD2
:1038A000314951F8241001F1080002F001F8B0EE9E
:1038B000408A2D4850F8240090F8410100F00200A1
:1038C000B8B1294850F8240080ED308AB5F90810C5
:1038D00000EE901AF8EEE00A00E039E0B0EE600A7F
:1038E000214951F8241001F1700001F0E1FFB0EE20
:1038F000408A1D4850F8240090F8410100F0010072
:10390000A8B1194850F8240080ED4A8AB5F9101082
:1039100000EE901AF8EEE00AB0EE600A124951F893
:10392000241001F1D80001F0C3FFB0EE408A0E4828
:1039300050F8240090F84501012806D195ED100AB1
:1039400030EE080A85ED100A01E085ED108A00BF0F
:10395000641C044800688442FFF631AFFDF722FB87
:10396000002027E740010020BC44002000000000A8
:1039700070B5054625B924A000F01EFF002070BDDB
:103980004FF4BE7001F02AFF044624B924A000F0D1
:1039900013FF0020F3E72878207095F8690184F878
:1039A000690195F8680184F8680195ED010A84EDD4
:1039B000010A4FF49C7205F1080104F10800FCF7BC
:1039C000B3FC04F58070B5F84011A4F84011202232
:1039D00005F5A4714830FCF7A7FCD5F84211C4F8EE
:1039E0004211207828B905F5B670FDF76DFAC4F8D4
:1039F0006C01124801680068401C104A10601048B1
:103A000040F821402046BAE76D6F746F72207265EE
:103A1000676973746572206572726F720A000000C4
:103A20006D6F746F7220696E7374616E6365206D63
:103A3000616C6C6F63206572726F720040010020D0
:103A4000BC44002010B5FFF7ADFEFDF78DFA10BDA8
:103A500000BFFEE790ED0A0AB5EEC00AF1EE10FADB
:103A600000D1704790ED0B0AB5EEC00AF1EE10FAE6
:103A70000CDD90ED0B0AD0ED0A0AB4EEE00AF1EE8F
:103A800010FA03D29FED0D0A80ED0B0A90ED0B0AA0
:103A9000B5EEC00AF1EE10FA0ED290ED0B0AD0EDA1
:103AA0000A0AF1EE600AB4EEE00AF1EE10FA03DD64
:103AB0009FED020A80ED0B0A00BFD2E70000000074
:103AC00010B5044694ED080AB5EEC00AF1EE10FAFE
:103AD00003D112A000F070FE10BD94ED050AD4EDE4
:103AE000080AB4EEE00AF1EE10FA03DD94ED080ADC
:103AF00084ED050A94ED050AD4ED080AF1EE600A9A
:103B0000B4EEE00AF1EE10FA05D294ED080AB1EE37
:103B1000400A84ED050A00BFDEE70000696C696DAC
:103B20006974206973206E6F696E69740A00000001
:103B300090ED090AB5EEC00AF1EE10FA00D1704717
:103B400090ED0B0AD0ED090AB4EEE00AF1EE10FA9E
:103B500003DD90ED090A80ED0B0A90ED0B0AD0ED24
:103B6000090AF1EE600AB4EEE00AF1EE10FA05D2AD
:103B700090ED090AB1EE400A80ED0B0A00BFDEE7C6
:103B800010B5044694ED160AB5EEC00AF1EE10FA2F
:103B900003D10CA000F010FE10BD94ED0B0AD4ED83
:103BA000160A20EE200AD4ED0C0A94ED161AF7EE50
:103BB000001A31EEC11A00EE810A84ED0B0A00BF33
:103BC000EAE700004F75745075745F4C50465F52C1
:103BD00043206973206E6F20696E69740A000000CB
:103BE00070B505460DB9002070BD0C2001F0F6FD42
:103BF00004462846FFF7BCFE206005F5D070FFF7AD
:103C0000B7FE606005F55070FFF7B2FEA060206857
:103C100018B1606808B1A06808B90020E4E702485C
:103C200004602046E0E700009400002000BF32203E
:103C300002F09AFBFBE7000000BF4FF480610348ED
:103C4000FEF79CFB322002F08FFBF6E7001C0240DF
:103C500000BFFFF7F7FE052002F086FBF9E7000042
:103C600010B500BF502080F31188BFF34F8FBFF312
:103C70006F8F00BF02F090FD18B14FF080500449E3
:103C8000086000BF002080F3118800BF10BD000055
:103C900004ED00E000B593B0302107A8FCF75DFB10
:103CA000142102A8FCF759FB00BF00200190244812
:103CB000006840F08050224908600846006800F023
:103CC0008050019000BF00BF00BF002001901D4840
:103CD000006840F480401B4908600846006800F412
:103CE0008040019000BF00BF0120079000040890B1
:103CF00002200D9041050E9106210F91A8211091EF
:103D0000022111910421129107A8FEF7B9FD08B113
:103D1000FDF706FB0F200290022003900020049084
:103D20004FF4A05005904FF480500690052102A852
:103D3000FEF744FC08B1FDF7F3FA13B000BD000034
:103D400040380240007000400348006840F47000B2
:103D5000014908607047000088ED00E010B5024896
:103D6000FFF767F810BD00003C07002010B502689F
:103D70002B4B98420ED0B0F1804F0BD0294B98427C
:103D800008D0294B984205D0284B984202D0284BA6
:103D9000984203D122F070024B681A43204B98429C
:103DA00020D0B0F1804F1DD01E4B98421AD01E4B30
:103DB000984217D01D4B984214D01D4B984211D0F9
:103DC0001C4B98420ED01C4B98420BD01B4B984278
:103DD00008D01B4B984205D01A4B984202D01A4B80
:103DE000984203D122F44072CB681A4322F0800338
:103DF0004C6943EA04028B68C3620B688362084B18
:103E0000984202D00A4B984201D10B6903630368C0
:103E100043F00403036001234361026010BD00000E
:103E2000000001400004004000080040000C004079
:103E300000040140004001400044014000480140AE
:103E400000180040001C00400020004070B50646ED
:103E50000025B46B20684069C0F3C01594F8410098
:103E6000212805D125B10020E084204600F0EBF8A0
:103E700020684069C0F3801594F84200222805D1DB
:103E800025B10020E085204600F0A7F8606C40F0E6
:103E9000100060642046FFF7CBF870BD70B5054692
:103EA000AC6B2868006800F48070002842D1E0857F
:103EB00000BF00BF21680C3151E8001F21F4807061
:103EC00021680C3141E80002002AF3D100BF00BF95
:103ED00000BF2168143151E8001F21F00100216862
:103EE000143141E80002002AF3D100BF00BF00BF37
:103EF0002168143151E8001F21F04000216814317D
:103F000041E80002002AF3D100BF202084F84200DB
:103F1000206B01280ED100BF00BF21680C3151E891
:103F2000001F21F0100021680C3141E80002002A36
:103F3000F3D100BF00206063206B012804D1A18D64
:103F40002046FFF774F802E02046FFF7B1F970BD94
:103F500070B50546AC6B01206063206B012805D16C
:103F6000A08D41082046FFF762F802E02046FFF7E7
:103F7000A0F970BD70B50546AC6B2868006800F408
:103F80008070F8B90020E08400BF00BF21681431C0
:103F900051E8001F21F080002168143141E800023F
:103FA000002AF3D100BF00BF00BF21680C3151E8E7
:103FB000001F41F0400021680C3141E80002002A56
:103FC000F3D102E02046FFF723FA70BD70B5044636
:103FD000A56B2846FFF71DFA70BD00BF00BF026841
:103FE0000C3252E8002F22F4907102680C3242E841
:103FF0000013002BF3D100BF00BF00BF02681432D2
:1040000052E8002F22F001010268143242E8001346
:10401000002BF3D100BF016B01290ED100BF00BFFF
:1040200002680C3252E8002F22F0100102680C32B4
:1040300042E80013002BF3D100BF202180F842108A
:1040400000210163704700BF00BF02680C3252E8D4
:10405000002F22F0C00102680C3242E80013002B4E
:10406000F3D100BF202180F84110704770B505469C
:104070000DB9002070BD2C2001F0B0FB044624B91E
:104080001EA000F099FB0020F4E72C212046FCF74D
:1040900064F9288960812878207068686060E86821
:1040A000E0612869A0621C496068884201D11B4810
:1040B00020611B496068884201D11A48206120783C
:1040C00018B919482062194860622078012805D182
:1040D00017482062174860621748A0618022636A0F
:1040E000216960689847154801680068401C134AB8
:1040F0001060134840F821402046BBE77561727498
:104100005F696E7374616E6365206D616C6C6F6363
:10411000206572726F720A00EC050020984500203D
:1041200034060020184600206D4700086547000847
:104130001D470008E5460008F54400083403002048
:10414000704500202DE9F84F04462068006920F4EE
:104150004050E1680843216808612169A06808436C
:1041600061690843E169084300902068C06849F22A
:104170000C618843009908432168C8602068406941
:1041800020F44070A169084321684861764920689D
:10419000884203D075492068884203D1FEF708FBA6
:1041A000814602E0FEF7F4FA8146E069B0F5004F7F
:1041B0006CD102206168A0FB015003461920A9FBC5
:1041C000007001462A463846FCF75CF86421B0FBD3
:1041D000F1F04FEA001A02206168A0FB01510B4682
:1041E0001920A9FB00712A463846FCF74BF8834694
:1041F00002206168A0FB015003461920A9FB007151
:104200002A463846FCF73EF86421B0FBF1F000EB9B
:10421000C00101EB0010ABEB8000322101EBC000CC
:104220006421B0FBF1F000F0F8000AEB400A022034
:104230006168A0FB015003461920A9FB00700146EC
:104240002A463846FCF71EF8834602206168A0FB28
:10425000015003461920A9FB00712A463846FCF795
:1042600011F86421B0FBF1F000EBC00101EB00108C
:10427000ABEB8000322101EBC0006421B0FBF1F018
:1042800000F007005044216888606AE004206168FB
:10429000A0FB015003461920A9FB007001462A46E5
:1042A0003846FBF7EFFF824604206168A0FB01500F
:1042B00003461920A9FB007001462A463846FBF741
:1042C000E1FF6421B0FBF1F000EBC00101EB001055
:1042D000AAEB8000322101EB00106421B0FBF1F069
:1042E00000F0F00A04206168A0FB01700346192069
:1042F000A9FB00513A462846FBF7C4FF6421B0FBF6
:10430000F1F00AEB001A04206168A0FB01510B4692
:104310001920A9FB00712A463846FBF7B3FF8346F4
:1043200004206168A0FB015003461920A9FB00701E
:1043300001462A463846FBF7A5FF6421B0FBF1F0A1
:1043400000EBC00101EB0010ABEB8000322101EB70
:1043500000106421B0FBF1F000F00F005044216820
:104360008860BDE8F88F0000001001400014014093
:1043700077B581B0044615460298A062A585002055
:104380006064222084F842002C48E16BC8632C480A
:10439000E16B08642B48E16BC8640020E16B0865A1
:1043A00002AE32682368191D2B46E06BFDF7A2FEB2
:1043B00038B110206064202084F84200012004B04D
:1043C00070BD00BF00200090206800680090206849
:1043D0004068009000BF00BF206970B100BF00BFFF
:1043E00021680C3151E8001F41F4807021680C31C4
:1043F00041E80002002AF3D100BF00BF00BF2168DE
:10440000143151E8001F41F001002168143141E8E6
:104410000002002AF3D100BF00BF00BF21681431A1
:1044200051E8001F41F040002168143141E80002CA
:10443000002AF3D100BF0020C1E700009D3E000824
:10444000513F00084D3E00082DE9F84304460D4653
:1044500017469846089E31E0701C70B3FDF79EFF2A
:10446000A0EB0800B04200D816B90320BDE8F883DD
:104470002068C06800F00400F8B1802D1ED0402DE7
:104480001CD020680068C0F3C000B0B100BF00209D
:10449000009020680068009020684068009000BF8D
:1044A00000BF2046FFF799FD0820606400BF002090
:1044B00084F8400000BF0120D8E7FFE720680068CB
:1044C0002840A84201D1012000E00020B842C3D01A
:1044D0000020CBE710B50248FEF7ABFD10BD000091
:1044E000EC05002010B50248FEF7A3FD10BD00004A
:1044F000340600202DE9F04104461CB94FF0FF308E
:10450000BDE8F0812068006800F0100010287BD121
:1045100020680768206847687F1CE06B00686D4969
:10452000884201D120205CE0E06B00686A49884243
:1045300001D1202055E0E06B006866496031884277
:1045400001D120204DE0E06B006863496031884272
:1045500001D1202045E0E06B00685E4918318842B7
:1045600001D1C0143DE0E06B00685B49183188421E
:1045700001D1C01435E0E06B0068564978318842BB
:1045800001D1C0142DE0E06B0068534978318842B6
:1045900001D1C01425E0E06B00684E4930318842FB
:1045A00002D14FF400101CE0E06B00684A49303142
:1045B000884202D14FF4001013E0E06B00684549D7
:1045C0009031884202D14FF400100AE0E06B00689D
:1045D00041499031884202D14FF4001001E04FF080
:1045E00000600646E06B0068006820F00100E16BA7
:1045F00009680860E06B006837494831884204D98F
:104600003548001F066017E023E0E06B0068314981
:10461000A831884203D93048083806600CE0E06BC6
:1046200000682C494831884203D92A481038C660AE
:1046300002E0284810388660A08DE16B0968486068
:10464000E06B0068006840F00100E16B09680860F9
:1046500001E0012054E7002535E0204850F825000E
:104660004068A0422ED11D4A52F8252011691B4AEC
:1046700052F82520906A194A52F82520D3698022E1
:10468000984708B102203BE7DFF850C05CF825C02E
:10469000BCF80A20DFF844C05CF825C0DCF8101034
:1046A000DFF838C05CF825C0DCF80400DFF82CC067
:1046B0005CF825C0DCF82430984708B103201FE7D8
:1046C00000201DE76D1C064800688542C5DB0420FC
:1046D00016E70000106002401064024070450020A0
:1046E0003403002070B504460D4616460CB105B1E2
:1046F00016B94FF0FF3070BD324629462046FEF70E
:104700005EFC08B10120F6E7E06B0068006820F06D
:104710000800E16B096808600020ECE770B504460A
:104720000D4616460DB106B114B94FF0FF3070BDFD
:10473000324629462046FEF71DFE20B103A000F0B8
:104740003BF80120F3E70020F1E7000068616C20EE
:104750007561727420646D61207478206572726F67
:10476000720A0000034600207047000070B504463E
:104770000D4616460DB106B114B94FF0FF3070BDAD
:104780003223324629462046FEF794FD20B103A08D
:1047900000F012F80120F2E70020F0E768616C20D9
:1047A0007561727420646D61207478206572726F17
:1047B000720A000000BFFEE7014A024900F046BF4E
:1047C000795700083803002003B40198410000988D
:1047D00050EAC12018BF04204A0D18BF40F0010064
:1047E00040F2FF72B2EB515F08BF40F002000128B7
:1047F00008BF052002B0704702480068C0F30220DD
:10480000704700000CED00E010B5002804DB0A073B
:10481000130E054A135406E00A07140E034A00F06B
:104820000F031B1FD45410BD00E400E018ED00E09E
:104830002DE9F04D2DED040B2DED0E8B96B0DDE93D
:104840002550279CDDF890A025F0004624F0004874
:10485000BAF1000F14BF0121002101EB4502FC4910
:1048600053184A1093422AD3002814BF012300236F
:1048700003EB44030B44F7498B4220D358EA000171
:104880009FEDF59B76D0DFF8D8B35D4503D1BAF143
:10489000000F05D188E0BAF1000F08BF002100D059
:1048A000012101EB450111F5001F08D8002814BFB4
:1048B0000121002101EB440111F5001F0BD99DEDF1
:1048C000261B9DED240B16B0BDEC0E8B04B0BDE88D
:1048D000F04D00F069BE0027002DBCBFE1498845BE
:1048E00021DAE1498845A8BF02271CDAC3451ADC52
:1048F000DE4901EB2851142908DDC1F1340220FA08
:1049000002F101FA02F282420DD108E058B9C1F178
:10491000140228FA02F101FA02F2424503D101F031
:104920000101C1F1020756EA0A0124D1002C22DA62
:10493000002D18BF022F01D0012F0AD0022000F055
:104940007FFE16B0BDEC0E8B04B0BDE8F04D00F05C
:1049500013BE022000F074FE00F00EFE51EC100BAE
:1049600081F0004141EC100B16B0BDEC0E8B04B091
:10497000BDE8F08D18E09FEDBEAB9FEDBF8B00282A
:1049800071D1B848804522D105F1804010F58010E2
:1049900008BFBAF1000F07D0B3450ADC002CA8BF4E
:1049A0009DED260BE0DA0DE0B0EE490AF0EE690A63
:1049B000DAE7002C06DA9DED260B51EC100B81F0A6
:1049C00000416FE0AE48784490ED000BCCE7D8454D
:1049D0004DD1002C48DA2EB186423AD1BAF1000FFF
:1049E00042D126E0BAF1000F13D0022000F028FED9
:1049F00000F0F6FD8DED020B9DED240B8DED000B0F
:104A000010EE900A039961F31E0003909DED020BD6
:104A1000AAE78DED02AB9DED240B1AEE901A10EE75
:104A2000900A8DED000B61F31E0003909DED020BCB
:104A30009AE78DED028B9DED240B18EE901A10EE87
:104A4000900A8DED000B61F31E0003909DED020BAB
:104A50008AE709DA9DED240B51EC190B53EC102B6E
:104A6000FBF79FFD1EE020E09DED240B7CE78642D6
:104A70001BDAB4F1804F0DD0A4F10050B0F1FF501B
:104A800013D1002D11DB9DED240B51EC100B01F027
:104A90002FFB07E09DED240B53EC102B51EC100B7A
:104AA00000F0C2BC41EC100B5EE79DED240B51EC15
:104AB000100B00F055FEBAF1000FCDE90E0142D106
:104AC0009FED710B46B3A6F1E040B0F17F600CD0D2
:104AD0005E4538D1002D00DAA7B3022F0CBF0120AC
:104AE0004FF0FF30FBF7E2FDDCE7002D01DD002C8D
:104AF0000DDA002D01DD002C1FDB002D16DA002C55
:104B000014DB012F08BF9FED620B3FF42DAFB0EE19
:104B10004A0AF0EE6A0A27E7022F18BF002D0CD0D0
:104B2000012F0AD1002DFFF61FAF06E0002DB8BF00
:104B3000002C08DA012F3FF417AFB0EE480AF0EE70
:104B4000680A11E71BE0012000EBE57050EA07015D
:104B500015D0791EB0EE498AF0EE698A084308BF85
:104B60009FED4D8B4E480025804570DD4D494E48E8
:104B7000884514DDB0420DDB002C19DB2FE001204D
:104B800000F05EFD16B0BDEC0E8B04B0BDE8F04D3C
:104B900000F016BDB34502DC002C09DC1FE08642A4
:104BA00002DA002C1BDA03E05E452BDD002C16DD5B
:104BB000022000F045FD00F013FD8DED020B53ECDB
:104BC0001A2B51EC180BFBF77AFCCDE90001039985
:104BD000019861F31E0003909DED020BC4E60220D4
:104BE00000F02EFD00F00CFD10EE901A18EE900A69
:104BF0008DED020B8DED008B61F31E0003909DED9A
:104C0000020BB1E69DED0E0B53EC192B51EC100B82
:104C1000FBF74FFC9FED260BCDE9080153EC102B61
:104C20009DED080B51EC100BFBF749FC9FED221B8F
:104C300053EC112BFBF740FC9DED081B53EC112BA3
:104C4000FBF73DFC9FED1E1B53EC112B3CE08CE071
:104C5000FFFF1F00FFFF0F00000000000000F03FFB
:104C60000000F03F0000F07F0000404301FCFFFF28
:104C7000000000000000F07F0000000000000000C5
:104C8000D62F00000000000000000000000000809F
:104C9000000000000000F0FF000000000000F0BF76
:104CA0000000E0410000F043FFFFEF3F0000000084
:104CB000000000000000D03F555555555555D53FD3
:104CC000000000000000E03FFBF7F6FB9DED080B45
:104CD00041EC1A0B53EC102B51EC100BFBF7EFFBD4
:104CE00053EC1A2BFBF7EBFB41EC1A0B9FEDFE0B81
:104CF00053EC102B9DED080B51EC100BFBF7DFFB79
:104D000041EC1B0B9FEDFA0B51EC1A0B53EC102BE3
:104D1000FBF7D5FB41EC1A0B9FEDF70B53EC102B77
:104D20009DED080B51EC100BFBF7C9FB53EC1A2B54
:104D3000FBF7BFFB41EC1A0B51EC1B0B53EC1A2B8E
:104D4000FBF716FB0690CDE906519DED060B53ECE3
:104D50001B2B51EC100BFBF7ACFB53EC1A2BFBF7A6
:104D6000ABFB41EC100B00F0A1B90020B6F5801FA1
:104D70000EDA9FEDE30B53EC102B9DED0E0B51EC77
:104D8000100BFBF79CFBCDE90E016FF034000E46D3
:104D900000EB2650A0F2FF37C6F31300DA4940F0CB
:104DA0007F6646F040568842D8BF002408DDD749C8
:104DB0008142C8BF012403DC0024A6F580167F1CB5
:104DC000D348784400EBC4000F9690ED00CB9DEDE6
:104DD0000E0B53EC1C2B51EC100BFBF76AFB9DEDFB
:104DE0000E0B41EC1B0B53EC1C2B51EC100BFBF787
:104DF000BFFA41EC100B51EC190B53EC102BFBF7E5
:104E0000D0FB41EC1D0B51EC1B0B53EC1D2BFBF7A6
:104E100056FB41EC1A0BBF488DED10AB7844109552
:104E200090ED000B4FF0005040EA660000EB84402C
:104E30008DED080B00F5002009909DED080B53EC5B
:104E40001C2B51EC100BFBF734FB9DED0E1B53ECB0
:104E5000112BFBF731FB41EC100B53EC102B9DEDAC
:104E6000100B51EC100BFBF72AFB9DED080B41ECEE
:104E70001C0B53EC102B9DED100B51EC100BFBF7A2
:104E80001EFB53EC1B2BFBF717FB53EC1C2BFBF708
:104E900010FB53EC1D2BFBF712FB41EC1C0B53ECEE
:104EA0001A2B51EC1A0BFBF70AFB41EC1B0B9A482F
:104EB0000621B0EE4B0AF0EE6B0A784400F0E0FAFF
:104EC000B0EE401AF0EE601AB0EE41DAF0EE61DAC0
:104ED00053EC1B2B51EC1B0BFBF7F1FA53EC1D2B86
:104EE000FBF7EDFA9DED100B41EC1B0B53EC1A2B6D
:104EF00051EC100BFBF73CFA53EC1C2BFBF7DFFAE1
:104F000053EC1B2BFBF734FA9DED100B41EC1B0B04
:104F100053EC102B51EC100BFBF7D1FA41EC1D0BAD
:104F20009FED7FEB53EC1E2BFBF722FA53EC1B2B70
:104F3000FBF71EFA0890CDE908519DED080B53ECE4
:104F40001E2B51EC100BFBF7B4FA53EC1D2BFBF7A7
:104F5000B0FA53EC1B2BFBF7AFFA9DED080B41ECBD
:104F60001D0B53EC102B9DED100B51EC100BFBF7B0
:104F7000A6FA41EC1B0B53EC1A2B51EC1D0BFBF763
:104F80009EFA9DED080B41EC1A0B53EC102B51ECE3
:104F90001C0BFBF794FA53EC1A2BFBF7E9F941ECE5
:104FA0001A0B51EC1B0B53EC1A2BFBF7E1F90C908D
:104FB000CDE90C519DED0C0B53EC1B2B51EC100B60
:104FC000FBF777FA53EC1A2BFBF776FA41EC1B0B45
:104FD0009FED550B53EC102B9DED0C0B51EC100B72
:104FE000FBF76DFA41EC1A0B9FED510B51EC1B0BCB
:104FF00053EC102BFBF763FA41EC1B0B9FED4E0BB0
:1050000053EC102B9DED0C0B51EC100BFBF757FAEA
:1050100053EC1B2BFBF7ACF941EC100B48487844E0
:1050200000EBC40090ED001B51EC100B53EC112B66
:10503000FBF79EF941EC1B0B3846FBF737FBCDE93C
:10504000080153EC1B2B51EC1A0BFBF791F941ECC7
:10505000100B3C48784400EBC40090ED00CB51ECC1
:10506000100B53EC1C2BFBF783F99DED081B53EC45
:10507000112BFBF77DF90690CDE906519DED080B4C
:1050800053EC102B9DED060B51EC100BFBF711FAB6
:1050900053EC1C2BFBF70DFA53EC1A2BFBF709FA18
:1050A00053EC1B2BFBF708FA41EC100B9DED261B74
:1050B00053EC102B8DED001B00959DED260B51EC54
:1050C000100BFBF7FCF99DED000B41EC1A0B53ECB8
:1050D000102B9DED260B51EC100BFBF7EAF99DED23
:1050E000061B53EC112B2FE0000000604715F73F23
:1050F000FE822B654715F73F44DF5DF80BAE543E4B
:1051000000000000000040438E9803007AB60B00B8
:10511000522B0000802B00008A2A000000000000B3
:105120000000000000000840000000E009C7EE3F5A
:10513000FD033ADC09C7EE3FF5015B14E02F3EBEEC
:1051400016290000D0280000FBF7B9F953EC1A2B00
:10515000FBF70EF99DED060B41EC1A0B53EC102BEF
:105160009DED000B51EC100BFBF7A9F9CDE90C01FB
:105170009DED0C0B51EC1A0B53EC102BFBF7F8F8D0
:10518000CDE902010C46AA498C422FDB611A084383
:1051900018D19DED0C0B53EC102B9DED020B51EC37
:1051A000100BFBF786F941EC1B0B9FEDA30B51ECA9
:1051B0001A0B53EC102BFBF7DBF853EC1B2BFBF714
:1051C00099FA2DD2022000F03BFA00F009FA10EE15
:1051D000901A18EE900A8DED020B8DED008B61F3A5
:1051E0001E0003909DED020BFFF7BEBB944A24F016
:1051F0000041914214D39349214408437FF4EFAC1A
:105200009DED0C0B53EC102B9DED020B51EC100B94
:10521000FBF74FF953EC1A2BFBF76CFA7FF6DFAC78
:1052200024F000408849894A002601EB205182423F
:105230002BDA481C4FF4801121FA00F02044844AF4
:10524000C0F30A517A44A1F2FF3192ED000B814A7A
:105250008DED080BCA4020EA0202C0F3130040F4AF
:105260008010C1F1140120FA01F60992002CB8BF98
:1052700076429DED080B53EC102B9DED0C0B51EC81
:10528000100BFBF716F9CDE90C019DED0C0B51EC61
:105290001A0B53EC102BFBF76BF89FED6F0B08907C
:1052A000CDE9085153EC102B9DED080B51EC100B80
:1052B000FBF705F941EC1B0B9FED690B53EC102B31
:1052C0009DED080B51EC100BFBF7F9F89DED0C0B65
:1052D00041EC1C0B53EC102B9DED080B51EC100B0B
:1052E000FBF7E7F853EC1A2BFBF7E6F89FED5E1B94
:1052F00053EC112BFBF7E3F853EC1C2BFBF738F8BE
:1053000041EC1A0B51EC1B0B53EC1A2BFBF730F84A
:10531000CDE902019DED020B53EC1B2B51EC100B60
:10532000FBF7C7F853EC1A2BFBF7C6F89DED020B01
:1053300041EC1A0B53EC102B51EC100BFBF7BFF8A0
:10534000CDE908014A489DED080B0521784400F09D
:1053500097F89DED081B51EC100B53EC112BFBF74C
:10536000AEF89DED021B53EC112BFBF7A5F8CDE930
:1053700006019DED020B53EC1A2B51EC100BFBF7C1
:105380009EF853EC1A2BFAF7F3FF9FED3B0B41EC21
:105390001A0B53EC102B9DED060B51EC100BFBF789
:1053A00088F89DED060B41EC1B0B53EC102B9DED8B
:1053B000020B51EC100BFBF782F853EC1B2BFBF7A5
:1053C000F0F853EC1A2BFBF774F89DED021B53EC2D
:1053D000112BFBF76EF853EC192BFBF76DF8CDE9A9
:1053E000020101EB065001150029C8BF039015DC2E
:1053F0009DED020B324651EC100BFBF753FAFFF711
:10540000E3F9042808BF00F0FBF832469DED020BDB
:1054100051EC100BFBF746FACDE902019DED020BB2
:1054200051EC180B53EC102BFBF749F8FFF73ABB84
:105430000000904000000000FE822B654715973C5D
:1054400000CC904000346F3F01FCFFFF0000E03FC4
:1054500058270000FFFF0F0000000000432EE63F2A
:10546000396CA80C615C20BEEF39FAFE422EE63F93
:10547000282600000000000000000000000000409E
:1054800070B504462DED028B4D1E00EBC500B0EE4D
:10549000408AF0EE608A90ED000B35F0060017D0E0
:1054A00053EC182B51EC100BFBF709F841EC100BE7
:1054B0006D1E04EBC50090ED001B51EC100B53EC7E
:1054C000112BFAF755FF41EC100B35F00600E7D130
:1054D000022D36D0042D1CD0062D1CBFBDEC028B36
:1054E00070BD53EC182B51EC100BFAF7E8FF94ED5C
:1054F0000A1B53EC112BFAF73BFF53EC182BFAF76E
:10550000DEFF94ED081B53EC112BFAF731FF41EC51
:10551000100B53EC182B51EC100BFAF7D0FF94ED55
:10552000061B53EC112BFAF723FF53EC182BFAF759
:10553000C6FF94ED040B53EC102BFAF719FF41EC66
:10554000100B53EC182B51EC100BFAF7B8FF94ED3D
:10555000021B53EC112BFAF70BFF53EC182BFAF745
:10556000AEFF94ED001B53EC112BFAF701FFBDECDD
:10557000028B41EC100B70BD9FED070B10B553EC87
:10558000102B9FED070B51EC100BFBF70AF841ECC9
:10559000100B10BD00000000000000000000000023
:1055A000000000000000F03F10B553EC112B51EC4F
:1055B000100BFAF7DDFE41EC100B10BD00000000EF
:1055C0009FED050B10B553EC102B51EC100BFAF7B7
:1055D000E8FF41EC100B10BD0000000000000000CF
:1055E0009FED050B10B553EC102B51EC100BFAF797
:1055F00066FF41EC100B10BD0000000000000070C1
:105600009FED050B10B553EC102B51EC100BFAF776
:1056100056FF41EC100B10BD000000000000001010
:1056200002E008C8121F08C1002AFAD1704770476B
:10563000002001E001C1121F002AFBD170470000C9
:105640000149086070470000440300202DE9F04143
:1056500016460F460446002503E03946B047641C51
:105660006D1C20780028F8D12846BDE8F0810000A4
:105670002DE9F0472DED0C8B0646884691469A465B
:1056800000BF00BF00BF00BF00BF00210C460D4699
:105690004FEA0A60044345EAE0754FEA09400443D3
:1056A00045EAE0754FEA0820044345EAE0753443D3
:1056B0004FF000412140002041404040014302D0D2
:1056C0004FF0FF3000E0012008EE900AE00D40EAC4
:1056D0004520C0B27F21471A1D4904EA01024FF05C
:1056E00000011046FAF7CCFF00EE100A9FED191AE0
:1056F000C0EE010AB7EE000A30EE809A3846FAF79B
:10570000D5FF41EC1D0BB0EE4D1AF0EE6D1A9FED7A
:10571000120BFFF78DF8B0EE40BAF0EE60BAB8EEBB
:10572000E80A20EE090A10EE101A0846FAF7CFFF31
:1057300053EC1B2BFAF7C3FEFAF7F4FF08EE100A3E
:1057400000BFB0EE480ABDEC0C8BBDE8F08700004E
:10575000FFFF7F00FEFFFF4A000000000000004046
:1057600082B0CDE9000121F0004001909DED000BD9
:1057700002B051EC100B704738B504468DF80000AC
:1057800069460320ABBE204638BD10B5FCF718FEB5
:10579000FEF780FAFDF75EFFFDF7F8FEFDF7C6FFA6
:1057A000FDF7ACFEFDF7DEFFFDF7CEFEFBF7DEF901
:1057B00072B6FBF7B7FA044614B14FF0FF3010BDD4
:1057C00062B6FDF717FF00F03FF800BFFEE70146A5
:1057D0000020842901D0CA1C10447047F0B50B305A
:1057E000154D20F007010024144A0FE003688B4296
:1057F0000BD38B4205D95E1A43184768C3E900678B
:1058000000E04368136002C004E0021D1068002835
:10581000ECD12046002802D1286808B10020F0BD54
:10582000064A07481060074A121A22F00702C0E928
:10583000002401202860D7E7400300203C0300201B
:105840009C460020984A002010B500F0BBFD0020C7
:1058500010BD7FB504460D46606998B1A06988B156
:10586000B4F90800FFF7B3FF0646D4E90510CDE907
:10587000006102902B462269D4E9001000F02EFF4F
:10588000039013E0B4F90800FFF7A1FF064603A850
:10589000CDE90060238A9AB22B46D4E9001000F0CB
:1058A000EBFE012802D0002004B070BD0398FBE796
:1058B00010B52DED028B0446B0EE408A3CB935A000
:1058C000FEF77AFFBFEE000ABDEC028B10BD94ED2F
:1058D000140A30EE480A84ED150A94ED000AD4ED5E
:1058E000150A20EE200A84ED040A94ED150AD4ED81
:1058F000110A30EE600AD4ED020A20EE200A84ED8F
:10590000070A94ED010AD4ED150A20EE200A84ED71
:10591000060A94ED050AD4ED060A30EE200A84ED5D
:10592000050A94F8640000F0010010B12046FEF76B
:10593000C7F894ED040AD4ED070A30EE200AD4ED3E
:10594000050A30EE200A84ED0B0A2046FEF718F90E
:105950002046FEF77FF82046FEF7EAF894ED040AA9
:1059600084ED0D0A94ED050A84ED0E0A94ED060A05
:1059700084ED100A94ED070A84ED0F0A94ED0B0AEA
:1059800084ED0C0A94ED150A84ED110A94ED0B0ACE
:105990009AE700007069645F696E7374616E636595
:1059A000206572726F720A002DE9F04105460E46BD
:1059B0001C4807681C480068001D00F0D0FB50B967
:1059C0001948006890F82C10012088401749096890
:1059D000814316480160681C38B936B11248016825
:1059E000091D134800F006FC1AE07C190E480068F7
:1059F0004460BC4207D20C480168091D0D4800688C
:105A000000F0DEFB0CE008480168091D0A48006848
:105A100000F0D6FB09480068844201D207480460C0
:105A2000BDE8F08134000020200000203800002074
:105A300060080020280000202400002050000020E2
:105A400010B5044600F0E2FB23480068401C2249E0
:105A500008602248006840B9204804600846006891
:105A600001280DD100F03EF90AE01D48006838B960
:105A70001A480068C06AE16A884201D81748046081
:105A800018480068401C1749086094F82C10012041
:105A9000884015490968084313490860E16A01EB29
:105AA0008101124A02EB8100211D00F0A3FB00F0EE
:105AB000D7FB0B48006868B108480068C06AE16A13
:105AC000884207D24FF0805009490860BFF34F8FDA
:105AD000BFF36F8F10BD00003000002020000020B9
